:020000040800F2
:1000000040490124AD02000891880008917400085D
:10001000898800088117000899AC000800000000DA
:10002000000000000000000000000000E18A00085D
:10003000B11B00080000000099880008E18C00084E
:10004000CB020008CB020008CB020008CB0200085C
:10005000CB020008CB020008CB020008CB0200084C
:10006000CB020008CB020008CB0200088917000869
:10007000CB020008CB020008CB020008CB0200082C
:10008000CB020008CB020008CB020008CB0200081C
:10009000CB020008CB020008CB020008CB0200080C
:1000A000CB020008CB020008CB020008CB020008FC
:1000B000CB020008CB020008CB020008CB020008EC
:1000C000CB020008CB020008CB020008CB020008DC
:1000D000CB020008CB020008CB02000889AC000864
:1000E000CB020008CB02000800000000CB02000891
:1000F000CB020008CB020008CB020008CB020008AC
:10010000CB020008CB020008CB020008CB0200089B
:10011000CB020008CB020008CB020008CB0200088B
:10012000CB020008CB020008CB020008CB0200087B
:10013000CB020008CB020008CB020008CB0200086B
:1001400000000000000000000000000000000000AF
:10015000CB020008CB020008CB020008CB0200084B
:10016000CB020008CB020008CB020008CB0200083B
:10017000CB020008CB020008CB0200080000000000
:10018000CB020008CB020008CB020008CB0200081B
:10019000CB020008CB020008CB020008CB0200080B
:1001A000CB020008CB020008CB020008CB020008FB
:1001B000CB020008CB020008CB020008CB020008EB
:1001C000CB020008CB020008CB020008CB020008DB
:1001D000CB020008CB020008CB020008CB020008CB
:1001E000CB020008CB020008CB020008CB020008BB
:1001F000CB020008CB020008CB020008CB020008AB
:10020000CB020008CB020008CB020008CB0200089A
:10021000CB020008CB020008CB020008CB0200088A
:10022000CB020008CB020008CB020008000000004F
:10023000CB020008CB02000800000000CB0200083F
:10024000CB020008CB020008CB020008CB0200085A
:10025000CB020008CB020008CB020008CB0200084A
:10026000CB020008CB020008CB020008CB0200083A
:10027000CB020008CB020008CB02000800000000FF
:10028000CB020008CB020008CB02000800000000EF
:1002900000000000CB020008DFF80CD000F038FFAF
:1002A00000480047D1C5000840490124074880475D
:1002B0000748804707480047FEE7FEE7FEE7FEE7FE
:1002C000FEE7FEE7FEE7FEE7FEE7FEE7C11B0008EC
:1002D000C18D0008990200082DE9FF4FABB005461B
:1002E0002C9C00262194E40806EB040909EB040089
:1002F000039020440290204400EB040805EBC0006A
:10030000139008EB040739190A9105EBC60B006836
:1003100008900146DBF800A0504600F04AFC08991E
:100320000190504600F097FC05EBC80A099005EBD8
:10033000C900DAF800801590D0F800904146484690
:1003400000F037FC41460590484600F084FC05EB80
:10035000C7090890D9F8000004900398049905EBA8
:10036000C008D8F80070384600F023FC04991190BA
:10037000384600F070FC0A990E9005EBC100189009
:10038000006803900298039905EBC0073868049051
:1003900000F00FFC0290DDE9031000F05CFC10900F
:1003A0001199019800F057FC04901199019800F000
:1003B00000FC01900299059800F04DFC1190029903
:1003C000059800F0F6FB05900146019800F0F1FB5E
:1003D000CBF800000599019800F03DFC0146139808
:1003E0000160139840680390DBF8040003990290C1
:1003F00000F0DFFB0190DDE9020100F02CFC06902B
:10040000DAF804000390159803994068029000F010
:10041000D0FB0590DDE9020100F01DFC0790D9F842
:1004200004000390D8F804000399029000F0C1FB87
:100430000B90DDE9020100F00EFC0D901898406869
:100440000A9078680A99039000F0B3FB02900A9929
:10045000039800F000FC0C900B99019800F0FBFB56
:1004600003900B99019800F0A4FB01900299059864
:1004700000F0F1FB0B900299059800F09AFB0590B3
:100480000146019800F095FBCBF80400059901980E
:1004900000F0E1FB0146139841600B99049800F0CD
:1004A00088FBC8F800000B99049800F0D4FBC9F849
:1004B00000001199039800F0CEFBC8F804001199D0
:1004C000039800F076FBC9F804001099089800F032
:1004D000C2FBDFF85486414600F0C3FB1099814609
:1004E000089800F066FB414600F0BBFB0C99834680
:1004F000079800F0B0FB414600F0B3FB05900C9963
:10050000079800F056FB414600F0ABFB07904946C8
:10051000099800F0A0FB04904946099800F049FBB7
:10052000099059460E9800F096FB109059460E9887
:1005300000F03FFB0E90DDE9051000F08CFB03900E
:10054000DDE9051000F035FB069007990D9800F0E5
:1005500082FB079983460D9800F02BFB81460146EC
:10056000099800F026FB0146159801604946099854
:1005700000F071FB0146189801605946049800F09C
:1005800018FBCAF800005946049800F064FB386074
:100590000E99069800F05FFB0146159841600E9990
:1005A000069800F006FB01461898416010990398E0
:1005B00000F051FBCAF804001099039800F0F9FA12
:1005C000219978602C980E448642FFF48DAE082C59
:1005D0003CBF2FB0BDE8F08F002018900120209084
:1005E0002E9918982D9B08442D99189001EBC00C5A
:1005F0002D9F4200209E1118DCF8008003EBC203FF
:10060000CDF854800A18DDF8B48007EBC107111843
:1006100008EBC2081A6814920A18D7F80090104420
:10062000CDF85C90DDF8B49009EBC101D8F80090EA
:10063000CDF85890DDF8B490DCF804C009EBC202A4
:10064000CDF870C0D1F800C009EBC000CDF864C08F
:10065000D2F800C0CDF88CC0D0F800C0CDF888C06A
:100660005B6812937B681A93D8F804301393496837
:100670001B9151681D914068CDF8780006EB040885
:1006800008EB0400039020440290204400EB04098E
:1006900005EBC000249009EB040739190A91D0F842
:1006A00000A005EBC6001F905146D0F800B0584698
:1006B00000F07FFA51460190584600F0CCFA05EB65
:1006C000C80B099005EBC9002590DBF80080D0F835
:1006D00000904046494600F06CFA49460590404675
:1006E00000F0B9FA089005EBC70A0398DAF8007031
:1006F00005EBC0093946D9F80080404600F059FAA8
:1007000039461190404600F0A6FA0A990E9005EB82
:10071000C108D8F8000003900298039905EBC007C0
:100720003868049000F045FA0290DDE9031000F00B
:1007300092FA10901199019800F08DFA0490119995
:10074000019800F036FA01900299059800F083FABA
:1007500011900299059800F02CFA05900146019835
:1007600000F027FA01461F9801600599019800F0F2
:1007700072FA05902498406803901F980399406886
:10078000019000F016FA02900399019800F063FAC4
:100790000690259840680390DBF8040003990190C7
:1007A00000F007FA0A900399019800F054FA0790B4
:1007B000DAF804000390D9F804000399019000F0DE
:1007C000F8F90B900399019800F045FA0D90D8F8CC
:1007D00004000C9078680C99039000F0EAF90190FD
:1007E0000C99039800F037FA0C900B99029800F0DE
:1007F00032FA03900B99029800F0DBF9029001990C
:100800000A9800F028FA0B9001990A9800F0D1F9A3
:100810000A900B99049800F0CCF901900B99049878
:1008200000F019FA04900A99029800F0C2F9014602
:100830001F9841600A99029800F00DFA0A901199E8
:10084000039800F008FA02901199039800F0B1F9AA
:1008500003900599169800F004FA1F900A991398CE
:1008600000F0FFF911900A99169800F0FAF90B9030
:100870000599139800F0F5F90A9011991F9800F066
:1008800098F9014624980160DDE90A1000F0E3F9C7
:100890000146249841600199149800F0E2F91F90F4
:1008A0000299129800F0DDF911900299149800F065
:1008B000D8F90B900199129800F0D3F90A90119988
:1008C0001F9800F076F9C9F80000DDE90A1000F081
:1008D000C2F9C9F804000499239800F0C2F91F90E6
:1008E00003991D9800F0BDF903998146239800F003
:1008F000B8F90B9004991D9800F0B3F90A90494695
:100900001F9800F056F9CAF80000DDE90A1000F05F
:10091000A2F9CAF804001099089800F09CF98249DD
:1009200000F09FF910998146089800F042F97E493D
:1009300000F097F90C998246079800F08CF97A49F3
:1009400000F08FF902900C99079800F032F976497F
:1009500000F087F907904946099800F07CF9049067
:100960004946099800F025F9099051460E9800F083
:1009700072F9109051460E9800F01BF90E900299F2
:10098000069800F068F903900299069800F011F9B2
:10099000069007990D9800F05EF9079982460D9828
:1009A00000F007F981460146099800F002F901902C
:1009B0004946099800F04FF909905146049800F013
:1009C000F8F808905146049800F045F904900E9903
:1009D000069800F040F90E998146069800F0E9F873
:1009E00006901099039800F036F907901099039833
:1009F00000F0DFF803900199159800F032F91F908C
:100A000049461C9800F02DF982461598494600F099
:100A100028F90B9001991C9800F023F981461F9842
:100A2000514600F0C6F8CBF8000049460B9800F09C
:100A300012F9CBF804000999229800F012F91F90DE
:100A400006991E9800F00DF906998346229800F049
:100A500008F9099982461E9800F003F981461F980B
:100A6000594600F0A6F84946C8F80000504600F084
:100A7000F2F8C8F804000899199800F0F2F80799FC
:100A800083461B9800F0EDF807998146199800F00D
:100A9000E8F8089982461B9800F0E3F8804649463A
:100AA000584600F086F801462598016041465046B8
:100AB00000F0D1F80146259841600499179800F09C
:100AC000D0F8039983461A9800F0CBF80399814631
:100AD000179800F0C6F8049982461A9800F0C1F8F9
:100AE00080464946584600F064F841463860504612
:100AF00000F0B1F8219978602C980E448642FFF4FA
:100B0000BDAD2098401C209084423FF669AD2E98E0
:100B10004FF6FF71072C01EAC0002E903FF6E1ABC3
:100B20002FB0BDE8F08F0000F304353F2DE9F05FF2
:100B30000546002092469B4688460646814640244C
:100B40001BE0284641464746224600F0E1F853465E
:100B50005A46C01A914110D311461846224600F059
:100B6000C8F82D1A67EB01084F46224601200021E4
:100B700000F0BFF817EB00094E41201EA4F101045C
:100B8000DFDC484631462A464346BDE8F09FD2B2F4
:100B900001E000F8012B491EFBD270470022F6E766
:100BA00010B513460A4604461946FFF7F0FF2046E3
:100BB00010BDF0B480EA0102D40F4200B2EB410F45
:100BC00002D20246084611464A0042D0C30DDDB2A9
:100BD000C1F3C752AD1A202D35DAC1F3160141F425
:100BE000000204B15242C5F1200602FA06F12A4180
:100BF0001044B3EBD05F23D0C4B1012DA0EBC350A0
:100C000009DCF0BC4FF0004202EAC352DBB200F54F
:100C1000000000F096B8400000F1807000EBC35077
:100C2000A0F1807040EAD170490009E0490841EA2A
:100C3000C071A0EBC35000F50000400800EBC350AA
:100C4000F0BC00F075B86142012202EB4101001BCB
:100C5000F6E7F0BC704781F00041AAE780F0004061
:100C6000A7E780EA010210B502F00043400022D05D
:100C70004A001FD0010E01EB1261C0F35600C2F30F
:100C8000560240F4000042F40002A0FB02200004DF
:100C90007F39140400D0401C50EA124001D44000B7
:100CA000491EC2B20C0604EBD010401C4008802A3A
:100CB00002D003E0002010BD20F00100002900DA7E
:100CC0000020184310BD30B50B46014600202022FD
:100CD000012409E021FA02F59D4205D303FA02F549
:100CE000491B04FA02F52844151EA2F10102F1DCA9
:100CF00030BD202A04DB203A00FA02F100207047C0
:100D00009140C2F1200320FA03F319439040704749
:100D1000202A04DB203A21FA02F00021704721FA50
:100D200002F3D040C2F120029140084319467047B7
:100D30000029A8BF7047401C490008BF20F00100EF
:100D4000704710B4B0FA80FC00FA0CF050EA0104CD
:100D500004BF10BC704749B1CCF1200421FA04F45F
:100D600011FA0CF118BF012121430843A3EB0C0138
:100D7000CB1D4FEA00614FEA102042BF002010BC9B
:100D8000704700EBC35010440029A4BF10BC70474B
:100D9000401C490008BF20F0010010BC70472DE93D
:100DA000FE4F804681EA0300C00F0C46009021F000
:100DB000004123F00045B8EB0200A94105D24046AE
:100DC000214690461C460B46024623F00040104345
:100DD00047D0270DC7F30A00C3F30A510290401A07
:100DE000019040286BDAC3F3130040F4801B009895
:100DF000924620B10023D2EB030A63EB0B0B019860
:100E00005946C0F140025046FFF773FF06460D46B3
:100E100050465946019A00F08DF910EB08006141E7
:100E2000002487EA115284EAE7731A4340D0009AFB
:100E300062B3019A012A4FEA075215DC001B61EBED
:100E400002014FF0004202EA0752CDE90042001CC5
:100E500041F5801132462B4600F08DF903B0BDE814
:100E6000F08F40462146F9E7001B61EB0201001CB0
:100E700041F5801300185B412018A2F5001747EBDD
:100E8000030140EAD570B6196D4111E06D084FEAD3
:100E9000360645EAC0754FEA0752001B61EB0201B6
:100EA000001C41F5801149084FEA300000195141FA
:100EB00032462B4603B0BDE8F04F00F04DB9009824
:100EC000012240000023D0EB020263EBE0730098A4
:100ED00021464FEAE074B8EB000061EB0401E9E75A
:100EE00083F000435BE781F0004158E72DE9FE4FB6
:100EF00081EA030404F0004421F0004100944FF023
:100F0000000B23F0004350EA01045ED052EA0304D0
:100F10005BD0C3F30A54C1F30A552C44A4F2F33452
:100F20000194A0FB0254C1F3130141F48011C3F3F7
:100F3000130343F4801301FB024400FB034E840AB5
:100F4000970A44EA815447EA8357A4FB076802954D
:100F50008D0A05FB07854FEA932C04FB0C542705EB
:100F6000029D4FEA065847EA1637B5EB08056EEBC7
:100F7000070C870E920E47EA811742EA8312A7FBFD
:100F80000201B6EB0B0164EB00042B0D43EA0C33BA
:100F90005E1844EB1C50DA465146E7FB0201C5F3EC
:100FA00013044FEA0B3343EA14534FEA0432019C13
:100FB00043EA0603A4F10C040294009CCDE900B4BA
:100FC00000F0D9F803B0BDE8F08F00200146F9E742
:100FD0002DE9F04D81EA030404F0004B21F00045B7
:100FE00014464FF0000A23F0004150EA050220D0D9
:100FF00054EA01021DD0C5F30A570246C5F3130394
:10100000C1F31300C1F30A5640F4801543F4801372
:10101000A7EB0608101BD64608F2FD3873EB050057
:1010200002D308F1010801E092185B41B8F1000F0A
:1010300003DA00200146BDE8F08D00204FF4801156
:10104000064684460EE0171B73EB050705D3121BFB
:1010500063EB050306434CEA010C49084FEA3000F4
:1010600092185B4150EA0107EDD152EA030012D019
:1010700082EA040083EA0501084305D0101BAB4156
:1010800006D20122002306E000224FF0004302E0D6
:101090006FF0010253101AEB06004CEB085110EBF5
:1010A0000A0041EB0B01BDE8F04D00F055B8C1F36B
:1010B0000A52C1F3130140F2FF3341F480119A4206
:1010C00002DA00200146704740F233439A42A2F20E
:1010D000334202DC5242FFF71BBEFFF70ABE00009C
:1010E00030B5041E71F1000404DB4FF000444042AF
:1010F00064EB0101141E73F1000405DB1C464FF084
:101100000043524263EB0403994208BF904230BD52
:10111000064C074D06E0E06840F0010394E8070044
:1011200098471034AC42F6D3FFF7BAF8A8930108F9
:10113000D8930108202A06DBCB17203A41FA02F0A7
:1011400043EAE07306E041FA02F3D040C2F1200224
:10115000914008431946704710B5141E73F10004FE
:1011600008DA401C41F1000192185B411A4301D199
:1011700020F0010010BD2DE9F04D92469B4611B1C3
:10118000B1FA81F202E0B0FA80F220329046FFF725
:10119000B0FD04460F4640EA0A0041EA0B015346FF
:1011A0005A46084313D0114653EA010019D0C8F13A
:1011B00040025046FFF7ACFD05460E4650465946E4
:1011C0004246FFF796FD084305D0012004E0204683
:1011D0003946BDE8F08D0020054346EAE0762C4311
:1011E00037430A986305E40AA0EB08000022FD0AD1
:1011F00044EA47540A3002D500200146E9E70105D8
:1012000010196941DDE9084500196941BDE8F04D53
:10121000A2E730B58C1810F8012B12F00F0301D1A2
:1012200010F8013B120906D110F8012B03E010F869
:10123000015B01F8015B5B1EF9D101E001F8013BA4
:10124000521EFBD1A142E6D3002030BD00000000B9
:101250009FED071B42F2100120EE010BC2F200418C
:10126000BCEEC00B10EE100A00BA486008F054B88B
:1012700095D626E80B2E1140B0B50446006842F220
:10128000001140F48070C4F20201884204D142F29D
:101290000830C4F2020003E046F20830C5F602004E
:1012A000006810F4403F10D004F08AFA61680546E7
:1012B000B1F5803F05D0B1F5403F22D0B1F5003FF8
:1012C00020D1080CB5FBF0F51CE04FF40020002104
:1012D00003F09AFA61680546A1F580224FEAB2420E
:1012E0000A2A0FD8DFE802F0060606060606494B72
:1012F0004D4F51006FF0010000EA5140B5FBF0F591
:1013000000E0AD0802F05CFF41F2030188420DD815
:10131000206842F60151C0F231118D4281682CBF24
:1013200041F4807121F480718160B0BD4BF62140A1
:10133000C0F2BE00854205D82068816821F4407162
:101340008160B0BD47F64100C0F27D10854203D8F0
:1013500020680122816808E020684FF28101C0F214
:10136000FA218D42816804D8022262F3092181604A
:10137000B0BD41F440718160B0BD2D09C2E76D0977
:10138000C0E7AD09BEE7ED09BCE72D0ABAE70000EA
:1013900070B50446006882688368DB0843EA9202FD
:1013A000D20769D0C26892011FD5627D012A1CD183
:1013B000227D012A19D10168490612D44DF6044153
:1013C000C0F20C0104394DD0026852065FBF0268BA
:1013D0005FEA426202685FEA426202D40268520631
:1013E000F0D540210160012104E0022902D102214F
:1013F000082611E0826852070AD58268920707D44E
:101400004FF6C0738268C7F6FF731A4010328260CD
:1014100001294FF0040610D0826812070AD58268AD
:10142000920707D44FF6C0738268C7F6FF731A405D
:1014300020328260032908BF0C2602F0C9FE216811
:101440008968314218D0054603E000BF8068304209
:1014500012D002F0BDFE401B06282068F6D381683A
:101460003142F3D0606D40F010006065A06D40F037
:101470000100A065012070BD002070BD00000000CB
:101480000146806B426D12F0500F426D05D0D206BE
:1014900015D4C06CC26C0846104742F40071416517
:1014A00001680A681207CA680BD491071CD1416D04
:1014B00021F480714165416DC90415D40EE000F03E
:1014C0004FBE12F4406F0FD1C96889040CD4416D2E
:1014D00021F480714165416DC90405D4416D41F02D
:1014E0000101416500F028BE00F026BE00000000AA
:1014F000806B416D41F040014165816D41F0040117
:10150000816500F02DBE0000806B00F025BE00005C
:10151000B0B501680446886880078A684FF000000B
:1015200033D412F0010208BFB0BD886800F00D008E
:1015300001281FD14FF6C0728868C7F6FF721040AD
:10154000023088600320086002F042FE216889684A
:10155000C90701D10020B0BD054602E08068C00780
:1015600012D002F035FE401B03282068F6D38168B4
:10157000C907F3D0606D40F010006065A06D40F0C9
:101580000100A0650120B0BD0020B0BD000000003A
:10159000F0B581B0044600688168C90751D14FF6A3
:1015A000C0778168C7F6FF7707F17F0211420AD042
:1015B000606D40F010006065A06D40F00100A06516
:1015C000012001B0F0BD8168394041F00101816026
:1015D00002F0FEFD42F2000246F20836C4F20202B8
:1015E000216802F5807302F54275C5F6020699423C
:1015F00008BF2E4691420A4608BF2E46994205462C
:1016000004BF42F20002C4F2020230688A4218BFEC
:1016100010F01F0015D100BF0868C00711D18868FD
:10162000C00704D18868384040F00100886002F0AB
:10163000CFFD401B21680328EED30868C007EBD11B
:10164000B6E7002001B0F0BD70B540F2000442F2F0
:101650002405C2F20044C2F20045204629460AF0A1
:101660007FFC4AF224062846C2F2004631460AF0C0
:10167000F3FDB7EE000A30460AF08AFB44F230016F
:101680003046C2F2014109F0F7FF4FF40051204605
:10169000FFF784FA70BD000044F22C02C2F201424E
:1016A000106044F22400C2F20140016042F22100C5
:1016B000C2F20040002101707047000000000000ED
:1016C00080B544F2240040F20001C2F20140C2F2AF
:1016D00000414FF48052006800F0E6FE44F22C0016
:1016E000C2F201400068BDE8804004F01DBD00006A
:1016F00080B544F22400C2F20140006800F064FFAB
:1017000044F22C00C2F201400068BDE8804004F0C1
:1017100063BD00000000000010B542F2210000216E
:10172000C2F200400170FFF7E3FF44F24400C2F24E
:101730000140FFF789FF42F20C049FED0E1AC2F23E
:10174000004494ED000AB4EE410AF1EE10FAC8BF6D
:1017500010BDB7EEC00AFFF77BFD94ED000A9FEDC8
:10176000061A30EE010A84ED000ABDE81040FFF7CA
:10177000A7BF00BF205BE34B0024F448000000003B
:10178000FEE700000000000044F2C000C2F2014089
:1017900001F026BB0000000040F20F42D0F800C06C
:1017A000C4F20202944510DC6F22C4F20202944596
:1017B00020DC3F22C4F20202944536DC1022C4F23F
:1017C0000202944554D028224EE040F26F42C4F207
:1017D000020294451ADC40F23F42C4F202029445F0
:1017E0002ADC40F21042C4F20202944540D040F29A
:1017F000284239E09F22C4F20202944525DC70227F
:10180000C4F20202944533D088222DE040F29F4278
:10181000C4F2020294451FDC40F27042C4F202029C
:10182000944525D040F288421EE04022C4F20202D4
:1018300094451DD0582217E040F24042C4F2020203
:10184000944515D040F258420EE0A022C4F20202A4
:1018500094450DD0B82207E040F2B842C4F202022B
:10186000944505D040F2A042C4F20202944518D13A
:101870006FF00F024AF6AB2352FA8CF2CAF6AA2393
:10188000A2FB033108A35F2AC1F302115B5C40F2A3
:10189000FF312CEA0101C36588BF04318165084628
:1018A00070472CF0FF01F9E700061016000610162D
:1018B00070B540F26F44D0F800C0C4F20204D0F812
:1018C00058E0A44519DC9F25C4F20205AC4531DC83
:1018D0005725C4F20205AC4556DC1025C4F20205BA
:1018E000AC4500F092802825C4F20205AC4500F01A
:1018F0008C804025C4F2020584E045F22F45C5F6F0
:101900000205AC452BDC40F2B745C4F20205AC45FC
:1019100048DC40F27045C4F20205AC4575D040F297
:101920008845C4F20205AC456FD040F2A045C4F230
:10193000020567E040F22745C4F20205AC4540DCF1
:10194000A025C4F20205AC455FD0B825C4F202055B
:10195000AC455AD040F21045C4F2020552E045F2BF
:101960006B45C5F60205AC453CDC45F23045C5F695
:101970000205AC4549D045F24445C5F60205AC45E3
:1019800043D045F258453BE05825C4F20205AC452A
:101990003BD07025C4F20205AC4536D08825C4F290
:1019A00002052FE040F2B845C4F20205AC452CD048
:1019B00045F20845C5F60205AC4526D045F21C4562
:1019C0001EE040F22845C4F20205AC451DD040F2AD
:1019D0004045C4F20205AC4517D040F25845C4F268
:1019E00002050FE045F26C45C5F60205AC450CD08A
:1019F00045F29445C5F60205AC4506D045F2804552
:101A0000C5F60205AC4540F0D180456EC66E002E8D
:101A1000866E6E601CBFD0E91C566E60A44515DC56
:101A20009F24C4F20204A4452BDC5724C4F2020410
:101A3000A4454EDC1024C4F20204A44576D0282428
:101A4000C4F20204A44571D040246BE045F22F4457
:101A5000C5F60204A44527DC40F2B744C4F20204F0
:101A6000A44542DC40F27044C4F20204A4455DD0B7
:101A700040F28844C4F20204A44557D040F2A04486
:101A800050E040F22744C4F20204A4453CDCA02408
:101A9000C4F20204A44549D0B824C4F20204A44507
:101AA00044D040F210443DE045F26B44C5F60204D8
:101AB000A44553DC45F23044C5F60204A4455FD08A
:101AC00045F24444C5F60204A44559D045F25844B1
:101AD00052E05824C4F20204A44527D07024C4F272
:101AE0000204A44522D088241CE040F2B844C4F289
:101AF0000204A4451AD045F20844C5F60204A445E0
:101B00003ED045F21C4437E040F22844C4F20204BF
:101B1000A4450BD040F24044C4F20204A44505D0D1
:101B200040F25844C4F20204A4453FD18468C06D19
:101B300000F01F003F2505FA00F0CEF80800DCF8A1
:101B40000000402C20F48020CCF80000CCF80430B9
:101B500023D0CCF80810CCF80C2070BD45F26C44B2
:101B6000C5F60204A4450BD045F28044C5F6020434
:101B7000A44505D045F29444C5F60204A44515D108
:101B8000C46D806804F01F040125402805FA04F4A0
:101B9000CEF80440CCF8043004D1CCF80820CCF8BE
:101BA0000C1070BDCCF80810CCF80C2070BD0000F3
:101BB000704700000000000072B600BFFEE70000A2
:101BC00044F60400C5F60200816841F0020181601C
:101BD0000168890409D4016889045CBF01685FEA6F
:101BE000814102D401688904F2D5704700000000E9
:101BF000B0B582B090F85020012A01D102213BE01B
:101C000042F2083200230193C4F202020093A2F5CB
:101C100042740368A34227D14FF6006C4FF600557B
:101C2000CFF6FF7CCFF6FF7552F80C405359234393
:101C30005B0719D4D1F800E01368BEF1000F23F45C
:101C400040441CD04B6823431360535952F80C5046
:101C50002B43DB071FD1136840F61F758968AB4320
:101C600041EA0E01194315E0416D41F02001416543
:101C70000121002280F85020084602B0B0BD146057
:101C8000515952F80C301943C90704D1116840F674
:101C90001F73994311600021EBE700000000000072
:101CA000F0B581B00022009290F85020012A01D1B5
:101CB00002219AE10768012380F85030BB685B0776
:101CC00000F18B810B684FF6FF7CB3F1FF3FC0F250
:101CD0000F0C11DD93FAA3F413EA0C0FB4FA84F499
:101CE0004FF0010208BF9C0E9B0E04F01F04A2409F
:101CF000FC692243FA6100E09B0E4A681F2603F04C
:101D00001F03C2F3012402F01F02964007EB840474
:101D100003FA02F2256B25EA060632432263BA680B
:101D2000BB68DB0843EA9202D20740F085800A686C
:101D300007258E68C2F34063C2F3045207EB8303A6
:101D400095405C6906FA02F224EA05052A435A61C5
:101D500041F20002C5F60042126802F07042B2F190
:101D6000805F06D1D1F814E0FA680E2303EA52042A
:101D70000CE0FA68D1F814E0FB68D2064FEA53038E
:101D800002D403F00E0401E003F008040B69042BF5
:101D900028D13A6E0B6802F0F842B2EB836F4FEA3B
:101DA000836303D13A6E22F000423A667A6E02F003
:101DB000F8429A4203D17A6E22F000427A66BA6EF5
:101DC00002F0F8429A4203D1BA6E22F00042BA669B
:101DD000FA6E02F0F8429A422ED1FA6E22F00042D8
:101DE000FA6629E007F160020D680EFA04F605F0C4
:101DF000F84552F823402E4304F00044264342F8AD
:101E000023600B694E7E52F82350012E25F00045C9
:101E100008BF05F1004542F823500A7E0B693E6970
:101E2000013A03F01F03B2FA82F226F4F046520997
:101E3000D2029A4032433A61BA68D20778D1D1F8D7
:101E400000E00023C968D7F8C0200EEA0C04C4F2F1
:101E50005273A24301F018042CFA04F603F52D0581
:101E600006EA0E06A94246EA0201C7F8C0105CD194
:101E700042F20011C4F202018F4225D042F2000169
:101E8000C4F202018F423BD11F21C1F2F0418E45C5
:101E900020DD40F2FF71C2F630618E4540F3AE8026
:101EA00040F60001C2F630618E4500F0348141F207
:101EB0000001C3F260218E4500F01D810021C4F2B3
:101EC00021318E451DD02BE11F21C1F2F0418E45FD
:101ED00000F38E800721C0F690418E4500F39F806D
:101EE0000221C0F230418E4500F00A810421C0F683
:101EF00060018E4540F014814023C1F6201300E0BC
:101F0000002393FAA3F143F6C132B1FA81F1C0F292
:101F10000A0213424FF0010208BF990E01F01F019F
:101F200002FA01F1FA691143F961BEF1FF3F01DDE7
:101F3000002157E042F2000146F2083CC4F20201DF
:101F4000C5F6020C01F5807201F5427397426246B4
:101F500008BF1A468F4242F2001408BF1A4647F4DF
:101F60008073C4F20204A34213682ED18A68D1F8A8
:101F700008111143C90730D1002103F0E074CCF6F9
:101F800084318E4508BF13F4000157D00021CCF2F4
:101F900052718E4508BF13F0807100F09080ACF54F
:101FA00042718F424FF000011CD10022CCF6B87272
:101FB000964508BF13F4800214D1DCF8001021F01C
:101FC000E071214341F4800185E04FF60051CFF6E6
:101FD000FF715CF80110C907CED0416D41F02001BE
:101FE00041650121002280F85020084601B0F0BD73
:101FF00040F2FF71C2F630618E4570DC2021C1F2E3
:10200000F0418E457ED040F20041C2F600218E455F
:1020100040F0868040F60003C2F6306371E7082185
:10202000C0F690418E4572D01021C1F2C0018E459C
:1020300076D140F20013C2F2801362E7ACF5427130
:102040008F427FF475AFDCF8001042F6635221F046
:10205000E071C0F23E52214341F40001CCF800107F
:1020600042F20401C2F2004109688909A1FB02128F
:102070009109022202EB41010091009900293FF4ED
:1020800057AF009901390091009900293FF450AFF2
:10209000009901390091009900293FF449AF009956
:1020A00001390091009900293FF442AF00990139AC
:1020B0000091009900294FF00001E2D192E7ACF5C0
:1020C00042718F427FF434AFDCF8001021F0E071F0
:1020D000214341F08071CCF80010002182E740F6E6
:1020E0000001C2F630618E4515D041F20001C3F205
:1020F00060218E4514D142F20003C3F2906300E7E1
:102100000123FEE640F20023C2F2B053F9E6802339
:10211000C1F65053F5E641F20003C3F26023F0E646
:1021200000210023C4F684318E4504BF0023C4F689
:10213000B873E6E60000000042F200010068C4F255
:102140000201884218BF704742F221000121C2F209
:102150000040017070470000704700000000000060
:102160007047000000000000B0B582B004460028AF
:102170004FF00000019057D0606D30B9204600F05C
:102180001FF90020A06584F850002068816889004C
:1021900006D54FF6C0728168C5F6FF7211408160A6
:1021A0008168C90033D44FF6C0718268C5F6FF71EB
:1021B00001F18051114042F6635201F1805181607A
:1021C00042F20401C0F23E52C2F20041096889099C
:1021D000A1FB0212012101EB921100BF01910199B3
:1021E000A9B1019901390191019900291FBF0199F4
:1021F0000139019101991FBF00290199013901910C
:102200001CBF0199002902D001990139E6E78168D4
:10221000C9000BD4616D012541F010016165A16D0C
:1022200041F00101A16502E00125BCE000258168C3
:10223000626D02F01002C1F380018918616D03D054
:1022400041F010000125ADE021F48171023161659A
:102250008168C90728D142F2001240F48071C4F2AB
:102260000202914242F20001C4F2020140F09E805B
:102270008A68D1F808311A43D20715D101F5807266
:1022800001F5427346F2080C9042C5F6020C1A465C
:1022900018BF0CF54072884208BF1A466068116882
:1022A00021F47C110843106001F08AFF617D41F246
:1022B0000402A36890424FEA4131226B0AD3102BEB
:1022C00008D1207F114341EA004141F01C0101285F
:1022D00007D00DE0207F1143194341EA0041012856
:1022E00006D1206A0022CFF6FE7202EB4040014385
:1022F000606A28B100F47870A26A084340EA0201DB
:1023000020684CF20303CFF6F073C2681A40114301
:10231000C16081688268D20842EA9101C90732D15E
:10232000217D44F2030CE26AC36842EA813123EA68
:102330000C021143C16094F838100129016916D1CB
:102340004FF61E02CFF6004201EA020C0021D4E94A
:102350000F23CFF6FF7101EB02414CEA0302636CDD
:102360001143A26C1943114341F0010101E021F036
:10237000010101610169626B21F07041114301614A
:102380002046FEF779FF2068E1680129026B22F000
:102390000F0102D1A269013A114301630121606D6D
:1023A00061F301006065284602B0B0BD46F2080244
:1023B000C5F602021268D2073FF460AF74E700006E
:1023C00070B5B8B0044602A828309821002533958E
:1023D000CDE93655CDE93455FEF7E0FB42F2000178
:1023E0002068C4F20201884201D038B070BD4FF4B9
:1023F00000200290022004900C210395CDE90510E5
:10240000CDE90700C020099020202B95CDE90A05D1
:1024100002A802F0C5FB08B1FFF7CEFB44F2D8409A
:102420000026C5F60200016841F020010160016844
:1024300001F0200101910199816841F00101816061
:10244000806833A900F0010001900198402033908A
:10245000032034900020C5F60200359601F0A8FD57
:1024600044F2C0051020C2F20145C4F20200286007
:102470000920C5E901064FF4806028614FF400602F
:1024800068614FF40050EE60C5E906062846C5E9CC
:10249000086601F099F808B1FFF78EFBE564AC63BC
:1024A00038B070BD000000002DE9F04381B042F269
:1024B000000746F20836C4F202070446036807F52F
:1024C000807507F54270C5F60206AB4208BF0646A6
:1024D000BB4208BF064630689B685B0704D4894648
:1024E00094F85010012903D1022001B0BDE8F08317
:1024F00000F01F060120092E84F850005CD8B0407F
:1025000040F22121084257D020469046FFF740F87C
:1025100028B1002184F8501001B0BDE8F083216893
:10252000606D40F60172A94220EA020018BF0F4612
:10253000002E00F58070606518BF8F4203D1606D7A
:1025400020F480106065606D41F28143C0044FF05B
:10255000000044BFA06D20F0060041F20957C0F60C
:102560000003A065C0F60007E06C0022C0E90F3749
:1025700041F2F143E76AC0F60003C3641C230B6019
:1025800084F8502043464A6842F010024A60CA6804
:1025900022F003023A43CA6040314A4601F030FB60
:1025A00021684FF6C073C7F6FF738A681A40043279
:1025B0008A6001B0BDE8F083002084F8500001205B
:1025C00001B0BDE8F0830000B0B5044690F85000BB
:1025D000012801D10220B0BD012084F85000032160
:1025E0002046FEF7D5FE054658BB2168E06CCA6858
:1025F00022F00302CA6090F83520022A11D100F0BF
:1026000027F868B105462068616D41F040016165B9
:10261000416821F0100141602046FEF779FF10E08B
:102620002168486820F0100048602046FEF770FFDF
:10263000054630B9606D41F2011188430025013033
:102640006065002084F850002846B0BD00000000FE
:102650002DE9F041044601F0BBFD24B3054694F892
:102660003500022822D1276840F20F46C4F2020644
:1026700040F26F483868B742C4F2020820F0010007
:10268000386017DC6F20C4F20200874223DC3F2051
:10269000C4F20200874239DC1020C4F202008742F3
:1026A00058D0282051E00120BDE8F08180206065ED
:1026B000012040E247451ADC40F23F40C4F20200EC
:1026C00087422ADC40F21040C4F20200874241D027
:1026D00040F2284039E09F20C4F20200874225DC06
:1026E0007020C4F20200874234D088202DE040F2EE
:1026F0009F40C4F2020087421FDC40F27040C4F2E7
:102700000200874226D040F288401EE04020C4F2FA
:10271000020087421ED0582017E040F24040C4F229
:102720000200874216D040F258400EE0A020C4F2CA
:10273000020087420ED0B82007E040F2B840C4F251
:102740000200874206D040F2A040C4F20200874255
:1027500040F080813946386820F01E0041F8140BA3
:102760006FF080000A68474500EA0200086019DC43
:102770009F20C4F20200874231DC5720C4F20200DD
:10278000874256DC1020C4F20200874200F091809C
:102790002820C4F20200874200F08B804020C4F25F
:1027A000020084E045F22F40C5F6020087422BDC90
:1027B00040F2B740C4F20200874248DC40F2704069
:1027C000C4F20200874274D040F28840C4F2020092
:1027D00087426ED040F2A040C4F2020067E040F2AF
:1027E0002740C4F20200874240DCA020C4F202006D
:1027F00087425ED0B820C4F20200874259D040F22E
:102800001040C4F2020052E045F26B40C5F60200EF
:1028100087423CDC45F23040C5F60200874248D092
:1028200045F24440C5F60200874242D045F2584086
:102830003BE05820C4F2020087423AD07020C4F234
:102840000200874235D08820C4F202002FE040F217
:10285000B840C4F2020087422BD045F20840C5F6CA
:102860000200874225D045F21C401EE040F228407D
:10287000C4F2020087421CD040F24040C4F2020081
:10288000874216D040F25840C4F202000FE045F2F1
:102890006C40C5F6020087420BD045F29440C5F665
:1028A0000200874205D045F28040C5F6020087420B
:1028B00004D1206E016821F4807101603868C0077E
:1028C0000BD001F085FC401B0628F7D32020606563
:1028D000032084F8350001202DE12068B04210DC8F
:1028E0006F21C4F2020188421CDC3F21C4F20201C4
:1028F000884232DC1021C4F20201884250D02821E3
:102900004AE040451ADC40F23F41C4F202018842ED
:102910002ADC40F21041C4F20201884240D040F269
:10292000284139E09F21C4F20201884225DC702150
:10293000C4F20201884233D088212DE040F29F4149
:10294000C4F2020188421FDC40F27041C4F202016D
:10295000884225D040F288411EE04021C4F20201A5
:1029600088421DD0582117E040F24041C4F20201D4
:10297000884215D040F258410EE0A021C4F2020175
:1029800088420DD0B82107E040F2B841C4F20201FC
:10299000884205D040F2A041C4F2020188425DD1D4
:1029A000D4E9161202F01F023F2303FA02F28A60F2
:1029B00040455DDC9F21C4F20201884214DC5721AE
:1029C000C4F20201884226DC1021C4F202018842CE
:1029D00000F0A1802821C4F20201884200F09B800F
:1029E0004021C4F2020194E040F22741C4F2020106
:1029F00088421EDCA021C4F20201884200F08B80D4
:102A0000B821C4F20201884200F0858040F21041F2
:102A1000C4F202017DE05821C4F2020188427AD05A
:102A20007021C4F20201884275D08821C4F20201EB
:102A30006FE040F22841C4F2020188426BD040F2BC
:102A40004041C4F20201884265D040F25841C4F2CC
:102A500002015EE06FF00E00394683E6D4E91612FB
:102A600002F01F02012303FA02F24A604045A1DD91
:102A700045F22F41C5F60201884216DC40F2B7410B
:102A8000C4F20201884225DC40F27041C4F2020126
:102A9000884240D040F28841C4F2020188423AD0D4
:102AA00040F2A041C4F2020133E045F26B41C5F6A9
:102AB000020188421DDC45F23041C5F60201884220
:102AC00029D045F24441C5F60201884223D045F29F
:102AD00058411CE040F2B841C4F2020188421AD0C9
:102AE00045F20841C5F60201884214D045F21C4166
:102AF0000DE045F26C41C5F6020188420BD045F26B
:102B00009441C5F60201884205D045F28041C5F6E0
:102B1000020188420BD1616EA26EE06E4A6030B154
:102B2000016821F480710160D4E91C014160012039
:102B300084F835000020002184F83410BDE8F081CD
:102B400080B5D8B190F83510022919D140F20F4262
:102B50000168C4F20202914216DC6F23C4F2020340
:102B6000994226DC3F23C4F2020399423CDC102345
:102B7000C4F2020399425AD0282354E0012080BDB8
:102B800080214165012080BD40F26F43C4F2020301
:102B900099421ADC40F23F43C4F2020399422ADC14
:102BA00040F21043C4F20203994240D040F228435D
:102BB00039E09F23C4F20203994225DC7023C4F25A
:102BC0000203994233D088232DE040F29F43C4F2A0
:102BD000020399421FDC40F27043C4F2020399429F
:102BE00025D040F288431EE04023C4F202039942FC
:102BF0001DD0582317E040F24043C4F2020399422B
:102C000015D040F258430EE0A023C4F202039942CB
:102C10000DD0B82307E040F2B843C4F20203994252
:102C200005D040F2A043C4F2020399426ED1914212
:102C30004FF0040280F8352010DC6F20C4F202004F
:102C4000814220DC3F20C4F20200814236DC1020A9
:102C5000C4F20200814253D028204EE040F26F407F
:102C6000C4F2020081421ADC40F23F40C4F202008A
:102C700081422ADC40F21040C4F2020081423FD07F
:102C800040F2284039E09F20C4F20200814225DC56
:102C90007020C4F20200814232D088202DE040F240
:102CA0009F40C4F2020081421FDC40F27040C4F237
:102CB0000200814224D040F288401EE04020C4F24D
:102CC000020081421CD0582017E040F24040C4F27C
:102CD0000200814214D040F258400EE0A020C4F21D
:102CE000020081420CD0B82007E040F2B840C4F2A4
:102CF0000200814204D040F2A040C4F202008142AE
:102D0000086820F001000860002080BD0A6822F0F9
:102D100001020A6045F25742C5F6020291420A6872
:102D200022F00E020A600EDC45F22F42C5F60202C6
:102D3000914217DC45F20842C5F60202914226D0C4
:102D400045F21C421FE045F27F42C5F60202914265
:102D500011DC45F25842C5F60202914217D045F205
:102D60006C4210E045F23042C5F6020291420ED0AC
:102D700045F2444207E045F29442C5F60202914210
:102D800005D045F28042C5F6020291421AD1D0E93F
:102D9000181CD0E916E30A6822F480720A6003F076
:102DA0001F01012202FA01F1CEF80410816ECCF865
:102DB0000410C16E31B10A6822F480720A60D0E951
:102DC0001C124A60012180F83510026D002180F844
:102DD00034100AB190470021084680BD0000000071
:102DE0002DE9F04782B00021019142F2040104462E
:102DF000C2F2004148F2B512C1F64E32A56D096823
:102E000040F26F490068C4F20209A1FB021848456C
:102E10002E68296815DC9F21C4F2020188422BDC50
:102E20005721C4F2020188424FDC1021C4F2020192
:102E3000884278D02821C4F20201884273D0402110
:102E40006CE045F22F42C5F60202904227DC40F2C8
:102E5000B742C4F20202904243DC40F27041C4F235
:102E6000020188425FD040F28841C4F202018842E8
:102E700059D040F2A04151E040F22741C4F2020192
:102E800088423DDCA021C4F2020188424BD0B82127
:102E9000C4F20201884246D040F210413EE045F2C1
:102EA0006B42C5F60202904273DC45F23042C5F631
:102EB0000202904200F0808045F24442C5F60202D0
:102EC000904279D045F2584271E05821C4F2020193
:102ED000884228D07021C4F20201884223D0882180
:102EE0001CE040F2B842C4F2020290421BD045F20C
:102EF0000842C5F6020290425ED045F21C4256E0FE
:102F000040F22841C4F2020188420CD040F2404114
:102F1000C4F20201884206D040F25841C4F20201D4
:102F2000884240F04183E16D082201F01F0140F228
:102F30000F4A8A40C4F2020A324200F0E080504553
:102F40004FF0040312DC6F27C4F20207B84268DCBA
:102F50003F27C4F20207B84200F3A1801027C4F251
:102F60000207B84200F0BF802827B7E0484564DC7C
:102F700040F23F47C4F20207B84200F3978040F2A4
:102F80001047C4F20207B84200F0AD8040F2284773
:102F9000A4E045F26C42C5F6020290420CD045F224
:102FA0008042C5F60202904206D045F29442C5F630
:102FB0000202904240F0F8820268E36D570703F086
:102FC0001F0312D504279F4017EA01060DD01104F4
:102FD0006F6041D4910603D4016821F004010160BF
:102FE000216C002940F0D282DEE297073CD502270F
:102FF0009F4017EA010637D011046F6000F1CB82C1
:10300000910609D4016821F00A010160012084F8C9
:103010003500002084F83400E16B002940F0B682CE
:10302000C2E29F27C4F20207B84248DC7027C4F20C
:103030000207B84257D0882750E040F29F47C4F2B9
:103040000207B84242DC40F27047C4F20207B842BD
:1030500049D040F2884741E0D00300F1A282216CC0
:10306000002940F093829FE2120740F19D820822DE
:103070009A40114000F09882016821F00E01016031
:10308000012000FA03F16960606584F835000020D2
:10309000E16C84F83400002940F0788284E2402713
:1030A000C4F20207B8421ED0582717E040F240474A
:1030B000C4F20207B84216D040F258470EE0A027EB
:1030C000C4F20207B8420ED0B82707E040F2A0478A
:1030D000C4F20207B84206D040F2B847C4F2020771
:1030E000B84218BF082307681F4208D0036823F0BE
:1030F00004030360AA60626D42F00102626501226E
:103100008A4032426AD0504510DC6F23C4F2020379
:1031100098421CDC3F23C4F20203984232DC1023A5
:10312000C4F20203984251D028234AE048451ADCF1
:1031300040F23F43C4F2020398422ADC40F21043BB
:10314000C4F20203984241D040F2284339E09F2361
:10315000C4F20203984225DC7023C4F202039842B1
:1031600034D088232DE040F29F43C4F202039842FA
:103170001FDC40F27043C4F20203984226D040F2B2
:1031800088431EE04023C4F2020398421ED0582315
:1031900017E040F24043C4F20203984216D040F2D6
:1031A00058430EE0A023C4F2020398420ED0B82385
:1031B00007E040F2A043C4F20203984206D040F276
:1031C000B843C4F20203984240F0F98143691B06F8
:1031D00004D5AA60626D42F00202626504228A4050
:1031E00032426AD0504510DC6F23C4F20203984289
:1031F0001CDC3F23C4F20203984232DC1023C4F2E9
:103200000203984251D028234AE048451ADC40F294
:103210003F43C4F2020398422ADC40F21043C4F256
:103220000203984241D040F2284339E09F23C4F280
:103230000203984225DC7023C4F20203984234D082
:1032400088232DE040F29F43C4F2020398421FDC22
:1032500040F27043C4F20203984226D040F2884301
:103260001EE04023C4F2020398421ED0582317E008
:1032700040F24043C4F20203984216D040F2584351
:103280000EE0A023C4F2020398420ED0B82307E058
:1032900040F2A043C4F20203984206D040F2B84381
:1032A000C4F20203984240F08C8103689B0704D566
:1032B000AA60626D42F004026265102202FA01F116
:1032C000314279D050454FF0080210DC6F23C4F230
:1032D000020398421CDC3F23C4F20203984232DC12
:1032E0001023C4F20203984251D028234AE04845F3
:1032F0001ADC40F23F43C4F2020398422ADC40F257
:103300001043C4F20203984241D040F2284339E00E
:103310009F23C4F20203984225DC7023C4F2020307
:10332000984234D088232DE040F29F43C4F2020338
:1033300098421FDC40F27043C4F20203984226D048
:1033400040F288431EE04023C4F2020398421ED09C
:10335000582317E040F24043C4F20203984216D0CB
:1033600040F258430EE0A023C4F2020398420ED06C
:10337000B82307E040F2A043C4F20203984206D00B
:1033800040F2B843C4F20203984218BF0422036813
:10339000134211D0A96001684903016806D4C90528
:1033A00006D4016821F00801016001E008034DD452
:1033B000216C09B120468847E06D00F01F012020F4
:1033C00000FA01F2324200F0A48020681023504538
:1033D00010DC6F27C4F20207B8421CDC3F27C4F29E
:1033E0000207B84236DC1027C4F20207B84255D0B3
:1033F00028274EE048451ADC40F23F47C4F2020756
:10340000B8422EDC40F21047C4F20207B84245D061
:1034100040F228473DE09F27C4F20207B84229DC6A
:103420007027C4F20207B84238D0882731E040F252
:103430009F47C4F20207B84223DC40F27047C4F24F
:103440000207B8422AD040F2884722E0A16C002946
:10345000B0D1B1E74027C4F20207B8421ED05827C6
:1034600017E040F24047C4F20207B84216D040F2DB
:1034700058470EE0A027C4F20207B8420ED0B82782
:1034800007E040F2A047C4F20207B84206D040F27B
:10349000B847C4F20207B84218BF022307681F42A8
:1034A00037D0AA6094F83520042A02681BD122F094
:1034B00016020260426922F080024261226C0AB95F
:1034C000A26C1AB1026822F0080202603F20884014
:1034D000A860012084F83500216D0020002984F8BF
:1034E000340053D160E0510301680CD4C9050CD4F9
:1034F000016821F010010160012084F835000020EE
:1035000084F8340001E0080351D4E16B09B120468E
:103510008847606D002847D0606DC00734D0042014
:1035200084F8350020684FEA9821026822F00102F1
:103530000260019A013201928A421AD80268D207C7
:1035400017D0019A013201928A4212D80268D2073A
:103550000FD0019A013201928A420AD80268D2073A
:1035600007D0019A013201928A4202D80268D2073A
:10357000DFD10068C0074FF0030008BF012084F8C6
:103580003500002084F83400E16C69B1204688479A
:1035900002B0BDE8F087D0030DD4616C0029F5D1ED
:1035A00002E0A16C0029F1D102B0BDE8F087616CA6
:1035B0000029ACD1ADE7E16B0029E7D1F4E702685F
:1035C0000CE6026879E60000F0B581B0044600F030
:1035D000FFFD002C00F00C8140F26F47054620688B
:1035E000C4F20207B84215DC9F21C4F202018842EE
:1035F0002BDC5721C4F20201884251DC1021C4F2B5
:10360000020188427BD02821C4F20201884276D090
:1036100040216FE045F22F41C5F60201884227DCC8
:1036200040F2B741C4F20201884245DC40F27041E9
:10363000C4F20201884262D040F28841C4F2020121
:1036400088425CD040F2A04154E040F22741C4F2ED
:103650000201884240DCA021C4F2020188424ED01F
:10366000B821C4F20201884249D040F2104141E041
:1036700045F26B41C5F60201884200F3BC8045F279
:103680003041C5F60201884200F0C88045F244414D
:10369000C5F60201884200F0C18045F25841B8E009
:1036A0005821C4F20201884229D07021C4F20201DB
:1036B000884224D088211DE040F2B841C4F20201C2
:1036C00088421CD045F20841C5F60201884200F04C
:1036D000A58045F21C419CE040F22841C4F2020161
:1036E00088420CD040F24041C4F20201884206D028
:1036F00040F25841C4F20201884240F07D8202212A
:1037000084F83510002184F83410016821F001019B
:10371000016000BF0168C90707D000F059FD401BD8
:10372000052800F260802068F4E748F23F0204F1C7
:1037300008060168CFF6106211406CCE1143A269F1
:103740001943E3692943256A0E43616A1643042934
:1037500043EA060343EA050303D1D4E90B65334387
:103760002B4341F20006C5F600463668B6F1005F0D
:103770001DD36668A6F12905292D18D8DFE805F0C4
:1037800015151515151517171717171717171717D5
:1037900017171717171715151515171717171515C5
:1037A0001717171717171515151543F4801303600E
:1037B0000429436923F0070341EA030140F08B80A9
:1037C000D4E90A53002B41EA050100F08480B2F5E8
:1037D000005F67D0002A71D1022D72D0012D67D011
:1037E000002D6ED077E020206065032084F835003E
:1037F000012001B0F0BD45F26C41C5F602018842DE
:103800000CD045F28041C5F60201884206D045F24F
:103810009441C5F60201884240F0EE81022184F80D
:103820003510002184F834100168A268A2F18003E9
:10383000E668B3FA83F3402A4FEA53134FEA83331F
:103840006FF3101108BF1023226941EAD60166699F
:103850001943A36941EAD201E26941EAD60141EA8A
:10386000D3014CF6CD4341EAD2014AF6F832CAF20E
:10387000FD72266A0244CCF6CC43A2FB032341EA44
:10388000161101606FF0030000EA9300E065204626
:10389000FDF782FFE16D012201F01F0102FA01F143
:1038A000416023E0032D16D8DFE805F00E0B0E0271
:1038B000A3F1C072B2FA82F2520904E0032D03D3DD
:1038C00009D1C3F3006232B140206065012084F861
:1038D000350001B0F0BD41612046FDF75DFFE16DAF
:1038E0003F2201F01F0102FA01F181602068B84215
:1038F00019DC9F21C4F20201884231DC5721C4F255
:103900000201884256DC1021C4F20201884200F014
:1039100092802821C4F20201884200F08C8040216C
:10392000C4F2020184E045F22F41C5F6020188424B
:103930002BDC40F2B741C4F20201884248DC40F27D
:103940007041C4F20201884275D040F28841C4F24D
:10395000020188426FD040F2A041C4F2020167E048
:1039600040F22741C4F20201884240DCA021C4F2A7
:10397000020188425FD0B821C4F2020188425AD0C5
:1039800040F21041C4F2020152E045F26B41C5F62B
:10399000020188423CDC45F23041C5F60201884212
:1039A00049D045F24441C5F60201884243D045F270
:1039B00058413BE05821C4F2020188423BD07021BB
:1039C000C4F20201884236D08821C4F202012FE0FD
:1039D00040F2B841C4F2020188422CD045F20841BD
:1039E000C5F60201884226D045F21C411EE040F295
:1039F0002841C4F2020188421DD040F24041C4F285
:103A00000201884217D040F25841C4F202010FE08F
:103A100045F26C41C5F6020188420CD045F2944152
:103A2000C5F60201884206D045F28041C5F6020182
:103A3000884240F0DA8045F2574C45F6FC0EC5F658
:103A4000020CC5F6020E60450EDC45F22F41C5F6AC
:103A50000201884217DC45F20841C5F6020188429E
:103A600026D045F21C411FE045F27F41C5F6020118
:103A7000884211DC45F25841C5F60201884217D050
:103A800045F26C4110E045F23041C5F60201884232
:103A90000ED045F2444107E045F29441C5F60201DB
:103AA000884205D045F28041C5F60201884254D1D2
:103AB0006FF007014CF6CD4251FA80F1CCF6CC42C2
:103AC000A1FB0212AEF1FC05AEF17C061309A2685F
:103AD00003F01F01802A4FF0010205EB83052566E4
:103AE00002FA01F26666A26602D10021616000E07E
:103AF0006168CBB2013907292B60726015D85E1E50
:103B0000082E17D260450EF1440217DC45F22F4112
:103B1000C5F60201884241DC45F20841C5F60201C2
:103B2000884258D045F21C4149E000206067C4E952
:103B30001B005AE0D4E91B02616F53E045F27F415C
:103B4000C5F60201884232DC45F25841C5F6020151
:103B5000884240D045F26C4131E06FF00F014AF6E7
:103B6000AB2251FA80F1CAF6AA22A1FB021240F25E
:103B70000F43C4F2020308251109984203F1AA0673
:103B80000B4688BF05EB121340F60005B042C4F2A5
:103B9000020505F1800628BF0B4698E745F2304143
:103BA000C5F60201884216D045F2444107E045F2CD
:103BB0008041C5F6020188420DD045F29441C5F618
:103BC0000201884207D040F60000C4F2020000F172
:103BD000FC0E00F5A07201210EEB8300B140E066FF
:103BE0002267616700230360516000206065012146
:103BF00084F8351001B0F0BD4020F5E5000000006C
:103C0000B0B5E0B3054690F83400012801D1022098
:103C1000B0BD012085F8340095F83500012828D181
:103C2000022085F83500002068652868046824F0C3
:103C3000010404602846FDF73BFE40F20F4228686D
:103C4000C4F2020240F26F419042C4F2020118DC59
:103C50006F23C4F20203984224DC3F23C4F2020320
:103C600098423ADC1023C4F20203984259D0282328
:103C700052E04FF400606865002085F834000120B0
:103C8000B0BD88421ADC40F23F43C4F202039842BE
:103C90002ADC40F21043C4F20203984241D040F2C1
:103CA000284339E09F23C4F20203984225DC7023A5
:103CB000C4F20203984234D088232DE040F29F439F
:103CC000C4F2020398421FDC40F27043C4F20203C4
:103CD000984226D040F288431EE04023C4F20203FB
:103CE00098421ED0582317E040F24043C4F202032A
:103CF000984216D040F258430EE0A023C4F20203CB
:103D000098420ED0B82307E040F2B843C4F2020351
:103D1000984206D040F2A043C4F20203984240F019
:103D2000238103680B2464F3440303602B6C1BB1F1
:103D3000036843F008030360884219DC9F23C4F240
:103D40000203984231DC5723C4F20203984256DC46
:103D50001023C4F20203984200F091802823C4F299
:103D60000203984200F08B804023C4F2020384E0F7
:103D700045F22F43C5F6020398422BDC40F2B743CD
:103D8000C4F20203984248DC40F27043C4F20203DA
:103D9000984274D040F28843C4F2020398426ED035
:103DA00040F2A043C4F2020367E040F22743C4F2AA
:103DB0000203984240DCA023C4F2020398425ED082
:103DC000B823C4F20203984259D040F21043C4F21F
:103DD000020352E045F26B43C5F6020398423CDC15
:103DE00045F23043C5F60203984248D045F24443B9
:103DF000C5F60203984242D045F258433BE05823AF
:103E0000C4F2020398423AD07023C4F202039842EB
:103E100035D08823C4F202032FE040F2B843C4F245
:103E2000020398422BD045F20843C5F6020398429C
:103E300025D045F21C431EE040F22843C4F20203A1
:103E400098421CD040F24043C4F20203984216D07C
:103E500040F25843C4F202030FE045F26C43C5F64A
:103E6000020398420BD045F29443C5F602039842F0
:103E700005D045F28043C5F6020398426ED12B6E01
:103E80001C68E40303D51C6844F480741C60EB6E6A
:103E90001BB11D6845F480751D60904210DC6F21D8
:103EA000C4F2020188421CDC3F21C4F202018842B4
:103EB00032DC1021C4F2020188424FD028214AE0AE
:103EC00088421ADC40F23F41C4F2020188422ADCF7
:103ED00040F21041C4F2020188423FD040F2284132
:103EE00039E09F21C4F20201884225DC7021C4F22E
:103EF0000201884232D088212DE040F29F41C4F275
:103F0000020188421FDC40F27041C4F20201884283
:103F100024D040F288411EE04021C4F202018842D0
:103F20001CD0582117E040F24041C4F202018842FF
:103F300014D040F258410EE0A021C4F202018842A0
:103F40000CD0B82107E040F2B841C4F20201884227
:103F500004D040F2A041C4F202018842016841F05D
:103F6000010101600020B0BD0368052464F3430330
:103F700003602B6C002B3FF4DFAE036843F00403B7
:103F8000D9E6000000000000B0B5044600F020F9BA
:103F900042F218010546C2F20041621C097818BFBE
:103FA0000C4400BF00F014F9401BA042FAD3B0BD8E
:103FB0002DE9F04F84B00D68002D00F0EE8000F187
:103FC00026428E4602F1FF7342F20042C5F602021B
:103FD0000A2190424FEAB32208BF0921092A4FF073
:103FE000000438BF4FEAB321012600274FF0000834
:103FF0000091CDF808E00DE0DEF8005008F101086E
:1040000035FA06F107F1020706F1010604F104048E
:1040100000F0C380A6F1010A012101FA0AF315EAB2
:104020000309E9D0DEF804B00BF003056A1E012A8B
:104030001AD80321D0F808C001FA07FE02992CEA29
:104040000E0CDDF808E0CA68BA4042EA0C02826051
:10405000CBF30012D0F804C02CEA030302FA0AF2F0
:104060001A4342600CE000BF032D09D1DEF808209E
:10407000012A05D10325BC4605FA07F2D1432FE0FA
:104080000321C26801FA07F3022D6FEA030122EA55
:104090000302DEF808304FEA480C03FA07F342EA5D
:1040A0000302C2601CD101916FF0030101EA5A02C0
:1040B00004F01C0502440F2101FA05F3D2F820B0E8
:1040C00002992BEA0303D1F810E001990EFA05F5E5
:1040D000DDF808E02B431362DEF804B00BF00305B3
:1040E00002681BF4403F01EA020105FA0CF241EAC2
:1040F000020101603FF480AF44F2F44240F2084C08
:10410000C5F60202C5F6000C0F25116841F0020148
:104110001160116801F0020103912AF00301039A72
:1041200004F00C0251F80C309540AB43009D05FAA9
:1041300002F21A4341F80C204FF0B04CDCF80010AA
:10414000DEF8042041EA0903D50258BF21EA090339
:104150009502CCF8003040F2040CC5F6000CDCF8F7
:10416000001041EA090358BF21EA09039503CCF87E
:104170000030DCF8801041EA090358BF21EA090346
:10418000D203CCF88030DCF87C1041EA090358BF38
:1041900021EA0903CCF87C302EE704B0BDE8F08FAB
:1041A0000069084018BF01207047000000000000AF
:1041B000002A08BF09048161704700000000000068
:1041C00041F20000C5F600400068000C7047000096
:1041D00044F23C50C2F20140006870470000000009
:1041E00042F2180044F23C51C2F20040C2F20141D6
:1041F00000780A6810440860704700000000000062
:1042000080B5032000F0FCF801F062FB44F2184195
:104210004DF21043C5F60201C0F600030A680968B2
:1042200001F00F01C2F30322595C9A5C01F01F01F7
:1042300002F01F02D04042F20802C2F2004220FA0D
:1042400001F1116042F20401C2F2004108600F2046
:1042500000F00AF800281CBF012080BD00F080F8A3
:10426000002080BD00000000B0B542F21801C2F28B
:104270000041097801B3044642F20400C2F2004052
:104280004FF47A72B2FBF1F10068B0FBF1F001F08B
:1042900043FE0F2C4FF001050CD858B94FF0FF30FA
:1042A00000222146002500F07BF842F21C00C2F2F9
:1042B000004004602846B0BD0120B0BD00000000F1
:1042C00010B54EF6A05E4178CEF2000E90F800C018
:1042D0004EF8081CDEF8001021F00101CEF80010A5
:1042E00041684EF8041C017BC37A827A447B1B062A
:1042F00043EA0171837B41EAC241C27B41EA8441C6
:10430000447A41EA4341007A41EA024141EA042108
:1043100041EA400040EA0C00CEF8000010BD000069
:104320004EF62450CEF20000BFF35F8F016821F4F7
:10433000803101600021016770470000000000002B
:104340004EF6245140F00100CEF2000108670868E3
:1043500040F480300860BFF34F8FBFF36F8F70471A
:1043600081B044F2F440C5F60200016841F0020158
:104370000160006800F002000090009801B07047F2
:10438000002848BF704700F01F01012202FA01F126
:104390004EF200124009CEF2000242F8201070479F
:1043A00070B54EF60C5C4FF0FF36CEF2000C00F10B
:1043B0006045DCF80030C3F3022E8EF00703042BB7
:1043C00028BF0423BEF1030406FA03F321EA030124
:1043D00000F00F0338BF0024043BB0F1FF3F6344FB
:1043E00006FA04F003F10C0301FA04F1C8BF05F565
:1043F000644322EA000008430001187070BD000009
:104400004EF60C514FF6FF03CEF200010A681A4037
:1044100060F30A2242F0806040F0FD70086070474F
:10442000B0B544F60C05C5F60205296849072968A8
:1044300005D401F00701081A18BF0120B0BD21F012
:10444000070108432860FFF7C3FE044655F8080C2F
:10445000800407D4FFF7BCFE001BB0F57A7FF5D9C6
:104460000120B0BD0020B0BD80B501F0A9F944F233
:1044700020414DF21042C5F60201C0F60002096863
:10448000C1F30211515C01F01F01C84080BD000062
:1044900080B544F2304EC5F6020E5EF8083C5EF878
:1044A000081CC1F3051C5EF8041CBCF1000FDEF80B
:1044B000042016D0C2F3CC0201F00101514303F0F5
:1044C0000303022B00EE101AB8EE400A0ED0012BA7
:1044D0000FD01BB95EF8301C89060DD49FED341A3D
:1044E00018E000218160C0E9001180BD9FED2F1A06
:1044F00010E09FED2D1A0DE05EF8301C49F200022D
:10450000C0F2D032C1F3C10122FA01F101EE101A5A
:10451000B8EE411ADEF800109FED263A6FF35F21E6
:1045200002EE101ADEF80010C1F34621B8EE422A5E
:1045300000EE032A00EE10CAB7EE003AB8EE400AC9
:1045400081EE000A32EE031A02EE101AB8EE422A89
:1045500020EE010A32EE031A80EE011ABCEEC11AF7
:1045600080ED001ADEF80010C1F3064101EE101ACA
:10457000B8EE411A31EE031A80EE011ABCEEC11AF0
:1045800080ED011ADEF80010C1F3066101EE101A89
:10459000B8EE411A31EE031A80EE010ABCEEC00AF1
:1045A00010EE101A816080BD0024744A20BCBE4BFE
:1045B0000024744C0000003980B544F2384EC5F632
:1045C000020E5EF8103C5EF8101CC1F3053C5EF86C
:1045D0000C1CBCF1000FDEF8042014D0C1F3001154
:1045E000C2F3CC02514300EE101A03F0030102297A
:1045F000B8EE400A0CD071B95EF8381C89060DD4AB
:104600009FED341A18E000218160C0E9001180BDDF
:104610009FED2F1A10E09FED2D1A0DE05EF8381C6B
:1046200049F20002C0F2D032C1F3C10122FA01F115
:1046300001EE101AB8EE411ADEF800109FED263A8E
:104640006FF35F2102EE101ADEF80010C1F346216D
:10465000B8EE422A00EE032A00EE10CAB7EE003A86
:10466000B8EE400A81EE000A32EE031A02EE101A8A
:10467000B8EE422A20EE010A32EE031A80EE011A49
:10468000BCEEC11A80ED001ADEF80010C1F306413D
:1046900001EE101AB8EE411A31EE031A80EE011A3B
:1046A000BCEEC11A80ED011ADEF80010C1F30661FC
:1046B00001EE101AB8EE411A31EE031A80EE010A2B
:1046C000BCEEC00A10EE101A816080BD0024744A4E
:1046D00020BCBE4B0024744C0000003900000000D8
:1046E00080B544F2404EC5F6020E5EF8183C5EF806
:1046F000181CC1F3055C5EF8141CBCF1000FDEF859
:10470000042014D0C1F30021C2F3CC02514300EEC7
:10471000101A03F003010229B8EE400A0CD071B957
:104720005EF8401C89060DD49FED341A18E0002174
:104730008160C0E9001180BD9FED2F1A10E09FED50
:104740002D1A0DE05EF8401C49F20002C0F2D03292
:10475000C1F3C10122FA01F101EE101AB8EE411ABB
:10476000DEF800109FED263A6FF35F2102EE101A7B
:10477000DEF80010C1F34621B8EE422A00EE032A0B
:1047800000EE10CAB7EE003AB8EE400A81EE000A19
:1047900032EE031A02EE101AB8EE422A20EE010A97
:1047A00032EE031A80EE011ABCEEC11A80ED001A37
:1047B000DEF80010C1F3064101EE101AB8EE411AFE
:1047C00031EE031A80EE011ABCEEC11A80ED011A17
:1047D000DEF80010C1F3066101EE101AB8EE411ABE
:1047E00031EE031A80EE010ABCEEC00A10EE101A78
:1047F000816080BD0024744A20BCBE4B0024744CF0
:10480000000000390000000010B584B0024641F6F7
:10481000FF7300209B1A70EB010329DB40F2FF338A
:104820009B1A70EB01034FDA82F480630B4300F0B4
:10483000B98082F400630B4300F0C78082F4805299
:10484000114340F0588144F20041C5F60201086D61
:10485000C0F30232042A00F2778148F20000C0F26D
:10486000BB00DFE812F0C500E800F0004801F900E5
:1048700047F6FF739B1A70EB010343DA82F400439F
:104880000B4300F0BA8082F480330B4300F0C78002
:1048900082F40022114340F02E8144F20040C5F61C
:1048A0000200816D01F44031B1F5003F00F0078155
:1048B000B1F5803F00F00F81002940F0458100688C
:1048C000000140F14181BAE082F480730B4343D090
:1048D00082F40072114340F00E8144F20041C5F6AB
:1048E0000201086DC0F38212042A00F22D8148F201
:1048F0000000C0F2BB00DFE812F07B009E00A600C3
:10490000FE00AF0082F400530B4338D082F48042A3
:10491000114340F0F08044F20044C5F60204A06D5B
:10492000C0F30270052800F20F81DFE810F00600E6
:10493000E600EA00EE00F300F50000F041FF216A16
:104940004DF21042C0F60002C1F30211515C01F0B9
:104950001F01C84004B010BD44F20041C5F6020179
:10496000086D00F00702042A00F2EE8048F2000011
:10497000C0F2BB00DFE802F03C5F67BF700044F2AA
:104980000040C5F60200016DC1F30241052900F2A5
:10499000DB80DFE801F003C8CFD6DC4200F038FF4F
:1049A00004B010BD44F20041C5F60201886DC0F3A9
:1049B0004252042A00F2C88048F20000C0F2BB0054
:1049C000DFE802F0163941994A0044F20041C5F689
:1049D0000201886DC0F30262042A00F2B58048F239
:1049E0000000C0F2BB00DFE802F003262E8637008D
:1049F0000868800140F1A8805BE044F20040C5F601
:104A00000200016D01F04051B1F1005F6CD0B1F1D5
:104A1000805F4BD0002940F0978000687DE044F231
:104A20000040C5F60200C16C0068C90327D48001AC
:104A300040F18A803DE00868000140F1858001A8CE
:104A4000FFF7BAFD05E0086880007DD501A8FFF7F3
:104A500047FE019804B010BDC86C0B6810F04052BE
:104A6000086812D113F004030FD0C0F3C10049F25B
:104A70000001C0F2D03121FA00F004B010BD0001F5
:104A800062D501A8FFF798FD2BE0B2F1805F02D15B
:104A900010F480706BD1086810F400301CBF47F62A
:104AA0004000C0F27D10B2F1005F72E0006880014A
:104AB0004AD501A8FFF7ECFC029804B010BDC16C08
:104AC000036811F0405102684BD113F0040348D041
:104AD000C2F3C100CBE70068800035D501A8FFF71D
:104AE000FFFD039804B010BD006800012CD501A89B
:104AF000FFF762FD029804B010BD2068000123D5C5
:104B000014E0206880001FD517E0206840071BD5FF
:104B10002068AAE720681BE0206847F64001800370
:104B2000C0F27D1119E0006800010DD501A8FFF762
:104B300043FDC1E70068800006D501A8FFF7D0FD5E
:104B4000BAE70168490718D4002004B010BD006816
:104B500040F60011C005C0F23D0101EAE07004B06A
:104B600010BDB1F1805F0AD112F4807207D040F617
:104B70000010C0F23D0004B010BD006875E7006889
:104B800010F400301CBF47F64000C0F27D10B1F1B8
:104B9000005F18BF002004B010BD0000000000003E
:104BA0002DE9F0470446C07844F22C480007C5F6CA
:104BB000020826D5A06E4FEA305103290AD8DFE853
:104BC00001F0020B1119D8F8001041F40031C8F8B7
:104BD00000100FE0012615E004F10800022103F0A7
:104BE0005FFE04E004F12800022103F0E9FE06461E
:104BF00040B9A06ED8F8241021F440110843C8F839
:104C0000240000266078C00701D135462AE0A06D57
:104C100004280DD83546DFE800F0030E141A1A00F8
:104C2000D8F80000354640F40030C8F800000EE027
:104C30000125012717E004F10800002103F030FEF0
:104C400004E004F12800002103F0BAFE05462F46D7
:104C50004DB9D8F82400A16D20F0070000250843C5
:104C6000C8F824003746607880072AD5E06D4FEAFF
:104C7000B01004280BD8DFE800F0030D1319190059
:104C8000D8F8000040F40030C8F800000EE001251C
:104C9000012617E004F10800002103F001FE04E002
:104CA00004F12800002103F08BFE05462E464DB985
:104CB000D8F82400E16D20F4E07000250843C8F81E
:104CC00024003E46607840072DD5D4F8A8004FEA6E
:104CD000705004280BD8DFE800F0030E141A1A00F5
:104CE000D8F8000040F40030C8F800000FE00125BB
:104CF0004FF0010918E004F10800002103F0D0FD95
:104D000004E004F12800002103F05AFE0546A946FC
:104D100055B9D8F82C00D4F8A81020F4600000256C
:104D20000843C8F82C00B146607800072CD5D4F8A9
:104D3000AC004FEA306004280BD8DFE800F0030D28
:104D400013191900D8F8000040F40030C8F800002A
:104D50000EE00125012718E004F10800002103F00E
:104D60009FFD04E004F12800002103F029FE054620
:104D70002F4655B9D8F82C00D4F8AC1020F0E060DC
:104D800000250843C8F82C004F46E078800723D55B
:104D9000E06C4FEA301003280AD8DFE800F0120276
:104DA0000C12D8F8000040F40030C8F8000008E009
:104DB0000125012611E004F10800022103F070FD35
:104DC00005462E464DB9D8F82000E16C20F03000A1
:104DD00000250843C8F820003E466078C0062AD562
:104DE000206E4FEA303004280BD8DFE800F0030DC6
:104DF00013191900D8F8000040F40030C8F800007A
:104E00000EE00125012717E004F10800002103F05E
:104E100047FD04E004F12800002103F0D1FD054620
:104E20002F464DB9D8F82400216E20F4E04000252B
:104E30000843C8F8240037466078800623D5606EA2
:104E40004FEA304005280AD8DFE800F012030C12C0
:104E5000121204F10800012103F022FD07E00125F0
:104E6000012611E004F12800012103F0A9FD054607
:104E70002E464DB9D8F82400616E20F4E0200025BC
:104E80000843C8F824003E466078400625D5D4F88B
:104E9000B0004FEA307005280AD8DFE800F01203AE
:104EA0000C12121204F10800012103F0F9FC07E0D2
:104EB0000125012712E004F12800012103F080FD03
:104EC00005462F4655B9D8F82C00D4F8B01020F07C
:104ED000E04000250843C8F82C00374660780006FB
:104EE0001FD5206F90B1B0F1005F09D0B0F1805FA5
:104EF00029D1D8F8000040F40030C8F8000005E0DF
:104F000004F10800012103F0CBFC05462E464DB903
:104F1000D8F82400216F20F0405000250843C8F83D
:104F200024003E46E078C00725D0A06C03280DD8A9
:104F3000DFE800F016021016D8F8000040F4003048
:104F4000C8F800000CE001250126EBE701254FF031
:104F5000010911E004F10800022103F0A1FC05465B
:104F6000A9464DB9D8F82000A16C20F00300002517
:104F70000843C8F82000B146A078400601D44F4647
:104F800016E0D8F8D40340F48070C8F8D403FFF7D3
:104F90001FF90646D8F8D403C00507D4FFF718F95F
:104FA000801B6428F6D90325032701E02F4695B11D
:104FB0002078C00753D0E06F4FEAF00005283AD8B8
:104FC000DFE800F042033C42424204F108000121C4
:104FD00003F066FC37E0D8F84410D4F8B400414040
:104FE00011F4407F11D0D8F84410D8F8442042F48E
:104FF0008032C8F84420D8F8442021F4407122F4CB
:105000008032C8F84420C8F84410B0F5807F40F0E2
:105010008582FFF7DDF8064641F2883A032503272B
:10502000D8F84400800700F17782FFF7D1F8801BA1
:105030005045F5D9BCE70126012511E004F128000F
:10504000012103F0BDFC05462E464DB9D8F82800D5
:10505000E16F20F0380000250843C8F828003E46DC
:105060002078800721D5A06F05280AD8DFE800F056
:1050700012030C12121204F10800012103F010FCBB
:1050800007E00127012511E004F12800012103F0C8
:1050900097FC05462F464DB9D8F82800A16F20F09F
:1050A000070000250843C8F8280037462078400745
:1050B00023D5D4F8940005280AD8DFE800F01203BD
:1050C0000C12121204F10800012103F0E9FB07E0C1
:1050D0000126012512E004F12800012103F070FCF3
:1050E00005462E4655B9D8F82C00D4F8941020F077
:1050F000070000250843C8F82C003E4620788006AB
:1051000025D5D4F890004FEA307005280AD8DFE89A
:1051100000F012030C12121204F10800002103F037
:10512000BFFB07E00127012512E004F1280002215E
:1051300003F046FC05462F4655B9D8F82800D4F8A8
:10514000901020F0E04000250843C8F828003746BA
:105150002078400625D5D4F89C004FEAB0200528D9
:105160000AD8DFE800F012030C12121204F1080052
:10517000002103F095FB07E00126012512E004F170
:105180002800022103F01CFC05462E4655B9D8F82C
:105190002C00D4F89C1020F4E05000250843C8F8F7
:1051A0002C003E462078000625D5D4F8A0004FEA12
:1051B000703005280AD8DFE800F012030C12121232
:1051C00004F10800002103F06BFB07E00127012533
:1051D00012E004F12800022103F0F2FB05462F46FD
:1051E00055B9D8F82C00D4F8A01020F46040002560
:1051F0000843C8F82C0037462068010704D4C106CC
:105200001BD4000332D452E0D4F88410B1F5805F8F
:105210000AD104F12800022103F0D2FB002818BFB4
:1052200001272068D4F88410D8F8282022F44052AE
:105230001143C8F82810C106E3D5D4F89810B1F589
:10524000807F0AD104F12800022103F0B9FB002875
:1052500018BF01272068D4F89810D8F82C2022F421
:1052600040721143C8F82C10000320D5D4F8A400D4
:10527000B0F5003F0FD0B0F5803F06D070BB04F111
:105280000800002103F00CFB04E004F128000221D7
:1052900003F096FB05462E4655B9D8F82C00D4F8F5
:1052A000A41020F4403000250843C8F82C003E46E6
:1052B000A078400727D5D4F88800B0F5401F16D055
:1052C000B0F5001F0DD0B0F5801F40F01D81D8F85B
:1052D000000040F40030C8F8000008E00126012575
:1052E000E6E704F12800012103F06AFB05462F469A
:1052F00055B9D8F82800D4F8881020F440100025BB
:105300000843C8F828003746A078C00701D13E46B8
:105310001FE0206DB0F5803F07D0C0B9D8F800007D
:1053200040F40030C8F8000005E004F10800022154
:1053300003F0B6FA05462E465DB9D8F82000216D77
:1053400020F4803000250843C8F82000DFE701265C
:1053500001252168880003D460688A030CD450E0DA
:1053600004F12800022103F02BFB002818BF0126BE
:10537000D4E900108A0344D5D4F880206FF00103EB
:1053800003EB3223022B0BD34FEA322343B1012B21
:1053900040F0BD80D8F8003043F40033C8F8003046
:1053A00045B3CA0230D4CA0038D48A0241D44A0074
:1053B00049D4B1F1FF3F56DD09025ED4C10767D180
:1053C000810770D441077AD4010700F18480C106B7
:1053D00000F18D80800607D504F12800022103F03A
:1053E000EFFA002818BF0125002D18BF0125284617
:1053F000BDE8F087D8F8283023F440731A43C8F882
:1054000028203546CA02CED5D8F82420636F22F072
:1054100000421A43C8F82420CA00C6D558F81C2CEC
:10542000D4F8B83022F480421A4348F81C2C8A027F
:10543000BDD5D8F82420E36E22F080721A43C8F854
:1054400024204A00B5D558F81C2C22F4004248F814
:105450001C2CD4F8BC2058F81C3C1A4348F81C2CCF
:10546000B1F1FF3FA8DCD8F82020636D22F0405254
:105470001A43C8F820200902A0D5D8F82810D4F87B
:105480008C2021F440011143C8F82810C10797D09F
:1054900004F10800002103F003FA002818BF0546B4
:1054A000606881078ED504F10800012103F0F8F946
:1054B000002818BF0546606841077FF585AF04F1F5
:1054C0000800022103F0ECF9002818BF05466068C7
:1054D00001077FF57CAF04F12800002103F070FA8A
:1054E000002818BF05466068C1067FF573AF04F158
:1054F0002800012103F064FA002818BF05466068FF
:1055000080067FF571AF67E701270125FCE60125DD
:10551000CA027FF548AF77E7D4F8B4004FF6CF73EF
:1055200058F81C2CC0F2FF0300F4407122F47C52A6
:1055300003EA10136FF31F30B1F5407F08BF1A4321
:10554000002548F81C2CD8F844100843C8F844003B
:1055500015E50000000000002DE9F04381B00028AF
:1055600000F0288142F200080446C5F2002889466E
:10557000D8F8000000F00F0088420ED2D8F80000E2
:1055800020F00F0040EA0900C8F80000D8F8000039
:1055900000F00F00484540F00D81206844F21847A4
:1055A0004107C5F602070AD521693A6802F0700280
:1055B000914204D93A6822F0700211433960010720
:1055C0000AD561697A6802F07002914204D97A685A
:1055D00022F0700211437960C1060AD5A1697A6888
:1055E00002F4E062914204D97A6822F4E062114345
:1055F000796081060AD5E169BA6802F070029142C9
:1056000004D9BA6822F070021143B96010F00201A7
:105610000AD0E2683B6803F00F039A4204D93B6862
:1056200023F00F031A433A60C20745D0386820F4CC
:105630007061D4E90102012841EA0201396009D010
:1056400003280DD0022811D157F8181C890340F106
:10565000B18010E057F8181CC90540F1AB800AE092
:1056600057F8181C890140F1A58004E057F8181C70
:10567000490740F19F8057F8081C21F007010843B3
:1056800047F8080CFEF7A4FD064641F2883500BF36
:1056900057F8080C616800F03800B0EBC10F08D073
:1056A000FEF796FD801BA842F2D9032001B0BDE8A9
:1056B000F083206800F0020151B1E1683A6802F01D
:1056C0000F02914204D23A6822F00F02114339606E
:1056D000D8F8001001F00F0149450DD9D8F8001095
:1056E00021F00F0141EA0901C8F80010D8F80010B4
:1056F00001F00F0149455DD141070AD521693A689A
:1057000002F07002914204D23A6822F07002114312
:10571000396001070AD561697A6802F07002914226
:1057200004D27A6822F0700211437960C1060AD56A
:10573000A1697A6802F4E062914204D27A6822F4A4
:10574000E0621143796080060AD5E069B96801F02A
:105750007001884204D2B96821F070010843B86032
:1057600000F0B6F839684DF210433A68C0F600030D
:10577000C1F3032102F00F02595C9A5C01F01F0192
:1057800020FA01F102F01F0042F2080221FA00F0B3
:10579000C2F20042106042F21C0042F20402C2F265
:1057A0000040C2F200420068116001B0BDE8F04361
:1057B000FEF75ABD012001B0BDE8F08300000000F3
:1057C00080B500F085F844F218414DF21043C5F65B
:1057D0000201C0F600030A68096801F00F01C2F374
:1057E0000322595C9A5C02F01F0220FA02F201F0D7
:1057F0001F0042F2080122FA00F0C2F200410860E4
:1058000042F20401C2F200410A6080BD00000000C3
:1058100080B500F05DF844F2184C4DF21041C5F629
:10582000020CC0F60001DCF80020DCF8003003F0C8
:105830000F03C2F30322CB5C8A5C02F01F02D0404C
:1058400003F01F0242F2080320FA02F2C2F2004300
:105850001A6042F20403C2F200431860DCF804004C
:10586000C0F30210085C00F01F0022FA00F080BDB7
:1058700080B500F02DF844F2184C4DF21041C5F6F9
:10588000020CC0F60001DCF80020DCF8003003F068
:105890000F03C2F30322CB5C8A5C02F01F02D040EC
:1058A00003F01F0242F2080320FA02F2C2F20043A0
:1058B0001A6042F20403C2F200431860DCF80400EC
:1058C000C0F30220085C00F01F0022FA00F080BD47
:1058D00044F20041C5F602010869C0F3C200032882
:1058E0000FD002282AD070BB0868800649F2000059
:1058F000C0F2D03058BF70470968C1F3C101C84039
:1059000070478A6A886AC0F3051CC86ABCF1000F38
:105910004B6B1DD0C3F3CC0300F00100584302F0E1
:105920000302022A00EE100AB8EE400A12D0A2B911
:105930000868800614D49FED261A1EE047F6400042
:10594000C0F27D10704740F60010C0F23D00704775
:10595000002070479FED1D1A0FE09FED1B1A0CE011
:10596000086849F20002C0F2D032C0F3C10022FA46
:1059700000F001EE100AB8EE411A086B9FED153ADF
:105980006FF35F2002EE100A086BC0F34620B8EEFA
:10599000422A013000EE032A00EE10CAB7EE003AA8
:1059A000B8EE400A81EE000A32EE031A20EE010A38
:1059B00001EE100AB8EE411A80EE010ABCEEC00AF0
:1059C00010EE100A704700BF0024744A20BCBE4B82
:1059D0000024744C00000039F0B581B0002800F0BC
:1059E00070810446007844F20046C007C5F60206FE
:1059F00021D12078800740F1B380306910F0380160
:105A0000B06A3CD0182908BF5FEA807037D0E068E0
:105A1000316800285CD021F0190108433060FEF79E
:105A2000D7FB05463068400743D4FEF7D1FB401B47
:105A30000228F7D983E1306900F03801B06A1029F3
:105A400005D018290AD100F00300022806D13068D9
:105A50008003CED560680028CBD132E16068002891
:105A600047D0B0F5A02F5BD0B0F5803F5CD0306858
:105A700020F480303060306820F4802057E03068B7
:105A80004007E06802D5002800F01B81316821F052
:105A9000190108433060FEF79BFB0546306840075C
:105AA00007D4FEF795FB401B02284FF00300F5D901
:105AB0002FE2FEF785FB41F20301884246D82069B8
:105AC0007168402821F47C3147D141F4003046E030
:105AD00021F001003060FEF77BFB0546306840078F
