:020000040800F2
:1000000050A90024AD020008E178000879710008C9
:10001000D9780008A91200087993000800000000B0
:10002000000000000000000000000000617B0008EC
:10003000C11800080000000019790008B17C000810
:10004000CB020008CB020008CB020008CB0200085C
:10005000CB020008CB020008CB020008CB0200084C
:10006000CB020008CB020008CB020008B112000846
:10007000CB020008CB020008CB020008CB0200082C
:10008000CB020008CB020008CB020008CB0200081C
:10009000CB020008CB020008CB020008CB0200080C
:1000A000CB020008CB020008CB020008CB020008FC
:1000B000CB020008CB020008CB020008CB020008EC
:1000C000CB020008CB020008CB020008CB020008DC
:1000D000CB020008CB020008CB020008699300089D
:1000E000CB020008CB02000800000000CB02000891
:1000F000CB020008CB020008CB020008CB020008AC
:10010000CB020008CB020008CB020008CB0200089B
:10011000CB020008CB020008CB020008CB0200088B
:10012000CB020008CB020008CB020008CB0200087B
:10013000CB020008CB020008CB020008CB0200086B
:1001400000000000000000000000000000000000AF
:10015000CB020008CB020008CB020008CB0200084B
:10016000CB020008CB020008CB020008CB0200083B
:10017000CB020008CB020008CB0200080000000000
:10018000CB020008CB020008CB020008CB0200081B
:10019000CB020008CB020008CB020008CB0200080B
:1001A000CB020008CB020008CB020008CB020008FB
:1001B000CB020008CB020008CB020008CB020008EB
:1001C000CB020008CB020008CB020008CB020008DB
:1001D000CB020008CB020008CB020008CB020008CB
:1001E000CB020008CB020008CB020008CB020008BB
:1001F000CB020008CB020008CB020008CB020008AB
:10020000CB020008CB020008CB020008CB0200089A
:10021000CB020008CB020008CB020008CB0200088A
:10022000CB020008CB020008CB020008000000004F
:10023000CB020008CB02000800000000CB0200083F
:10024000CB020008CB020008CB020008CB0200085A
:10025000CB020008CB020008CB020008CB0200084A
:10026000CB020008CB020008CB020008CB0200083A
:10027000CB020008CB020008CB02000800000000FF
:10028000CB020008CB020008CB02000800000000EF
:1002900000000000CB020008DFF80CD000F06AFD7F
:1002A0000048004769A0000850A90024074880477B
:1002B0000748804707480047FEE7FEE7FEE7FEE7FE
:1002C000FEE7FEE7FEE7FEE7FEE7FEE7D1180008DF
:1002D000797D0008990200082DE9FF4FABB0054673
:1002E0002C9C00262194E40806EB040909EB040089
:1002F000039020440290204400EB040805EBC0006A
:10030000139008EB040739190A9105EBC60B006836
:1003100008900146DBF800A0504600F04AFC08991E
:100320000190504600F097FC05EBC80A099005EBD8
:10033000C900DAF800801590D0F800904146484690
:1003400000F037FC41460590484600F084FC05EB80
:10035000C7090890D9F8000004900398049905EBA8
:10036000C008D8F80070384600F023FC04991190BA
:10037000384600F070FC0A990E9005EBC100189009
:10038000006803900298039905EBC0073868049051
:1003900000F00FFC0290DDE9031000F05CFC10900F
:1003A0001199019800F057FC04901199019800F000
:1003B00000FC01900299059800F04DFC1190029903
:1003C000059800F0F6FB05900146019800F0F1FB5E
:1003D000CBF800000599019800F03DFC0146139808
:1003E0000160139840680390DBF8040003990290C1
:1003F00000F0DFFB0190DDE9020100F02CFC06902B
:10040000DAF804000390159803994068029000F010
:10041000D0FB0590DDE9020100F01DFC0790D9F842
:1004200004000390D8F804000399029000F0C1FB87
:100430000B90DDE9020100F00EFC0D901898406869
:100440000A9078680A99039000F0B3FB02900A9929
:10045000039800F000FC0C900B99019800F0FBFB56
:1004600003900B99019800F0A4FB01900299059864
:1004700000F0F1FB0B900299059800F09AFB0590B3
:100480000146019800F095FBCBF80400059901980E
:1004900000F0E1FB0146139841600B99049800F0CD
:1004A00088FBC8F800000B99049800F0D4FBC9F849
:1004B00000001199039800F0CEFBC8F804001199D0
:1004C000039800F076FBC9F804001099089800F032
:1004D000C2FBDFF85486414600F0C3FB1099814609
:1004E000089800F066FB414600F0BBFB0C99834680
:1004F000079800F0B0FB414600F0B3FB05900C9963
:10050000079800F056FB414600F0ABFB07904946C8
:10051000099800F0A0FB04904946099800F049FBB7
:10052000099059460E9800F096FB109059460E9887
:1005300000F03FFB0E90DDE9051000F08CFB03900E
:10054000DDE9051000F035FB069007990D9800F0E5
:1005500082FB079983460D9800F02BFB81460146EC
:10056000099800F026FB0146159801604946099854
:1005700000F071FB0146189801605946049800F09C
:1005800018FBCAF800005946049800F064FB386074
:100590000E99069800F05FFB0146159841600E9990
:1005A000069800F006FB01461898416010990398E0
:1005B00000F051FBCAF804001099039800F0F9FA12
:1005C000219978602C980E448642FFF48DAE082C59
:1005D0003CBF2FB0BDE8F08F002018900120209084
:1005E0002E9918982D9B08442D99189001EBC00C5A
:1005F0002D9F4200209E1118DCF8008003EBC203FF
:10060000CDF854800A18DDF8B48007EBC107111843
:1006100008EBC2081A6814920A18D7F80090104420
:10062000CDF85C90DDF8B49009EBC101D8F80090EA
:10063000CDF85890DDF8B490DCF804C009EBC202A4
:10064000CDF870C0D1F800C009EBC000CDF864C08F
:10065000D2F800C0CDF88CC0D0F800C0CDF888C06A
:100660005B6812937B681A93D8F804301393496837
:100670001B9151681D914068CDF8780006EB040885
:1006800008EB0400039020440290204400EB04098E
:1006900005EBC000249009EB040739190A91D0F842
:1006A00000A005EBC6001F905146D0F800B0584698
:1006B00000F07FFA51460190584600F0CCFA05EB65
:1006C000C80B099005EBC9002590DBF80080D0F835
:1006D00000904046494600F06CFA49460590404675
:1006E00000F0B9FA089005EBC70A0398DAF8007031
:1006F00005EBC0093946D9F80080404600F059FAA8
:1007000039461190404600F0A6FA0A990E9005EB82
:10071000C108D8F8000003900298039905EBC007C0
:100720003868049000F045FA0290DDE9031000F00B
:1007300092FA10901199019800F08DFA0490119995
:10074000019800F036FA01900299059800F083FABA
:1007500011900299059800F02CFA05900146019835
:1007600000F027FA01461F9801600599019800F0F2
:1007700072FA05902498406803901F980399406886
:10078000019000F016FA02900399019800F063FAC4
:100790000690259840680390DBF8040003990190C7
:1007A00000F007FA0A900399019800F054FA0790B4
:1007B000DAF804000390D9F804000399019000F0DE
:1007C000F8F90B900399019800F045FA0D90D8F8CC
:1007D00004000C9078680C99039000F0EAF90190FD
:1007E0000C99039800F037FA0C900B99029800F0DE
:1007F00032FA03900B99029800F0DBF9029001990C
:100800000A9800F028FA0B9001990A9800F0D1F9A3
:100810000A900B99049800F0CCF901900B99049878
:1008200000F019FA04900A99029800F0C2F9014602
:100830001F9841600A99029800F00DFA0A901199E8
:10084000039800F008FA02901199039800F0B1F9AA
:1008500003900599169800F004FA1F900A991398CE
:1008600000F0FFF911900A99169800F0FAF90B9030
:100870000599139800F0F5F90A9011991F9800F066
:1008800098F9014624980160DDE90A1000F0E3F9C7
:100890000146249841600199149800F0E2F91F90F4
:1008A0000299129800F0DDF911900299149800F065
:1008B000D8F90B900199129800F0D3F90A90119988
:1008C0001F9800F076F9C9F80000DDE90A1000F081
:1008D000C2F9C9F804000499239800F0C2F91F90E6
:1008E00003991D9800F0BDF903998146239800F003
:1008F000B8F90B9004991D9800F0B3F90A90494695
:100900001F9800F056F9CAF80000DDE90A1000F05F
:10091000A2F9CAF804001099089800F09CF98249DD
:1009200000F09FF910998146089800F042F97E493D
:1009300000F097F90C998246079800F08CF97A49F3
:1009400000F08FF902900C99079800F032F976497F
:1009500000F087F907904946099800F07CF9049067
:100960004946099800F025F9099051460E9800F083
:1009700072F9109051460E9800F01BF90E900299F2
:10098000069800F068F903900299069800F011F9B2
:10099000069007990D9800F05EF9079982460D9828
:1009A00000F007F981460146099800F002F901902C
:1009B0004946099800F04FF909905146049800F013
:1009C000F8F808905146049800F045F904900E9903
:1009D000069800F040F90E998146069800F0E9F873
:1009E00006901099039800F036F907901099039833
:1009F00000F0DFF803900199159800F032F91F908C
:100A000049461C9800F02DF982461598494600F099
:100A100028F90B9001991C9800F023F981461F9842
:100A2000514600F0C6F8CBF8000049460B9800F09C
:100A300012F9CBF804000999229800F012F91F90DE
:100A400006991E9800F00DF906998346229800F049
:100A500008F9099982461E9800F003F981461F980B
:100A6000594600F0A6F84946C8F80000504600F084
:100A7000F2F8C8F804000899199800F0F2F80799FC
:100A800083461B9800F0EDF807998146199800F00D
:100A9000E8F8089982461B9800F0E3F8804649463A
:100AA000584600F086F801462598016041465046B8
:100AB00000F0D1F80146259841600499179800F09C
:100AC000D0F8039983461A9800F0CBF80399814631
:100AD000179800F0C6F8049982461A9800F0C1F8F9
:100AE00080464946584600F064F841463860504612
:100AF00000F0B1F8219978602C980E448642FFF4FA
:100B0000BDAD2098401C209084423FF669AD2E98E0
:100B10004FF6FF71072C01EAC0002E903FF6E1ABC3
:100B20002FB0BDE8F08F0000F304353F2DE9F05FF2
:100B30000546002092469B4688460646814640244C
:100B40001BE0284641464746224600F0CBF8534674
:100B50005A46C01A914110D311461846224600F059
:100B6000B2F82D1A67EB01084F46224601200021FA
:100B700000F0A9F817EB00094E41201EA4F1010472
:100B8000DFDC484631462A464346BDE8F09FD2B2F4
:100B900001E000F8012B491EFBD270470022F6E766
:100BA00010B513460A4604461946FFF7F0FF2046E3
:100BB00010BDF0B480EA0102D40F4200B2EB410F45
:100BC00002D20246084611464A0042D0C30DDDB2A9
:100BD000C1F3C752AD1A202D35DAC1F3160141F425
:100BE000000204B15242C5F1200602FA06F12A4180
:100BF0001044B3EBD05F23D0C4B1012DA0EBC350A0
:100C000009DCF0BC4FF0004202EAC352DBB200F54F
:100C1000000000F080B8400000F1807000EBC3508D
:100C2000A0F1807040EAD170490009E0490841EA2A
:100C3000C071A0EBC35000F50000400800EBC350AA
:100C4000F0BC00F05FB86142012202EB4101001BE1
:100C5000F6E7F0BC704781F00041AAE780F0004061
:100C6000A7E780EA010210B502F00043400022D05D
:100C70004A001FD0010E01EB1261C0F35600C2F30F
:100C8000560240F4000042F40002A0FB02200004DF
:100C90007F39140400D0401C50EA124001D44000B7
:100CA000491EC2B20C0604EBD010401C4008802A3A
:100CB00002D003E0002010BD20F00100002900DA7E
:100CC0000020184310BD202A04DB203A00FA02F16C
:100CD000002070479140C2F1200320FA03F319432A
:100CE00090407047202A04DB203A21FA02F00021CC
:100CF000704721FA02F3D040C2F12002914008432C
:100D0000194670470029A8BF7047401C490008BF1A
:100D100020F00100704710B4B0FA80FC00FA0CF02B
:100D200050EA010404BF10BC704749B1CCF1200463
:100D300021FA04F411FA0CF118BF012121430843F0
:100D4000A3EB0C01CB1D4FEA00614FEA102042BF1C
:100D5000002010BC704700EBC35010440029A4BF12
:100D600010BC7047401C490008BF20F0010010BCB7
:100D700070470000064C074D06E0E06840F00103B4
:100D800094E8070098471034AC42F6D3FFF788FA8E
:100D9000B4200108E420010830B58C1810F8012BAC
:100DA00012F00F0301D110F8013B120906D110F81F
:100DB000012B03E010F8015B01F8015B5B1EF9D128
:100DC00001E001F8013B521EFBD1A142E6D3002015
:100DD00030BD000000000000B0B50446006842F2DB
:100DE000001140F48070C4F20201884204D142F242
:100DF0000830C4F2020003E046F20830C5F60200F3
:100E0000006810F4403F10D004F0F6FD616805461C
:100E1000B1F5803F05D0B1F5403F22D0B1F5003F9C
:100E200020D1080CB5FBF0F51CE04FF400200021A8
:100E300003F002FE61680546A1F580224FEAB24246
:100E40000A2A0FD8DFE802F0060606060606494B16
:100E50004D4F51006FF0010000EA5140B5FBF0F535
:100E600000E0AD0803F0F8FA41F2030188420DD822
:100E7000206842F60151C0F231118D4281682CBFC9
:100E800041F4807121F480718160B0BD4BF6214046
:100E9000C0F2BE00854205D82068816821F4407107
:100EA0008160B0BD47F64100C0F27D10854203D895
:100EB00020680122816808E020684FF28101C0F2B9
:100EC000FA218D42816804D8022262F309218160EF
:100ED000B0BD41F440718160B0BD2D09C2E76D091C
:100EE000C0E7AD09BEE7ED09BCE72D0ABAE700008F
:100EF00070B5044600680D4606F09AF9064620686B
:100F000006F072F930435CD02068C168890115D5BC
:100F1000617D012912D1217D01290FD10168490686
:100F200009D44DF60141C0F20C0100BF01393ED099
:100F300002685206FAD5012540210160022D0FD02A
:100F400006F076F918B1206806F062F918B1012DA3
:100F500006D1042616E0206806F0A6F9012DF8D087
:100F6000206806F041F930B1206806F051F910B957
:100F7000206806F03DF90426022D08BF0826032D3F
:100F800008BF0C2603F070FA21688968314218D036
:100F9000054603E020688068304212D003F064FA0E
:100FA000401B0628F6D3206880683042F2D0606D7E
:100FB00040F010006065A06D40F00100A0650120C8
:100FC00070BD002070BD000010B5846B616D11F024
:100FD000500F616D05D0C9060ED4E16CC96C88470D
:100FE00010BD41F40070606520680168090707D4EE
:100FF000C068800716D10AE0204600F07DFF10BDD2
:1010000006F01EF970B12068C06880040AD4606DD3
:1010100020F480706065606DC00403D4606D40F0A2
:1010200001006065204600F053FF10BD0000000085
:1010300080B5806B416D41F040014165816D41F0AB
:101040000401816500F058FF80BD00000000000031
:1010500080B5806B00F04CFF80BD000000000000F8
:10106000B0B50446006806F0D3F80546206806F0DF
:10107000D3F801464FF0000085BB002908BFB0BD82
:101080002068816801F00D0101291CD106F078F873
:1010900020680321016003F0E7F921688968C90726
:1010A00001D10020B0BD054604E000BF2068806883
:1010B000C00712D003F0D8F9401B0328F6D32068EC
:1010C0008068C007F2D0606D40F010006065A06DD0
:1010D00040F00100A0650120B0BD0020B0BD0000BF
:1010E00070B50446006806F097F800281CBF002081
:1010F00070BD20683F22C8F200028168114209D009
:10110000606D40F010006065A06D40F00100A065CA
:10111000012070BD06F048F803F0A6F942F2000580
:1011200046F20031C4F20205226805F5807605F525
:101130004073C5F60201B24208BF1946AA420546ED
:1011400008BF1946084606F04BF821680A46B14226
:1011500004BF42F20002C4F20202002818BF8A4211
:1011600003D121680868C00708D0002070BD00BF07
:1011700021680868C0074FF0000010D1084606F04B
:101180004BF810B9206806F00FF803F06DF9401B1A
:101190000328EDD320680068C007E9D1B0E770BD2F
:1011A00070B540F2000441F21C06C2F20044C2F2E3
:1011B000004605462046314608F0E2FD304608F07C
:1011C00077FE85ED010A45F21C05C2F20045304666
:1011D000294608F00DFEB7EE000A284608F0A0FDEB
:1011E0004AF248012846C2F2004108F0E9FC4FF4F7
:1011F00080512046FFF7D2FC70BD000000000000C7
:101200004AF24402C2F2004210604AF23C00C2F2CA
:101210000040016041F21900C2F20040002101705B
:10122000704700000000000080B54AF23C0040F228
:101230000001C2F20040C2F200414FF400620068B7
:1012400000F0EAFF4AF24400C2F20040006805F0F4
:1012500053F980BD0000000080B54AF23C00C2F2A4
:101260000040006801F064F84AF24400C2F2004015
:10127000006805F099F980BD80B541F21900C2F20D
:1012800000400178002908BF80BD00210170FFF7F0
:10129000E3FF4AF25C00C2F20040FFF781FFFFF774
:1012A000C3FF80BD00000000FEE70000000000005A
:1012B00080B54AF2CC00C2F2004001F0B1FC80BD22
:1012C00040F20F420168C4F20202914210DC6F2228
:1012D000C4F20202914220DC3F22C4F20202914297
:1012E00036DC1022C4F20202914254D028224EE091
:1012F00040F26F42C4F2020291421ADC40F23F42D5
:10130000C4F2020291422ADC40F21042C4F202020C
:10131000914240D040F2284239E09F22C4F20202BA
:10132000914225DC7022C4F20202914233D088221D
:101330002DE040F29F42C4F2020291421FDC40F2D3
:101340007042C4F20202914225D040F288421EE06F
:101350004022C4F2020291421DD0582217E040F20E
:101360004042C4F20202914215D040F258420EE0CF
:10137000A022C4F2020291420DD0B82207E040F24E
:10138000B842C4F20202914205D040F2A042C4F237
:10139000020291421AD1D0F800C06FF00F024AF653
:1013A000AB2352FA8CF2CAF6AA23A2FB033109A39B
:1013B0005F2AC1F302115B5C40F2FF312CEA0101AC
:1013C000C36588BF0431816508467047016821F014
:1013D000FF01F8E7000610160006101600000000D6
:1013E00010B545F257420168C5F6020291420EDC83
:1013F00045F22F42C5F60202914217DC45F208423F
:10140000C5F60202914226D045F21C421FE045F289
:101410007F42C5F60202914211DC45F25842C5F600
:101420000202914217D045F26C4210E045F2304280
:10143000C5F6020291420ED045F2444207E045F261
:101440009442C5F60202914205D045F28042C5F6AB
:101450000202914219D101784CF6CD42CCF6CC4231
:1014600045F600030839C5F60203A1FB021203F199
:101470008001120903EB820302F01F0203660123BD
:10148000416603FA02F1816610BD02784AF6AB2389
:10149000CAF6AA234FF0080E103AA2FB032340F22B
:1014A0000F42C4F202024FEA131C914202F1AA0455
:1014B000624688BF0EEB131240F60003A142C4F24D
:1014C000020303F1800128BF6246D3E70000000059
:1014D00010B50279511E072988BF10BD45F2574C3F
:1014E00045F6FC0E0368C5F6020CC5F6020E634510
:1014F0000EF1440C0EDC45F22F44C5F60204A34263
:1015000017DC45F20844C5F60204A34226D045F292
:101510001C441FE045F27F44C5F60204A34211DCDF
:1015200045F25844C5F60204A34217D045F26C4474
:1015300010E045F23044C5F60204A3420ED045F255
:10154000444407E045F28044C5F60204A34205D0B6
:1015500045F29444C5F60204A34209D10EEB82027F
:10156000C2660122C0F870C002FA01F1416710BDE5
:1015700040F6FC0EC4F2020E0EF1440CEEE7000041
:101580008169B1F5005F07D079B9816A022912D06B
:10159000012916D079B112E0816A03290FD8DFE85A
:1015A00001F0020A021001207047816A03293CBF42
:1015B0000120704703D1C06AC0F30060704700206B
:1015C0007047C06AA0F1C070B0FA80F0400970475F
:1015D00070B540F26F44D0F800E0C4F20204D0F8D5
:1015E00058C0A64519DC9F25C4F20205AE4531DC82
:1015F0005725C4F20205AE4556DC1025C4F202059B
:10160000AE4500F092802825C4F20205AE4500F0F8
:101610008C804025C4F2020584E045F22F45C5F6D2
:101620000205AE452BDC40F2B745C4F20205AE45DB
:1016300048DC40F27045C4F20205AE4575D040F278
:101640008845C4F20205AE456FD040F2A045C4F211
:10165000020567E040F22745C4F20205AE4540DCD2
:10166000A025C4F20205AE455FD0B825C4F202053C
:10167000AE455AD040F21045C4F2020552E045F2A0
:101680006B45C5F60205AE453CDC45F23045C5F676
:101690000205AE4549D045F24445C5F60205AE45C2
:1016A00043D045F258453BE05825C4F20205AE450B
:1016B0003BD07025C4F20205AE4536D08825C4F271
:1016C00002052FE040F2B845C4F20205AE452CD029
:1016D00045F20845C5F60205AE4526D045F21C4543
:1016E0001EE040F22845C4F20205AE451DD040F28E
:1016F0004045C4F20205AE4517D040F25845C4F249
:1017000002050FE045F26C45C5F60205AE450CD06A
:1017100045F29445C5F60205AE4506D045F2804532
:10172000C5F60205AE4540F0C980456EC66E002E76
:10173000866E6E601CBFD0E91C566E60A64515DC37
:101740009F24C4F20204A6452BDC5724C4F20204F1
:10175000A6454EDC1024C4F20204A64576D0282407
:10176000C4F20204A64571D040246BE045F22F4438
:10177000C5F60204A64527DC40F2B744C4F20204D1
:10178000A64542DC40F27044C4F20204A6455DD096
:1017900040F28844C4F20204A64557D040F2A04467
:1017A00050E040F22744C4F20204A6453CDCA024E9
:1017B000C4F20204A64549D0B824C4F20204A645E6
:1017C00044D040F210443DE045F26B44C5F60204BB
:1017D000A6454FDC45F23044C5F60204A6455BD071
:1017E00045F24444C5F60204A64555D045F2584496
:1017F0004EE05824C4F20204A64527D07024C4F257
:101800000204A64522D088241CE040F2B844C4F269
:101810000204A6451AD045F20844C5F60204A645BE
:101820003AD045F21C4433E040F22844C4F20204AA
:10183000A6450BD040F24044C4F20204A64505D0B0
:1018400040F25844C4F20204A64537D104683F254B
:101850008668C06D00F01F00402E05FA00F0CCF83D
:101860000800206820F480202060636021D0A160FF
:10187000E26070BD45F26C44C5F60204A6450BD08B
:1018800045F28044C5F60204A64505D045F29444CD
:10189000C5F60204A64511D10468C66D806806F03D
:1018A0001F060125402805FA06F6CCF8046063609F
:1018B00002D1A260E16070BDA160E26070BD000075
:1018C000704700000000000072B600BFFEE7000095
:1018D00044F60C00C5F60200016841F00201016007
:1018E00050F8081C8904FBD5704700000000000078
:1018F00080B54EF2C0120160C4F6645245F2000198
:10190000426044F20002C4F24371C4F21C72C0E9A6
:1019100002124FF4FA71016100210175002108F0F3
:101920000BFB80BD00000000B0B50446007D0D46F5
:1019300088B3207F002848D002F096FDA169226973
:10194000401A904226D321680968496A88B100EE9E
:10195000101A9FED231BB8EE400B20EE010B01EE99
:10196000100AB8EE411B80EE010BB7EEC00B85EDFF
:10197000000A95ED000A94ED031AB4EE410A002026
:10198000F1EE10FA2077A8BFB0BD207500212046E7
:1019900008F0D2FAB0BD204608F032FBB5EE400A9E
:1019A000F1EE10FAF6DB94ED021A85ED000AB4EEC2
:1019B000410AF1EE10FAEDDD0120207501212046EB
:1019C00008F0BAFA00202077B0BD20680021006836
:1019D000416202F049FDA06101202077B0BD00BF47
:1019E0000000000000408F402DE9F04182B0044625
:1019F00090F85000012803D1022002B0BDE8F08128
:101A0000012084F8500000200190009042F200076D
:101A1000C4F202072068B8420BD107F580780D4662
:101A2000404605F009FC0646206805F005FC3043F9
:101A30000AD0606D40F0200060650120002184F82C
:101A4000501002B0BDE8F08146F200002168C5F6F2
:101A500002004145064608BF3E46B94208BF0E4651
:101A60002A6841F48071D6F80833002A23F44042F2
:101A700015D042F2001C6B68C4F2020C614542EAC8
:101A80000301C6F808131BD1384605F0C9FB074609
:101A9000404605F0C5FB3843B0B10020CEE742F226
:101AA0000013C6F80823C4F20203994216D138463F
:101AB00005F0B6FB0546404605F0B2FB28430FE0B3
:101AC00005F0AEFB0028E8D1D6F8080340F61F71F8
:101AD00088432968AA680843104309E005F0A0FB81
:101AE00008B10020AAE7D6F8080340F61F71884322
:101AF000C6F808030020A1E72DE9F04782B00022D4
:101B00000192044690F85000012803D1022002B04F
:101B1000BDE8F087012084F8500020680D4605F0EC
:101B200087FB28B1606D40F0200060650120EDE08A
:101B30002A68002A0FD492FAA2F00123B0FA80F0AA
:101B4000110308BF900E216800F01F0003FA00F097
:101B5000CB691843C8612068696805F081FB20687B
:101B600005F066FB0646206805F03EFB304368D171
:101B700020682968AA6805F0B3FB41F20000C5F6A9
:101B80000040006800F07040B0F1805F06D120682E
:101B90006A690E21C06801EA50030CE02068C16840
:101BA0006A69C068C9064FEA500002D400F00E030B
:101BB00001E000F0080329692068042928D1016E9A
:101BC0002A6801F0F841B1EB826F4FEA826103D1DC
:101BD000026E22F000420266426E02F0F8428A4231
:101BE00003D1426E22F000424266826E02F0F84259
:101BF0008A4203D1826E22F000428266C26E02F0F7
:101C0000F8428A421DD1C16E21F00041C16618E040
:101C100002FA03F32A6805F0ABFB687E0138B0FADC
:101C200080F120684A092969D20705F0ADFB287EBA
:101C30000138B0FA80F120684A092969D20205F01A
:101C40008BFB206805F0E8FA08B100205EE0002672
:101C500020682968EA68C4F2527605F055FBE86806
:101C600006F52D0188424CD142F200112068C4F2E1
:101C70000201884226D042F20001C4F202018842E9
:101C80003BD11F222968C1F2F042914220DD40F28F
:101C9000FF72C2F63062914240F3838040F6000248
:101CA000C2F63062914200F0D58041F20002C3F2E8
:101CB0006022914200F0AD800022C4F221329142B4
:101CC0001CD0CCE01F222968C1F2F042914262DCB4
:101CD0000722C0F69042914273DC0222C0F23042E9
:101CE000914200F0A4800422C0F66002914240F0CC
:101CF000B6804026C1F6201600E00026314605F0E9
:101D0000DFFA2868B0F1FF3F06DD0020002184F8EB
:101D1000501002B0BDE8F08746F2000842F200071A
:101D2000C5F60208C4F2020708F54079216807F5F4
:101D3000807607F540724846B14208BF1046B94266
:101D400008BF104605F048FA216842F2001241F43B
:101D50008071C4F202029142824608D1384605F0F1
:101D60005BFA0746304605F057FA384302E0404632
:101D700005F052FA00287FF4D5AE5FEA0A20296800
:101D80002ED40020CCF68430814229D120684045F1
:101D90006FD00020BAE740F2FF72C2F63062914283
:101DA0002BDC2022C1F2F042914237D040F20042B7
:101DB000C2F60022914252D140F60006C2F63066C9
:101DC0009CE70822C0F6904291422CD01022C1F22A
:101DD000C002914243D140F20016C2F280168DE754
:101DE0005FEACA1025D40020CCF25270814220D183
:101DF000206840455ED0002088E740F60002C2F629
:101E00003062914226D041F20002C3F26022914238
:101E100025D142F20006C3F290666FE740F2002639
:101E2000C2F2B0566AE78026C1F6505666E7012630
:101E300064E75FEA4A204FF000003FF567AF0022F9
:101E4000CCF6B87291427FF461AF2068404536D03D
:101E500000205BE741F20006C3F260264EE7002255
:101E60000026C4F68432914204BF0026C4F6B87638
:101E700044E74AF40001484605F066FA41F20400DE
:101E800042F66351C2F20040C0F23E510068800940
:101E9000A0FB01018809022101EB4000019001989B
:101EA00058B1019801380190019800284FF00000C6
:101EB000F7D12BE74AF0807103E0002026E74AF4CF
:101EC0008001484605F040FA00201FE700000000AE
:101ED00042F200010068C4F20201884218BF704754
:101EE00041F219000121C2F2004001707047000068
:101EF0007047000000000000704700000000000074
:101F0000F0B581B0044600284FF00000009019D0D1
:101F1000606D30B9204600F00BF90020A06584F810
:101F20005000206805F070F910B1206805F034F910
:101F3000206805F079F938B1206805F075F9E0B14D
:101F4000002523E00125E3E0206805F039F941F29E
:101F5000040042F66351C2F20040C0F23E510068F4
:101F60008009A0FB0101012000EB91100090009876
:101F70000028E1D000980138F8E7606D012540F0B5
:101F800010006065A06D40F00100A065206805F0BC
:101F90004FF9616D01F010010843606D03D040F00E
:101FA00010000125B3E020F48170023060652068E4
:101FB00005F032F958BB206842F2001140F48070FD
:101FC000C4F2020142F200068842C4F2020640F066
:101FD000A280304605F020F9074606F5807005F02E
:101FE0001BF9384398B906F5807006F540722168F0
:101FF00046F20003C5F602038142104618BF03F5FE
:102000004070B142616808BF104605F095F902F0D2
:1020100023FA41F2040188420CD3A068102809D1A8
:10202000607D216B227F41EA403040EA024040F06F
:102030001C0108E0607D216B227F41EA4030A168ED
:10204000084340EA0241207F012806D1206A00228D
:10205000CFF6FE7202EB40400143606A28B100F403
:102060007870A26A084340EA020120684CF2030338
:10207000CFF6F073C2681A401143C16005F0D8F87A
:102080000646206805F0B0F8304331D1217D206844
:10209000E26A44F20307C36842EA813123EA070295
:1020A0001143C16094F838100129016914D14FF629
:1020B0001E020027CFF60042CFF6FF771140D4E989
:1020C0000F231943636C07EB02421143A26C1943BF
:1020D000114341F0010101E021F0010101610169B9
:1020E000626B21F07041114301612046FEF774FEDE
:1020F0002068E1680129026B22F00F0102D1A26978
:10210000013A114301630121606D61F301006065D3
:10211000284601B0F0BD46F20000C5F6020005F009
:102120007BF800287FF473AF5DE70000000000003B
:1021300070B5B8B0044602A8C0210025CDE93655D7
:10214000CDE934553395C026FEF728FD42F2000153
:102150002068C4F20201884201D038B070BD4FF44B
:1021600000200290022004900C210395CDE9051077
:10217000CDE9070020200996CDE90A0502A82B9594
:1021800002F006FE08B1FFF79FFB44F2D84000269C
:10219000C5F60200016841F020010160016801F00C
:1021A000200101910199816841F0010181608068FD
:1021B00033A900F0010001900198402033900320E2
:1021C00034900020C5F60200359602F069F84AF214
:1021D000CC051020C2F20045C4F20200286009209C
:1021E000C5E901064FF4806028614FF40060686122
:1021F0004FF40050EE60C5E906062846C5E90866BA
:1022000001F0E2FA08B1FFF75FFBE564AC6338B0B8
:1022100070BD0000000000002DE9F04742F200060A
:102220000446C4F20206036846F2003006F58077E1
:1022300006F54075C5F60200BB42904608BF284629
:10224000B342894608BF284604F0CAFF8246206888
:1022500004F0EEFF18B994F85000012802D10220D2
:10226000BDE8F087BAF1090F4FF0010084F8500083
:1022700058D800FA0AF040F22121084252D02046F4
:10228000FEF72EFF30B10546002084F850002846A6
:10229000BDE8F0872068616D40F60172B84221EA1E
:1022A000020118BF0646BAF1000F01F580716165A1
:1022B00018BF864203D1616D21F480116165616DA3
:1022C00041F25107C9044FF0000144BFA16D21F054
:1022D0000601C0F600070022A16540F6C971E36C53
:1022E000C0F60001C3E90F1741F23107E16AC0F6F9
:1022F0000007DF641C23036084F85020426842F02A
:102300001002426004F0A4FF2168E06C40314A46AC
:10231000434601F009FD0546206804F0B9FF284650
:10232000BDE8F087002084F850000120BDE8F08768
:10233000B0B5044690F85000012801D10220B0BD8C
:10234000012084F8500003212046FEF7D1FD054608
:1023500018BB2168E06CCA6822F00302CA6090F8DA
:102360003510022907D100F01FF8054618B1606D3D
:1023700040F0400060652068416821F01001416034
:102380002046FEF76DFE002D08BF05462DB9606D95
:1023900041F20111884301306065002084F850004B
:1023A0002846B0BD000000002DE9F041044602F0CF
:1023B0005BF804B3054694F8350002281ED140F2BC
:1023C0000F472068C4F2020740F26F48B842C4F2D7
:1023D000020817DC6F21C4F20201884223DC3F218E
:1023E000C4F20201884239DC1021C4F202018842A1
:1023F00058D0282151E00120BDE8F081802060659F
:102400000120ADE240451ADC40F23F41C4F2020136
:1024100088422ADC40F21041C4F20201884241D0D5
:1024200040F2284139E09F21C4F20201884225DCB4
:102430007021C4F20201884234D088212DE040F29C
:102440009F41C4F2020188421FDC40F27041C4F295
:102450000201884226D040F288411EE04021C4F2A9
:10246000020188421ED0582117E040F24041C4F2D8
:102470000201884216D040F258410EE0A021C4F279
:10248000020188420ED0B82107E040F2B841C4F200
:102490000201884206D040F2A041C4F20201884203
:1024A00040F0EA8121680A68B84222F001020A601D
:1024B00010DC6F21C4F2020188421CDC3F21C4F20F
:1024C0000201884232DC1021C4F20201884251D05C
:1024D00028214AE040451ADC40F23F41C4F20201A3
:1024E00088422ADC40F21041C4F20201884241D005
:1024F00040F2284139E09F21C4F20201884225DCE4
:102500007021C4F20201884234D088212DE040F2CB
:102510009F41C4F2020188421FDC40F27041C4F2C4
:102520000201884226D040F288411EE04021C4F2D8
:10253000020188421ED0582117E040F24041C4F207
:102540000201884216D040F258410EE0A021C4F2A8
:10255000020188420ED0B82107E040F2B841C4F22F
:102560000201884206D040F2A041C4F20201884232
:1025700040F084812668316821F01E02314641F81E
:10258000142B6FF080020B68404502EA03020A60D8
:1025900019DC9F21C4F20201884231DC5721C4F2C8
:1025A0000201884256DC1021C4F20201884200F088
:1025B00091802821C4F20201884200F08B804021E2
:1025C000C4F2020184E045F22F41C5F602018842BF
:1025D0002BDC40F2B741C4F20201884248DC40F2F1
:1025E0007041C4F20201884274D040F28841C4F2C2
:1025F000020188426ED040F2A041C4F2020167E0BD
:1026000040F22741C4F20201884240DCA021C4F21A
:10261000020188425ED0B821C4F20201884259D03A
:1026200040F21041C4F2020152E045F26B41C5F69E
:10263000020188423CDC45F23041C5F60201884285
:1026400048D045F24441C5F60201884242D045F2E5
:1026500058413BE05821C4F2020188423AD070212F
:10266000C4F20201884235D08821C4F202012FE071
:1026700040F2B841C4F2020188422BD045F2084131
:10268000C5F60201884225D045F21C411EE040F209
:102690002841C4F2020188421CD040F24041C4F2F9
:1026A0000201884216D040F25841C4F202010FE004
:1026B00045F26C41C5F6020188420BD045F29441C7
:1026C000C5F60201884205D045F28041C5F60201F7
:1026D000884205D1206E016821F48071016000BF3D
:1026E0003068C0070BD001F0BFFE401B0628F7D3AF
:1026F00020206065032084F83500012030E1206847
:10270000B84210DC6F21C4F2020188421CDC3F2178
:10271000C4F20201884232DC1021C4F20201884274
:1027200050D028214AE040451ADC40F23F41C4F233
:10273000020188422ADC40F21041C4F202018842C0
:1027400040D040F2284139E09F21C4F20201884282
:1027500025DC7021C4F20201884233D088212DE0AB
:1027600040F29F41C4F2020188421FDC40F27041F6
:10277000C4F20201884225D040F288411EE0402187
:10278000C4F2020188421DD0582117E040F24041B6
:10279000C4F20201884215D040F258410EE0A02157
:1027A000C4F2020188420DD0B82107E040F2B841DE
:1027B000C4F20201884205D040F2A041C4F20201F5
:1027C000884260D1D4E9161202F01F023F2303FAB7
:1027D00002F28A60404560DC9F21C4F20201884217
:1027E00014DC5721C4F20201884226DC1021C4F215
:1027F0000201884200F0A4802821C4F2020188422C
:1028000000F09E804021C4F2020197E040F227418F
:10281000C4F2020188421EDCA021C4F202018842F7
:1028200000F08E80B821C4F20201884200F0888056
:1028300040F21041C4F2020180E05821C4F20201CA
:1028400088427DD07021C4F20201884278D088216C
:10285000C4F2020172E040F22841C4F2020188424F
:102860006ED040F24041C4F20201884268D040F28A
:102870005841C4F2020161E0014614E621686FF09C
:102880000E020E467FE6D4E9161202F01F02012363
:1028900003FA02F24A6040459EDD45F22F41C5F63B
:1028A0000201884216DC40F2B741C4F202018842BC
:1028B00025DC40F27041C4F20201884240D040F26F
:1028C0008841C4F2020188423AD040F2A041C4F2E9
:1028D000020133E045F26B41C5F6020188421DDC7E
:1028E00045F23041C5F60201884229D045F2444103
:1028F000C5F60201884223D045F258411CE040F25F
:10290000B841C4F2020188421AD045F20841C5F626
:102910000201884214D045F21C410DE045F26C41A1
:10292000C5F6020188420BD045F29441C5F602017A
:10293000884205D045F28041C5F6020188420BD19C
:10294000616EA26EE06E4A6030B1016821F4807160
:102950000160D4E91C014160012084F835000020A9
:10296000002184F83410BDE8F08100000000000070
:1029700080B5D8B190F83510022919D140F20F4234
:102980000168C4F20202914216DC6F23C4F2020312
:10299000994226DC3F23C4F2020399423CDC102317
:1029A000C4F2020399425AD0282354E0012080BD8A
:1029B00080214165012080BD40F26F43C4F20203D3
:1029C00099421ADC40F23F43C4F2020399422ADCE6
:1029D00040F21043C4F20203994240D040F228432F
:1029E00039E09F23C4F20203994225DC7023C4F22C
:1029F0000203994233D088232DE040F29F43C4F272
:102A0000020399421FDC40F27043C4F20203994270
:102A100025D040F288431EE04023C4F202039942CD
:102A20001DD0582317E040F24043C4F202039942FC
:102A300015D040F258430EE0A023C4F2020399429D
:102A40000DD0B82307E040F2B843C4F20203994224
:102A500005D040F2A043C4F20203994270D19142E2
:102A60004FF0040280F8352010DC6F22C4F202021D
:102A7000914220DC3F22C4F20202914236DC102255
:102A8000C4F20202914254D028224EE040F26F423A
:102A9000C4F2020291421ADC40F23F42C4F2020246
:102AA00091422ADC40F21042C4F20202914240D02C
:102AB00040F2284239E09F22C4F20202914225DC12
:102AC0007022C4F20202914233D088222DE040F2FB
:102AD0009F42C4F2020291421FDC40F27042C4F2F3
:102AE0000202914225D040F288421EE04022C4F208
:102AF000020291421DD0582217E040F24042C4F237
:102B00000202914215D040F258420EE0A022C4F2D7
:102B1000020291420DD0B82207E040F2B842C4F25E
:102B20000202914205D040F2A042C4F20202914258
:102B300024D10068016821F001010160002080BDFE
:102B40000A6845F2574322F001020A600268C5F69E
:102B500002039942136823F00E03136014DC45F25C
:102B60002F42C5F6020291421DDC45F20842C5F62D
:102B7000020291422CD045F21C4225E0086820F068
:102B800001000860002080BD45F27F42C5F60202C8
:102B9000914211DC45F25842C5F60202914217D02B
:102BA00045F26C4210E045F23042C5F60202914215
:102BB0000ED045F2444207E045F29442C5F60202C7
:102BC000914205D045F28042C5F6020291421AD1E7
:102BD000D0E9181CD0E916E30A6822F480720A6072
:102BE00003F01F01012202FA01F1CEF80410816EF8
:102BF000CCF80410C16E31B10A6822F480720A6008
:102C0000D0E91C124A60012180F83510026D0021C4
:102C100080F834100AB190470021084680BD0000BA
:102C20002DE9F04381B00021009141F204010446F6
:102C3000C2F2004140F26F49A56DC4F20209086872
:102C400048F2B511C1F64E312668A0FB01084E4589
:102C50002F682A6815DC9F20C4F2020086422BDC14
:102C60005720C4F2020086424FDC1020C4F202005A
:102C7000864278D02820C4F20200864273D04020D9
:102C80006CE045F22F40C5F60200864227DC40F298
:102C9000B740C4F20200864243DC40F27040C4F206
:102CA000020086425FD040F28840C4F202008642B1
:102CB00059D040F2A04051E040F22740C4F2020057
:102CC00086423DDCA020C4F2020086424BD0B820F0
:102CD000C4F20200864246D040F210403EE045F287
:102CE0006B40C5F60200864274DC45F23040C5F602
:102CF0000200864200F0818045F24440C5F60200A1
:102D000086427AD045F2584072E05820C4F2020060
:102D1000864228D07020C4F20200864223D0882048
:102D20001CE040F2B840C4F2020086421BD045F2DB
:102D30000840C5F6020086425FD045F21C4057E0CD
:102D400040F22840C4F2020086420CD040F24040DB
:102D5000C4F20200864206D040F25840C4F202009B
:102D6000864240F0EF84E06D00F01F01082000FA79
:102D700001F23A4200F0148140F20F40C4F2020026
:102D8000864213DC6F20C4F20200864200F38E807C
:102D90003F20C4F20200864200F3CF801020C4F22C
:102DA0000200864200F0ED802820E5E04E4500F369
:102DB000898040F23F40C4F20200864200F3C480A2
:102DC00040F21040C4F20200864200F0DA8040F285
:102DD0002840D1E045F26C40C5F6020086420CD096
:102DE00045F28040C5F60200864206D045F2944086
:102DF000C5F60200864240F0A5842068E16D01F02E
:102E00001F010368580727D50420884010EA0207ED
:102E100022D01904686000F18780980600F18E8442
:102E200040F20F40C4F20200864200F3AD836F20EF
:102E3000C4F20200864200F3E8833F20C4F202009D
:102E4000864200F352841020C4F20200864200F051
:102E50006F84282000F068BC980742D50220884083
:102E600010EA02073DD01904686000F10C8398064F
:102E700000F19A8440F20F40C4F20200864200F34F
:102E8000B1836F20C4F20200864200F313843F2016
:102E9000C4F20200864200F358841020C4F20200FB
:102EA000864200F07584282000F06EBC9F20C4F29A
:102EB0000200864251DC7020C4F20200864260D0DB
:102EC000882059E040F29F40C4F2020086424BDC69
:102ED00040F27040C4F20200864252D040F2884074
:102EE0004AE0180740F12E8408208840104000F086
:102EF000298440F20F40C4F20200864200F32E8380
:102F00006F20C4F20200864200F351833F20C4F2D6
:102F10000200864200F395831020C4F2020086422C
:102F200000F0B3832820ABE3D80300F1B282216C18
:102F3000002940F00E8300F005BC4020C4F20200DE
:102F400086421ED0582017E040F24040C4F20200F2
:102F5000864216D040F258400EE0A020C4F2020093
:102F600086420ED0B82007E040F2B840C4F202001A
:102F7000864206D040F2A040C4F20200864240F0F1
:102F80009082206804230068184209D020680368F2
:102F900023F004030360AA60606D40F001006065E7
:102FA000012000FA01F23A4270D040F20F40C4F220
:102FB0000200864210DC6F20C4F2020086421CDC54
:102FC0003F20C4F20200864232DC1020C4F202002C
:102FD000864251D028204AE04E451ADC40F23F405C
:102FE000C4F2020086422ADC40F21040C4F2020021
:102FF000864241D040F2284039E09F20C4F20200CE
:10300000864225DC7020C4F20200864234D088203B
:103010002DE040F29F40C4F2020086421FDC40F2E5
:103020007040C4F20200864226D040F288401EE082
:103030004020C4F2020086421ED0582017E040F221
:103040004040C4F20200864216D040F258400EE0E2
:10305000A020C4F2020086420ED0B82007E040F261
:10306000B840C4F20200864206D040F2A040C4F24A
:103070000200864240F018822068406900F080001B
:1030800020B1AA60606D40F002006065042000FA83
:1030900001F23A4270D040F20F40C4F20200864280
:1030A00010DC6F20C4F2020086421CDC3F20C4F218
:1030B0000200864232DC1020C4F20200864251D067
:1030C00028204AE04E451ADC40F23F40C4F202009C
:1030D00086422ADC40F21040C4F20200864241D00F
:1030E00040F2284039E09F20C4F20200864225DCED
:1030F0007020C4F20200864234D088202DE040F2D5
:103100009F40C4F2020086421FDC40F27040C4F2CD
:103110000200864226D040F288401EE04020C4F2E1
:10312000020086421ED0582017E040F24040C4F210
:103130000200864216D040F258400EE0A020C4F2B1
:10314000020086420ED0B82007E040F2B840C4F238
:103150000200864206D040F2A040C4F2020086423D
:1031600040F0A8812068006800F0020020B1AA6049
:10317000606D40F004006065102000FA01F13942F2
:103180007ED040F20F40C4F20200864210DC6F2075
:10319000C4F2020086421CDC3F20C4F202008642D8
:1031A00032DC1020C4F20200864251D028204AE0CE
:1031B0004E451ADC40F23F40C4F2020086422ADC4F
:1031C00040F21040C4F20200864241D040F2284052
:1031D00039E09F20C4F20200864225DC7020C4F250
:1031E0000200864234D088202DE040F29F40C4F295
:1031F000020086421FDC40F27040C4F202008642A8
:1032000026D040F288401EE04020C4F202008642F0
:103210001ED0582017E040F24040C4F2020086421F
:1032200016D040F258400EE0A020C4F202008642C0
:103230000ED0B82007E040F2B840C4F20200864247
:1032400006D040F2A040C4F20200864240F038812D
:10325000266808223068104212D0A96020680168F0
:103260004903016806D4C90506D4016821F00801A4
:10327000016001E008034FD4216C09B12046884762
:10328000E06D202100F01F008140394200F0AC8049
:1032900040F20F432268C4F202039A4210DC6F230B
:1032A000C4F202039A421CDC3F23C4F202039A4296
:1032B00036DC1023C4F202039A4255D028234EE094
:1032C0004A451ADC40F23F43C4F202039A422EDC24
:1032D00040F21043C4F202039A4245D040F2284320
:1032E0003DE09F23C4F202039A4229DC7023C4F21A
:1032F00002039A4238D0882331E040F29F43C4F25F
:1033000002039A4223DC40F27043C4F202039A4261
:103310002AD040F2884322E0A16C0029AED1AFE769
:103320004023C4F202039A421ED0582317E040F211
:103330004043C4F202039A4216D040F258430EE0D2
:10334000A023C4F202039A420ED0B82307E040F251
:10335000B843C4F202039A4206D040F2A043C4F23A
:1033600002039A4240F0AE802268102312681A428B
:103370003AD0A96094F835202168042A0A681DD142
:1033800022F016020A604A6922F080024A61226C29
:103390000AB9A26C1AB10A6822F008020A603F2139
:1033A00001FA00F0A860012084F83500216D0020AA
:1033B000002984F8340040F0CC80C3E15003086851
:1033C0000CD4C0050CD4086820F01000086001205F
:1033D00084F83500002084F8340001E000035CD458
:1033E000E16B09B120468847606D002800F0AA8192
:1033F000606DC00700F0A980042084F8350040F219
:103400000F412068C4F20201884210DC6F21C4F22F
:10341000020188421CDC3F21C4F20201884253DCD5
:103420001021C4F20201884273D028216BE0484584
:103430001ADC40F23F41C4F2020188424BDC40F208
:103440001041C4F20201884263D040F228415AE0A0
:103450009F21C4F20201884246DC7021C4F20201BD
:10346000884256D088214EE040F29F41C4F20201CA
:10347000884240DC40F27041C4F20201884248D0E8
:1034800040F288413FE0D8037AD4616C002960D1D2
:1034900058E1A16C00295CD154E1616C0029A1D1F3
:1034A000A2E7082330466EE53068002000287FF44C
:1034B000E8ADEBE53068002000287FF458AE5BE60D
:1034C0000422C7E6022351E74021C4F202018842E8
:1034D0001FD0582117E040F24041C4F20201884257
:1034E00017D040F258410EE0A021C4F202018842F8
:1034F0000FD0B82107E040F2B841C4F2020188427F
:1035000007D040F2A041C4F20201884208BF2068FF
:1035100000E020684FEA9821026822F00102026070
:10352000009801300090884203D820680068C007E6
:10353000F6D120680068C0074FF0030008BF0120E3
:1035400084F83500002084F83400E16C002900F094
:10355000F9802046884701B0BDE8F0834E4532DC53
:1035600040F23F40C4F20200864271DC40F210405B
:10357000C4F20200864200F0888040F228407FE0DA
:10358000E16B0029E5D1DDE04E454BDC40F23F40E8
:10359000C4F20200864200F3AF8040F21040C4F251
:1035A0000200864200F0C48040F22840BCE09F2028
:1035B000C4F20200864254DC7020C4F2020086424B
:1035C00063D088205CE040F29F40C4F20200864253
:1035D0004EDC40F27040C4F20200864255D040F208
:1035E00088404DE04E4571DC40F23F40C4F202009D
:1035F000864200F3B18040F21040C4F202008642DD
:1036000000F0C68040F22840BEE09F20C4F20200D5
:1036100086427ADC7020C4F20200864200F0888084
:10362000882081E040F29F40C4F20200864273DCB1
:1036300040F27040C4F20200864279D040F28840E5
:1036400072E04020C4F2020086421ED0582017E0EB
:1036500040F24040C4F20200864216D040F2584088
:103660000EE0A020C4F2020086420ED0B82007E08F
:1036700040F2B840C4F20200864206D040F2A040B8
:10368000C4F20200864240F0948026686FF01C026B
:10369000306810403060012000FA01F16960606517
:1036A00084F835000020E16C84F8340000297FF4B0
:1036B00050AF47E09F20C4F20200864255DC7020E4
:1036C000C4F20200864263D088205DE040F29F4051
:1036D000C4F2020086424FDC40F27040C4F20200A5
:1036E000864255D040F288404EE04020C4F20200AD
:1036F00086421DD0582017E040F24040C4F202003C
:10370000864215D040F258400EE0A020C4F20200DC
:1037100086420DD0B82007E040F2B840C4F2020063
:10372000864205D040F2A040C4F20200864243D156
:1037300026686FF00801306808403060216C00296D
:103740007FF407AF01B0BDE8F0834020C4F202006F
:1037500086421DD0582017E040F24040C4F20200DB
:10376000864215D040F258400EE0A020C4F202007C
:1037700086420DD0B82007E040F2B840C4F2020003
:10378000864205D040F2A040C4F20200864216D123
:1037900026686FF01401306808403060012084F81A
:1037A0003500002084F83400E16B00297FF4D1AEAD
:1037B000C8E76FF00E026BE76FF00401BBE76FF034
:1037C0000A01E8E7000000002DE9F04381B004465B
:1037D00000F04AFE002C00F0738140F26F4805466D
:1037E0002068C4F20208404515DC9F21C4F20201A2
:1037F00088422BDC5721C4F20201884251DC10219F
:10380000C4F2020188427AD02821C4F2020188421F
:1038100075D040216EE045F22F41C5F60201884285
:1038200027DC40F2B741C4F20201884245DC40F295
:103830007041C4F20201884261D040F28841C4F272
:10384000020188425BD040F2A04153E040F22741A0
:10385000C4F2020188423FDCA021C4F20201884286
:103860004DD0B821C4F20201884248D040F2104144
:1038700040E045F26B41C5F60201884200F39080BA
:1038800045F23041C5F60201884200F09C8045F2C5
:103890004441C5F60201884200F0958045F2584146
:1038A0008CE05821C4F20201884228D07021C4F271
:1038B0000201884223D088211CE040F2B841C4F2C2
:1038C000020188421BD045F20841C5F60201884238
:1038D00079D045F21C4171E040F22841C4F2020166
:1038E00088420CD040F24041C4F20201884206D026
:1038F00040F25841C4F20201884240F0118240F285
:103900000F420221C4F2020284F8351090424FF0B7
:10391000000184F8341012DC6F21C4F202018842E5
:1039200020DC3F21C4F20201884200F39180102183
:10393000C4F20201884200F0B0802821A7E040458F
:103940001EDC40F23F41C4F20201884200F387804E
:1039500040F21041C4F20201884200F09E8040F221
:10396000284194E09F21C4F20201884200F3808044
:103970007021C4F20201884200F08F80882186E025
:1039800040F29F41C4F20201884278DC40F270416B
:10399000C4F20201884200F0808040F2884176E063
:1039A00045F26C41C5F6020188420CD045F28041D7
:1039B000C5F60201884206D045F29441C5F60201DF
:1039C000884240F0AD8104F1080E022084F83500F1
:1039D00000209EE80640A1F1800384F83400B3FA89
:1039E00083F320685B094029D4E90579D4E9076CA1
:1039F00005684FEA83336FF3101508BF102345EABB
:103A0000D2014AF6F8321943CAF2FD7241EADE01E8
:103A10004CF6CD4341EAD701024441EAD901CCF644
:103A2000CC4341EAD601A2FB032341EA1C11016009
:103A30006FF0030000EA9300E0652046FDF740FCCC
:103A4000E16D012201F01F0102FA01F141609BE0EA
:103A50004021C4F2020188421FD0582117E040F2F1
:103A60004041C4F20201884217D040F258410EE0B2
:103A7000A021C4F2020188420FD0B82107E040F231
:103A8000B841C4F20201884207D040F2A041C4F21A
:103A90000201884208BF206800E02068016821F028
:103AA0000101016027683868C0070DD000F0DCFC18
:103AB000401B0628F6D320206065032084F83500DB
:103AC000012001B0BDE8F08348F23F0104F1080590
:103AD0003868CFF6106108402ECD0843A169104325
:103AE000E2691843236A0543606A2943042841EACE
:103AF000020141EA030103D1D4E90B231143194325
:103B000041F20002C5F600421268B2F1005F17D31D
:103B10006268A2F12903202B06D23F25CCF2C035E2
:103B200025FA03F3DB0706D1A2F14F030022042B91
:103B300038BF012200E00122002A18BF41F48011A1
:103B400039600428796921F0070141EA000510D1A4
:103B5000D4E90A1045EA010558B12046FDF710FDE9
:103B600038B140206065012084F8350001B0BDE81F
:103B7000F08320467D61FDF7A3FBE16D3F2201F05C
:103B80001F0102FA01F181602068404519DC9F2184
:103B9000C4F20201884231DC5721C4F2020188429A
:103BA00056DC1021C4F20201884200F091802821E5
:103BB000C4F20201884200F08B804021C4F202016D
:103BC00084E045F22F41C5F6020188422BDC40F229
:103BD000B741C4F20201884248DC40F27041C4F2AD
:103BE0000201884274D040F28841C4F20201884246
:103BF0006ED040F2A041C4F2020167E040F22741DA
:103C0000C4F20201884240DCA021C4F202018842D1
:103C10005ED0B821C4F20201884259D040F210416E
:103C2000C4F2020152E045F26B41C5F6020188423E
:103C30003CDC45F23041C5F60201884248D045F2ED
:103C40004441C5F60201884242D045F258413BE06A
:103C50005821C4F2020188423AD07021C4F2020114
:103C6000884235D08821C4F202012FE040F2B841E9
:103C7000C4F2020188422BD045F20841C5F6020188
:103C8000884225D045F21C411EE040F22841C4F292
:103C9000020188421CD040F24041C4F20201884235
:103CA00016D040F25841C4F202010FE045F26C41D7
:103CB000C5F6020188420BD045F29441C5F60201D7
:103CC000884205D045F28041C5F6020188421FD1E5
:103CD0002046FDF785FBA068802801D100206060A8
:103CE00004F160036068C7B201380ECB07280F608B
:103CF000536009D82046FDF7EBFB04F16C0200236A
:103D000007CA03604A6003E000206067C4E91B0043
:103D100000206065012184F8351001B0BDE8F08312
:103D20004020C9E600000000F0B581B0A8B3044609
:103D300090F83400012802D1022001B0F0BD01202A
:103D400084F8340094F83500012820D1022084F84A
:103D500035000020606540F20F462068C4F202067C
:103D600040F26F47B042C4F2020719DC6F25C4F27B
:103D70000205A84225DC3F25C4F20205A8423BDC2F
:103D80001025C4F20205A8425BD0282553E04FF469
:103D900000606065002084F83400012001B0F0BDAF
:103DA000B8421ADC40F23F45C4F20205A8422ADCC0
:103DB00040F21045C4F20205A84242D040F2284524
:103DC00039E09F25C4F20205A84225DC7025C4F223
:103DD0000205A84235D088252DE040F29F45C4F267
:103DE0000205A8421FDC40F27045C4F20205A84259
:103DF00027D040F288451EE04025C4F20205A842C3
:103E00001FD0582517E040F24045C4F20205A842F1
:103E100017D040F258450EE0A025C4F20205A84292
:103E20000FD0B82507E040F2B845C4F20205A84219
:103E300007D040F2A045C4F20205A84208BF20689E
:103E400000E02068056825F0010505602046FDF7C3
:103E5000BFFB2068B04210DC6F21C4F2020188422F
:103E60001CDC3F21C4F20201884232DC1021C4F282
:103E70000201884251D028214AE0B8421ADC40F2BF
:103E80003F41C4F2020188422ADC40F21041C4F2F0
:103E90000201884241D040F2284139E09F21C4F21A
:103EA0000201884225DC7021C4F20201884234D02C
:103EB00088212DE040F29F41C4F2020188421FDCBC
:103EC00040F27041C4F20201884226D040F288419B
:103ED0001EE04021C4F2020188421ED0582117E0A2
:103EE00040F24041C4F20201884216D040F25841EB
:103EF0000EE0A021C4F2020188420ED0B82107E0F2
:103F000040F2B841C4F20201884206D040F2A0411A
:103F1000C4F20201884240F0298121680B25226CFD
:103F20000B6865F344030B601AB10A6842F008029B
:103F30000A60B84219DC9F21C4F20201884231DCD8
:103F40005721C4F20201884256DC1021C4F202015A
:103F5000884200F091802821C4F20201884200F0DA
:103F60008B804021C4F2020184E045F22F41C5F666
:103F7000020188422BDC40F2B741C4F202018842C0
:103F800048DC40F27041C4F20201884274D040F231
:103F90008841C4F2020188426ED040F2A041C4F2CE
:103FA000020167E040F22741C4F20201884240DC8E
:103FB000A021C4F2020188425ED0B821C4F20201FD
:103FC000884259D040F21041C4F2020152E045F259
:103FD0006B41C5F6020188423CDC45F23041C5F632
:103FE0000201884248D045F24441C5F602018842A8
:103FF00042D045F258413BE05821C4F202018842C8
:104000003AD07021C4F20201884235D08821C4F22E
:1040100002012FE040F2B841C4F2020188422BD0E5
:1040200045F20841C5F60201884225D045F21C41FF
:104030001EE040F22841C4F2020188421CD040F246
:104040004041C4F20201884216D040F25841C4F205
:1040500002010FE045F26C41C5F6020188420BD027
:1040600045F29441C5F60201884205D045F28041EF
:10407000C5F60201884272D1216E0A68D20303D5C7
:104080000A6842F480720A60E16E19B10A6842F46B
:1040900080720A60B04210DC6F21C4F202018842D3
:1040A0001CDC3F21C4F20201884232DC1021C4F240
:1040B0000201884252D028214AE0B8421ADC40F27C
:1040C0003F41C4F2020188422ADC40F21041C4F2AE
:1040D0000201884242D040F2284139E09F21C4F2D7
:1040E0000201884225DC7021C4F20201884235D0E9
:1040F00088212DE040F29F41C4F2020188421FDC7A
:1041000040F27041C4F20201884227D040F2884157
:104110001EE04021C4F2020188421FD0582117E05E
:1041200040F24041C4F20201884217D040F25841A7
:104130000EE0A021C4F2020188420FD0B82107E0AE
:1041400040F2B841C4F20201884207D040F2A041D7
:10415000C4F20201884208BF206800E020680168BC
:1041600041F001010160002001B0F0BD216805258A
:10417000226C0B68002A65F343030B603FF4D9AE51
:104180000A6842F00402D3E62DE9F04F82B000291C
:1041900000F0818000F1264342F2004703F1FF73F3
:1041A000C5F602074FEAB32201920A22B84208BFBD
:1041B0000922002400270125009229E06FF0030363
:1041C000032203EA5903066802FA04FE034446EA9E
:1041D0000E06066007F01C060F2202FA06FC1E6A95
:1041E00026EA0C061E62C36823EA0E03C360436816
:1041F00023EA08034360836823EA0E02826031FAEF
:1042000005F205F1010507F1040704F1020442D0AB
:10421000A5F10109012202FA09F818EA010EEED00F
:10422000019ADDF800C0092A4FEA990A38BF94467E
:1042300040F2084207F00C06C5F600020F2303FA0D
:1042400006FB52F82A200CFA06F602EA0B02B242EA
:10425000B4D10423C5F60003DA6F22EA0E02DA674E
:10426000D3F8802022EA0E02C3F880201A6822EADE
:104270000E021A604FF0B0431A6822EA0E021A606A
:1042800040F20843C5F6000353F82A2022EA0B0245
:1042900043F82A2092E702B0BDE8F08F000000004A
:1042A0002DE9F04F83B00C68002C00F0C78000F1BE
:1042B000264242F2004702F1FF72C5F602074FEABA
:1042C000B22201920A22B84208BF09220025002723
:1042D0004FF00108009209E00C68043734FA08F244
:1042E00008F1010805F1020500F0A880A8F1010A13
:1042F000012202FA0AFE14EA0E09EDD0D1F804B048
:104300000BF00304A4F1010CBCF1010F11D803223E
:104310008668AA40CB6826EA0202AB401A43826054
:10432000CBF30013426822EA0E0203FA0AF31A439F
:104330004260032C02D18A68012A08D00323C26894
:10434000AB408E689A4306FA05F31A43C260022C0A
:1043500011D16FF0030207F01C0602EA5A020F2384
:10436000024403FA06F4D2F820C00B692CEA0404D4
:10437000B3402343136203230268AB404E689A4361
:1043800006F00303AB4016F4403F42EA030202602A
:10439000A2D044F2F44340F2084EC5F60203C5F63B
:1043A000000E1A6842F002021A601A6807F00C0345
:1043B00002F002020292029A2AF00302019C009E7D
:1043C000092C38BF26460F2452F80EC09C402CEA18
:1043D000040406FA03F34FF0B04C234342F80E30C6
:1043E000DCF800204B6842EA0906DC0258BF22EAEA
:1043F00009069C02CCF8006040F2040CC5F6000CE3
:10440000DCF8002042EA090658BF22EA09069C03AC
:10441000CCF80060DCF8802042EA090658BF22EAA6
:104420000906DB03CCF88060DCF87C2042EA090650
:1044300058BF22EA0906CCF87C604DE703B0BDE81E
:10444000F08F000000000000002A08BF090481610D
:10445000704700000000000041F20000C5F6004077
:104460000068000C704700004AF24850C2F2004059
:10447000006870470000000041F20C004AF2485109
:10448000C2F20040C2F2004100780A68104408609D
:10449000704700000000000080B5032000F0D4F851
:1044A00001F0FAFA44F218414AF2EC43C5F602016F
:1044B000C0F600030A68096801F00F01C2F3032285
:1044C000595C9A5C01F01F0102F01F02D04041F2DA
:1044D0000802C2F2004220FA01F1116041F2040127
:1044E000C2F2004108600F2000F00AF800281CBF4B
:1044F000012080BD00F080F8002080BD0000000099
:10450000B0B541F20C01C2F20041097801B3044692
:1045100041F20400C2F200404FF47A72B2FBF1F1B2
:104520000068B0FBF1F001F07FFE0F2C4FF00105A9
:104530000CD858B94FF0FF3000222146002500F07A
:1045400073F841F21000C2F2004004602846B0BD8A
:104550000120B0BD0000000010B54EF6A05E41780D
:10456000CEF2000E90F800C04EF8081CDEF80010E5
:1045700021F00101CEF8001041684EF8041C017BC7
:10458000C37A827A447B1B0643EA0171837B41EA4A
:10459000C241C27B41EA8441447A41EA4341007A04
:1045A00041EA024141EA042141EA400040EA0C00AC
:1045B000CEF8000010BD00004EF62450CEF20000F0
:1045C000BFF35F8F016821F4803101600021016732
:1045D00070470000000000004EF6245140F001003A
:1045E000CEF200010867086840F480300860BFF32D
:1045F0004F8FBFF36F8F704781B044F2F440C5F620
:104600000200016841F002010160006800F0020050
:104610000090009801B0704780B504F0B1FE80BDF5
:1046200080B504F0C1FE80BD70B514460D46064647
:1046300004F0CAFE2946224603F056F901463046E8
:1046400004F0CAFE70BD000080B504F0D9FE80BD44
:10465000B0B544F60C05C5F6020529684907296876
:1046600005D401F00701081A18BF0120B0BD21F0E0
:10467000070108432860FFF7F7FE044655F8080CC9
:10468000800407D4FFF7F0FE001BB0F57A7FF5D960
:104690000120B0BD0020B0BD80B501F0ADF944F2FD
:1046A00020414AF2EC42C5F60201C0F60002096858
:1046B000C1F30211515C01F01F01C84080BD000030
:1046C00080B544F2304EC5F6020E5EF8083C5EF846
:1046D000081CC1F3051C5EF8041CBCF1000FDEF8D9
:1046E000042016D0C2F3CC0201F00101514303F0C3
:1046F0000303022B00EE101AB8EE400A0ED0012B75
:104700000FD01BB95EF8301C89060DD49FED341A0A
:1047100018E000218160C0E9001180BD9FED2F1AD3
:1047200010E09FED2D1A0DE05EF8301C49F20002FA
:10473000C0F2D032C1F3C10122FA01F101EE101A28
:10474000B8EE411ADEF800109FED263A6FF35F21B4
:1047500002EE101ADEF80010C1F34621B8EE422A2C
:1047600000EE032A00EE10CAB7EE003AB8EE400A97
:1047700081EE000A32EE031A02EE101AB8EE422A57
:1047800020EE010A32EE031A80EE011ABCEEC11AC5
:1047900080ED001ADEF80010C1F3064101EE101A98
:1047A000B8EE411A31EE031A80EE011ABCEEC11ABE
:1047B00080ED011ADEF80010C1F3066101EE101A57
:1047C000B8EE411A31EE031A80EE010ABCEEC00ABF
:1047D00010EE101A816080BD0024744A20BCBE4BCC
:1047E0000024744C0000003980B544F2384EC5F600
:1047F000020E5EF8103C5EF8101CC1F3053C5EF83A
:104800000C1CBCF1000FDEF8042014D0C1F3001121
:10481000C2F3CC02514300EE101A03F00301022947
:10482000B8EE400A0CD071B95EF8381C89060DD478
:104830009FED341A18E000218160C0E9001180BDAD
:104840009FED2F1A10E09FED2D1A0DE05EF8381C39
:1048500049F20002C0F2D032C1F3C10122FA01F1E3
:1048600001EE101AB8EE411ADEF800109FED263A5C
:104870006FF35F2102EE101ADEF80010C1F346213B
:10488000B8EE422A00EE032A00EE10CAB7EE003A54
:10489000B8EE400A81EE000A32EE031A02EE101A58
:1048A000B8EE422A20EE010A32EE031A80EE011A17
:1048B000BCEEC11A80ED001ADEF80010C1F306410B
:1048C00001EE101AB8EE411A31EE031A80EE011A09
:1048D000BCEEC11A80ED011ADEF80010C1F30661CA
:1048E00001EE101AB8EE411A31EE031A80EE010AF9
:1048F000BCEEC00A10EE101A816080BD0024744A1C
:1049000020BCBE4B0024744C0000003900000000A5
:1049100080B544F2404EC5F6020E5EF8183C5EF8D3
:10492000181CC1F3055C5EF8141CBCF1000FDEF826
:10493000042014D0C1F30021C2F3CC02514300EE95
:10494000101A03F003010229B8EE400A0CD071B925
:104950005EF8401C89060DD49FED341A18E0002142
:104960008160C0E9001180BD9FED2F1A10E09FED1E
:104970002D1A0DE05EF8401C49F20002C0F2D03260
:10498000C1F3C10122FA01F101EE101AB8EE411A89
:10499000DEF800109FED263A6FF35F2102EE101A49
:1049A000DEF80010C1F34621B8EE422A00EE032AD9
:1049B00000EE10CAB7EE003AB8EE400A81EE000AE7
:1049C00032EE031A02EE101AB8EE422A20EE010A65
:1049D00032EE031A80EE011ABCEEC11A80ED001A05
:1049E000DEF80010C1F3064101EE101AB8EE411ACC
:1049F00031EE031A80EE011ABCEEC11A80ED011AE5
:104A0000DEF80010C1F3066101EE101AB8EE411A8B
:104A100031EE031A80EE010ABCEEC00A10EE101A45
:104A2000816080BD0024744A20BCBE4B0024744CBD
:104A3000000000390000000080B584B0024641F655
:104A4000FF7300209B1A70EB010329DB40F2FF3358
:104A50009B1A70EB01034FDA82F480630B4300F082
:104A6000AD8082F400630B4300F0BB8082F480527F
:104A7000114340F07A8144F20041C5F60201086D0D
:104A8000C0F30232042A00F25D8148F20000C0F255
:104A9000BB00DFE812F0B900E000E7006A01F000B7
:104AA00047F6FF739B1A70EB010343DA82F400436D
:104AB0000B4300F0AD8082F480330B4300F0C080E4
:104AC00082F40022114340F0508144F20040C5F6C8
:104AD0000200816D01F44031B1F5003F00F01A8110
:104AE000B1F5803F00F02281002940F02B81006861
:104AF000000140F12781B1E082F480730B4335D08F
:104B000082F40072114340F0308144F20041C5F656
:104B10000201086DC0F38212042A00F2138148F2E8
:104B20000000C0F2BB00DFE812F06F0096009D00AD
:104B30002001A60082F400530B432CD082F4804263
:104B4000114340F0128144F20040C5F60200816D2D
:104B5000C1F30271052900F2F580DFE801F003AC32
:104B6000B3BAC86AFFF798FD04B080BD44F20041B3
:104B7000C5F60201086D00F00702042A00F2E28087
:104B800048F20000C0F2BB00DFE812F03E00650012
:104B90006C00EF00750044F20040C5F60200016DA4
:104BA000C1F30241052900F2CD80DFE801F0038462
:104BB0008B92A04200F048FF04B080BD44F2004157
:104BC000C5F60201886DC0F34252042A00F2BA8091
:104BD00048F20000C0F2BB00DFE802F0163D44C717
:104BE0004D0044F20041C5F60201886DC0F3026237
:104BF000042A00F2A78048F20000C0F2BB00DFE800
:104C000002F0032A31B43A00086880017CD499E0AC
:104C100044F20040C5F60200016D01F04051B1F1CF
:104C2000005F00F08C80B1F1805F6AD0002940F015
:104C30008980006847F640018003C0F27D115CE086
:104C400044F20040C5F60200C16C0068C9032CD4D0
:104C5000800177D558E00868000173D501A8FFF7F7
:104C6000C3FD05E0086880006CD501A8FFF750FE81
:104C7000019804B080BDC86C0B6810F04052086801
:104C800002D113F0040328D1B2F1805F02D110F4F5
:104C9000807060D1086810F400301CBF47F64000F7
:104CA000C0F27D10B2F1005F6BE000014AD501A8AF
:104CB000FFF79AFD40E00068000143D501A8FFF727
:104CC00093FD24E0006880003CD501A8FFF720FE9A
:104CD0001DE00168490735D50068C0F3C10049F2FD
:104CE0000001C0F2D03121FA00F004B080BD0068AC
:104CF00040F60011C005C0F23D0101EAE07004B0C9
:104D000080BD006880011DD501A8FFF7D9FC02987D
:104D100004B080BDC16C036811F04051026814D129
:104D200013F0040311D0C2F3C100D8E7006880007B
:104D300008D501A8FFF7ECFD039804B080BD00681A
:104D400000010ED4002004B080BDB1F1805F0ED10F
:104D500012F480720BD040F60010C0F23D0004B097
:104D600080BD01A8FFF740FD029804B080BD006837
:104D700010F400301CBF47F64000C0F27D10B1F1C6
:104D8000005F18BF002004B080BD000000000000DC
:104D90002DE9F04381B00446C07844F22C49000765
:104DA000C5F6020901D400252EE0A06E4FEA30506E
:104DB00003280DD80025DFE800F0020E1714D9F8FB
:104DC0000000002540F40030C9F8000055B913E098
:104DD00001253DB910E004F10800022102F0A0FD18
:104DE00005464DB1A84611E004F12800022102F069
:104DF00027FE0546002DF5D1D9F82400A16E20F438
:104E000040100843C9F824004FF000086078C0073C
:104E100030D0A06D042807D8DFE800F00A131C0387
:104E20000300FDB1A84625E00125002DFAD119E0C7
:104E3000D9F8000040F40030C9F80000002DF1D18D
:104E400010E004F10800002102F06AFD0546002D83
:104E5000E8D107E004F12800002102F0F1FD054649
:104E6000002DDFD1D9F82400A16D20F00700084300
:104E7000C9F824006078800732D5E06D4FEAB010A1
:104E8000042807D8DFE800F00A131C030300FDB173
:104E9000A84625E00125002DFAD119E0D9F8000037
:104EA00040F40030C9F80000002DF1D110E004F109
:104EB0000800002102F034FD0546002DE8D107E08E
:104EC00004F12800002102F0BBFD0546002DDFD1D2
:104ED000D9F82400E16D20F4E0700843C9F82400FB
:104EE0006078400734D5D4F8A8004FEA7050042801
:104EF00007D8DFE800F00A131C030300FDB1A84641
:104F000026E00125002DFAD119E0D9F8000040F47F
:104F10000030C9F80000002DF1D110E004F10800C4
:104F2000002102F0FDFC0546002DE8D107E004F168
:104F30002800002102F084FD0546002DDFD1D9F8BC
:104F40002C00D4F8A81020F460000843C9F82C0005
:104F50006078000734D5D4F8AC004FEA30600428FC
:104F600007D8DFE800F00A131C030300FDB1A846D0
:104F700026E00125002DFAD119E0D9F8000040F40F
:104F80000030C9F80000002DF1D110E004F1080054
:104F9000002102F0C5FC0546002DE8D107E004F130
:104FA0002800002102F04CFD0546002DDFD1D9F884
:104FB0002C00D4F8AC1020F0E0600843C9F82C00B5
:104FC000E078800728D5E06C4FEA3010032806D837
:104FD000DFE800F002091202B5B1A8461CE0012585
:104FE000002DFAD110E0D9F8000040F40030C9F8E3
:104FF0000000002DF1D107E004F10800022102F0C9
:105000008FFC0546002DE8D1D9F82000E16C20F096
:1050100030000843C9F820006078C00632D5206E01
:105020004FEA3030042807D8DFE800F00A131C03E9
:105030000300FDB1A84625E00125002DFAD119E0B5
:10504000D9F8000040F40030C9F80000002DF1D17B
:1050500010E004F10800002102F062FC0546002D7A
:10506000E8D107E004F12800002102F0E9FC054640
:10507000002DDFD1D9F82400216E20F4E040084350
:10508000C9F824006078800626D5606E4FEA30406B
:10509000052807D8DFE800F0030A100303039DB1D9
:1050A000A84619E00125002DFAD10DE004F1080011
:1050B000012102F035FC04E004F12800012102F096
:1050C000BFFC0546002DEBD1D9F82400616E20F419
:1050D000E0200843C9F824006078400628D5D4F8B9
:1050E000B0004FEA3070052807D8DFE800F0030A67
:1050F000100303039DB1A8461AE00125002DFAD143
:105100000DE004F10800012102F00AFC04E004F1C2
:105110002800012102F094FC0546002DEBD1D9F8BE
:105120002C00D4F8B01020F0E0400843C9F82C005F
:105130006078000620D5206FD8B1B0F1005F12D0A2
:10514000B0F1805F25D1D9F8000040F40030C9F8F3
:10515000000085B9D9F82400216F20F040500843A1
:10516000C9F8240008E004F10800012102F0D8FB8E
:105170000546002DEED0A846E078C0072AD0A06CE6
:1051800003280AD8DFE800F0020D1602D5B1A846C0
:1051900020E00125002DEED1DCE70125002DF6D120
:1051A00010E0D9F8000040F40030C9F80000002DEC
:1051B000EDD107E004F10800022102F0B1FB054641
:1051C000002DE4D1D9F82000A16C20F003000843A1
:1051D000C9F82000A078400642D5D9F8D40340F49D
:1051E0008070C9F8D403FFF73FF90646D9F8D40315
:1051F000C00505D4FFF738F9801B6528F6D30325D1
:105200006DBBD9F84410D4F8B400414011F4407F8C
:1052100011D0D9F84410D9F8442042F48032C9F8AA
:105220004420D9F8442021F4407122F48032C9F896
:105230004420C9F84410B0F5807F0FD1FFF714F96E
:10524000064641F2893700BFD9F84400800705D4EB
:10525000FFF70AF9801BB842F6D3032585B1A846AB
:105260002078C00742D0E06F4FEAF000052823D82D
:10527000DFE800F003262C0303037DB3A84635E0E6
:105280004FF6CF73D4F8B40059F81C2CC0F2FF03CA
:1052900000F4407122F47C5203EA1013B1F5407F10
:1052A00008BF1A436FF31F3049F81C2CD9F844107B
:1052B0000843C9F84400D3E70125002DDED10DE0F5
:1052C00004F10800012102F02BFB04E004F12800A6
:1052D000012102F0B5FB0546002DCFD1D9F82800F9
:1052E000E16F20F038000843C9F8280020788007D3
:1052F00024D5A06F052807D8DFE800F0030A1003C3
:1053000003039DB1A84619E00125002DFAD10DE057
:1053100004F10800012102F003FB04E004F128007D
:10532000012102F08DFB0546002DEBD1D9F82800B4
:10533000A16F20F007000843C9F828002078400733
:1053400026D5D4F89400052807D8DFE800F0030A32
:10535000100303039DB1A8461AE00125002DFAD1E0
:105360000DE004F10800012102F0DAFA04E004F192
:105370002800012102F064FB0546002DEBD1D9F88D
:105380002C00D4F8941020F007000843C9F82C0032
:105390002078800628D5D4F890004FEA3070052890
:1053A00007D8DFE800F0030A100303039DB1A84605
:1053B0001AE00125002DFAD10DE004F108000021CA
:1053C00002F0AEFA04E004F12800022102F038FBFA
:1053D0000546002DEBD1D9F82800D4F8901020F024
:1053E000E0400843C9F828002078400628D5D4F8C2
:1053F0009C004FEAB020052807D8DFE800F0030A38
:10540000100303039DB1A8461AE00125002DFAD12F
:105410000DE004F10800002102F082FA04E004F13A
:105420002800022102F00CFB0546002DEBD1D9F833
:105430002C00D4F89C1020F4E0500843C9F82C004C
:105440002078000628D5D4F8A0004FEA703005284F
:1054500007D8DFE800F0030A100303039DB1A84654
:105460001AE00125002DFAD10DE004F10800002119
:1054700002F056FA04E004F12800022102F0E0FAFA
:105480000546002DEBD1D9F82C00D4F8A01020F45B
:1054900060400843C9F82C002078000716D5D4F8DE
:1054A0008400B0F5805F08D104F12800022102F0E9
:1054B000C7FA002818BF4FF00108D9F82800D4F81F
:1054C000841020F440500843C9F828002078C00612
:1054D00016D5D4F89800B0F5807F08D104F12800E3
:1054E000022102F0ADFA002818BF4FF00108D9F8E8
:1054F0002C00D4F8981020F440700843C9F82C0010
:10550000A078000722D5D4F8A400B0F5003F1AD047
:10551000B0F5803F11D0C8BB04F10800002102F0B3
:10552000FFF905468DB9D9F82C00D4F8A41020F461
:1055300040300843C9F82C0008E004F1280002219B
:1055400002F07EFA0546002DEDD0A846A07840076F
:1055500029D5D4F88800B0F5401F21D0B0F5001F40
:1055600018D0B0F5801F40F0BF80D9F8000040F49B
:105570000030C9F80000ADB9D9F82800D4F8881077
:1055800020F440100843C9F828000CE00125002D44
:10559000DBD1C8E704F12800012102F051FA0546E9
:1055A000002DE9D0A846A078C00720D0206DB0F526
:1055B000803F10D0B8B9D9F8000040F40030C9F8E5
:1055C00000009DB9D9F82000216D20F480300843F7
:1055D000C9F820000BE004F10800022102F0A0F954
:1055E00005461DB9EEE70125002DEBD0A846E07871
:1055F000800608D504F12800022102F021FA0028D3
:1056000018BF4FF00108D4E900108A037BD5D4F805
:1056100080206FF0010303EB3223022B0AD34FEA01
:1056200032233BB1012B64D1D9F8003043F400336D
:10563000C9F80030002D5FD0CA0267D4CA006FD409
:105640008A0279D44A0000F18280B1F1FF3F40F331
:105650008F80090200F19780C00707D004F108008D
:10566000002102F05DF9002818BF05462079800767
:1056700007D504F10800012102F052F9002818BFF3
:1056800005462079400707D504F10800022102F001
:1056900047F9002818BF05462079000707D504F10F
:1056A0002800002102F0CCF9002818BF0546207917
:1056B000C00607D504F12800012102F0C1F9002835
:1056C00018BF05462079800607D504F1280002217D
:1056D00002F0B6F9002818BF0125002D18BF0125DA
:1056E000284601B0BDE8F0830125002D7FF45AAFB4
:1056F00042E70125002D9FD1D9F8283023F44073CB
:105700001A43C9F828204546CA0297D5D9F824205B
:10571000636F22F000421A43C9F82420CA008FD5D3
:1057200059F81C2CD4F8B83022F480421A4349F8B6
:105730001C2C8A027FF586AFD9F82420E36E22F074
:1057400080721A43C9F824204A007FF57EAF59F8C9
:105750001C2C22F4004249F81C2CD4F8BC2059F827
:105760001C3C1A4349F81C2CB1F1FF3F3FF771AFC5
:10577000D9F82020636D22F040521A43C9F8202046
:1057800009027FF569AFD9F82810D4F88C2021F4EC
:1057900040011143C9F82810C0077FF45FAF65E7E7
:1057A0002DE9F04381B0002800F0F48042F20008B7
:1057B0000446C5F200288946D8F8000000F00F0022
:1057C00088420ED2D8F8000020F00F0040EA09000D
:1057D000C8F80000D8F8000000F00F00484540F07D
:1057E000D980206844F218474107C5F602070AD558
:1057F00021693A6802F07002914204D93A6822F0B5
:1058000070021143396001070AD561697A6802F0B4
:105810007002914204D97A6822F0700211437960D3
:10582000C1060AD5A1697A6802F4E062914204D9FE
:105830007A6822F4E0621143796081060AD5E16951
:10584000BA6802F07002914204D9BA6822F070027C
:105850001143B96081070AD5E1683A6802F00F0286
:10586000914204D93A6822F00F0211433960C0070F
:105870007ED1206881070AD5E1683A6802F00F02FC
:10588000914204D23A6822F00F0211433960D8F8ED
:10589000001001F00F0149450DD9D8F8001021F092
:1058A0000F0141EA0901C8F80010D8F8001001F012
:1058B0000F0149456ED141070AD521693A6802F0C6
:1058C0007002914204D23A6822F0700211433960AA
:1058D00001070AD561697A6802F07002914204D228
:1058E0007A6822F0700211437960C1060AD5A16975
:1058F0007A6802F4E062914204D27A6822F4E062AB
:105900001143796080060AD5E069B96801F0700139
:10591000884204D2B96821F070010843B86000F0F1
:10592000BBF839684AF2EC42C0F600023B68C1F3AA
:10593000032103F00F03515CD25C01F01F01C8404A
:1059400002F01F0141F2080220FA01F1C2F2004206
:10595000116041F2040141F21002C2F20041C2F2B0
:10596000004208601068FEF7CBFD01B0BDE8F0838F
:10597000386820F47061D4E90102012841EA02018B
:1059800039600BD003282BD002282ED157F8181CD1
:10599000890307D4012001B0BDE8F08357F8181C33
:1059A000C905F7D557F8081C21F00701084347F847
:1059B000080CFEF759FD064641F2883557F8080CE9
:1059C000616800F03800B0EBC10F3FF452AFFEF752
:1059D0004BFD801BA842F1D9032001B0BDE8F08344
:1059E00057F8181C8901D5D5DCE757F8181C49076A
:1059F000D0D5D7E70000000080B500F04DF844F2A4
:105A000018414AF2EC43C5F60201C0F600030A68E9
:105A1000096801F00F01C2F30322595C9A5C02F09D
:105A20001F0220FA02F201F01F0041F2080122FADF
:105A300000F0C2F20041086041F20401C2F20041EC
:105A40000A6080BD0000000080B5FFF7D5FF44F27A
:105A50001C414AF2EC42C5F60201C0F60002096898
:105A6000C1F30211515C01F01F01C84080BD00006C
:105A700080B5FFF7C1FF44F21C414AF2EC42C5F683
:105A80000201C0F600020968C1F30221515C01F075
:105A90001F01C84080BD000044F20041C5F602016C
:105AA0000869C0F3C20003280FD002282AD070BBB7
:105AB0000868800649F20000C0F2D03058BF704735
:105AC0000968C1F3C101C84070478A6A886AC0F397
:105AD000051CC86ABCF1000F4B6B1DD0C3F3CC038F
