:020000042400D6
:10A0000050A19DC3800A75C2B05E9743B0DE9643EF
:10A01000408588C250A19BC34085D8C2B05E8643AC
:10A02000B0DEA243002A74C150A197C3A04215C359
:10A0300060BD6643B0DEAB4300EBDD4150A191C390
:10A04000A04243C360BD3F43B0DEB343C07A9142F8
:10A0500050A187C3A04266C360BD1343B05EB54341
:10A06000C07AE942A0426DC350A180C3C07AD142F8
:10A07000B0DEB44360BD1E43A04250C350218DC327
:10A0800080F53A42B05EB04360BD4F43A0422EC35C
:10A0900050A196C3004085BEB05EA84360BD764324
:10A0A000A04206C350A19CC3800A35C2B05E9D4346
:10A0B000B05E8B434085BEC250219EC34085B6C270
:10A0C000B05E8B43B05E9943800A55C250219CC359
:10A0D000A04207C360BD7443B0DEA34300A810C014
:10A0E000502197C3A04238C360BD4A43B05EAB4322
:10A0F00080F5264250A18EC3A0425EC360BD2043BE
:10A10000B0DEAF43C07AA742502181C3A0427DC3D5
:10A11000C07AE742B05EAF43C07AFF42A04266C356
:10A1200050A18CC380F56242B05EAB4360BD244356
:10A13000A04247C350A196C300ACF740B05EA54310
:10A1400060BD5243A04225C350A19EC3800A15C2E0
:10A15000B0DE9A4360BD74434085FEC25021A2C365
:10A160004085A8C2B05E8943B0DE87434085B2C255
:10A170005021A2C3A04203C360BD7343B05E9243AB
:10A18000800A21C250A19EC3A04236C360BD48438D
:10A19000B0DE9A430050A1BF502198C3A0425BC3D8
:10A1A00060BD1E43B0DE9F4380F50E4250A190C3B8
:10A1B000A0427EC3C07AE142B0DE9E43C07A97429D
:10A1C000502181C350A18DC380F55E42B05E9E4395
:10A1D000C07AED42A04264C3502198C300ACF7405E
:10A1E000B05E974360BD2043A04247C35021A0C347
:10A1F000800A21C2B0DE8D4360BD3F43A04226C32A
:10A2000050A1A5C34085B0C260BD7F4360BD574328
:10A21000A04204C35021A6C3A04202C360BD58435C
:10A2200060BD6C434085B0C25021A5C3A0422DC380
:10A2300060BD324360BD7B43800A59C250A1A1C3B7
:10A24000A0425AC360BD0A43B0DE82430015A2C1DA
:10A2500050219BC3A04279C3C07AC542B05E8543FA
:10A2600000D64B4150A190C350218BC380F566426C
:10A27000B05E844380F53A4250A184C3502196C316
:10A2800000ACD740B0DE8143C07AB742A04270C371
:10A2900050219EC3800A05C260BD7B43C07AF9424B
:10A2A000A04253C35021A5C3408594C260BD6A43F8
:10A2B00060BD1E43A04231C35021A8C34085E2C205
:10A2C00060BD534360BD4043A0420BC350A1A8C32F
:10A2D000A04217C360BD3B4360BD5C434085B2C232
:10A2E0005021A5C3A04243C360BD1E4360BD784357
:10A2F000800A35C250219FC3A04265C3C07AFD4287
:10A30000B0DE884300603D3F50A193C350A180C39D
:10A31000C07AB942B0DE8F4380F53A42502186C3FD
:10A3200050218FC380F52E42B0DE9343C07ABF42E6
:10A33000A0426FC350A197C300AC9740B0DE9243D8
:10A3400060BD1643A0424DC350A1A0C3800A11C2F4
:10A35000B05E8F4360BD4043A04226C350A1A3C35B
:10A36000408596C2B0DE854360BD66434085FAC233
:10A370005021A4C34085E4C260BD7543B05E8543EF
:10A3800040858EC250A1A1C3A04219C360BD5543F0
:10A39000B05E90430015FAC150A19DC3A04245C3D1
:10A3A00060BD3643B0DE9D4300D64B4150A194C3FF
:10A3B000A04267C360BD1143B0DEA54380F576427D
:10A3C00050A185C3502181C3C07AD742B0DEA843D3
:10A3D000C07AD742A0426FC350218EC380F55A4243
:10A3E000B05EA84360BD2443A0424EC3502196C333
:10A3F00000D64B41B05EA44360BD4C43A04229C38C
:10A4000050219EC30015F2C1B05E9B4360BD7643F0
:10A41000A04200C350A19FC3408590C2B0DE8F43CD
:10A42000B05E8C43408598C250A19FC34085E2C274
:10A43000B05E8243B05E9A430015F2C150219BC3C7
:10A44000A04222C360BD6143B0DEA54300D65B419C
:10A45000502195C3A04247C360BD3C43B0DEAE432C
:10A4600080F56E4250A188C3A04266C360BD14430C
:10A47000B0DEB243C07AD142A04274C350A180C3BF
:10A48000C07ABF42B0DEB24360BD1E43A04256C395
:10A4900050218DC380F54642B0DEAF4360BD4943D5
:10A4A000A04232C350A196C300ACD740B05EA943CE
:10A4B00060BD6F43A0420EC350219BC3800A11C2EE
:10A4C000B0DE9D43B0DE89434085B6C250A19CC337
:10A4D00040859EC2B0DE9043B0DE9843800A39C208
:10A4E00050219BC3A04203C3B05E8043B05EA5432E
:10A4F00000A850C0502196C3A0422AC360BD594352
:10A50000B05EB04380F5264250A18EC3A0424EC338
:10A5100060BD3243B05EB543C07AAF42A0427EC355
:10A52000A0426DC3C07AF942B0DEB64360BD0443B9
:10A53000A04262C350A184C3C07AA142B0DEB4433A
:10A5400060BD3943A04242C3502192C380F5064208
:10A55000B0DEAF4360BD5F43A04220C3502198C32B
:10A56000002A34C1B05EA543B05E83434085F0C28B
:10A5700050219CC3800A59C2B05E9843B0DE92431A
:10A58000408588C250219CC34085DCC2B0DE89432F
:10A59000B0DE9F430015BAC1502199C3A04217C332
:10A5A00060BD6E43B0DEAB4300EB9541502193C3D9
:10A5B000A0423DC360BD4643B0DEB24380F57A425F
:10A5C000502186C3A04260C360BD1A43B05EB5434C
:10A5D000C07AD542A04273C3A0427EC3C07ACB42A8
:10A5E000B0DEB44360BD1E43A04256C350218CC3AD
:10A5F00080F55242B05EB04360BD4943A04232C3D1
:10A6000050A196C300ACF740B0DEA64360BD6C43DA
:10A61000A04211C350219CC3800A1DC2B0DE9B43DF
:10A62000B0DE87434085BCC250A19EC34085AAC20C
:10A63000B0DE8D43B05E9543800A4DC250219DC36C
:10A64000A0420CC360BD7943B0DEA243002A34C1EE
:10A6500050A198C3A04234C360BD4F43B0DEA943AC
:10A6600000EBFD4150218FC3A04259C360BD24437C
:10A67000B05EAE43C07A9342502183C3A04279C3F7
:10A68000C07ADD42B05EAE43C07AFB42A0426DC3E9
:10A6900050A18BC380F57A42B05EAB4360BD2343CB
:10A6A000A0424FC3502198C300D65B41B0DEA44303
:10A6B00060BD4943A0422EC350219FC3800A05C2FA
:10A6C000B05E974360BD6843A0420AC35021A2C355
:10A6D00040859EC2B0DE8A43B05E83434085B6C2E9
:10A6E0005021A3C3A04208C360BD7343B0DE8D43B5
:10A6F000800A51C250A1A0C3A04231C360BD4B43E8
:10A70000B0DE9643002A64C150A19BC3A04259C346
:10A7100060BD2043B05E9A4300EBBD41502191C320
:10A72000A04279C3C07AD342B0DE9E43C07A87424A
:10A7300050A182C350218CC380F56A42B0DE9B4396
:10A74000C07AE742A0426CC3502197C300D61B4198
:10A75000B0DE944360BD1343A04251C35021A1C356
:10A76000800A11C2B0DE884360BD2E43A04233C3CD
:10A770005021A5C34085A6C260BD764360BD484355
:10A78000A04208C35021A7C3A04209C360BD5543DE
:10A7900060BD5C434085D0C25021A6C3A0422FC3F8
:10A7A00060BD334360BD704340858AC25021A3C35E
:10A7B000A04253C360BD0E4360BD7C43800A0DC2FE
:10A7C00050A19BC3A04273C3C07ABD42B05E814317
:10A7D0000050A1BF502194C3502186C380F55E4232
:10A7E000B0DE824380F53242502189C350A193C329
:10A7F00000D67B41B05E8143C07AA142A04277C3BC
:10A8000050219EC30015C2C160BD7A43C07AF14297
:10A81000A04258C35021A4C3408582C260BD6A4390
:10A8200060BD1943A0422EC35021A7C34085D2C2A8
:10A8300060BD5A4360BD3D43A04207C350A1A7C3BA
:10A84000A04218C360BD464360BD64434085B8C2A2
:10A8500050A1A4C3A0423DC360BD2A43B0DE8043E3
:10A86000800A35C250A19DC3A0425EC360BD0B43A8
:10A87000B0DE8B4300603D3F502195C3A0427AC3B8
:10A88000C07ABD42B0DE934380F56642502189C351
:10A8900050218CC380F56242B0DE9643C07ACF422D
:10A8A000A04271C350A197C300EB8D41B05E9843A5
:10A8B00060BD1543A0424EC350A19EC30015A2C166
:10A8C000B0DE924360BD4143A04220C350A1A2C369
:10A8D000800A79C2B05E8A4360BD64434085F2C29B
:10A8E00050A1A3C34085E4C260BD7D43B0DE824376
:10A8F0004085A2C25021A3C3A0421AC360BD6143D8
:10A90000B0DE9343800A11C250A19CC3A0423CC355
:10A9100060BD4243B05E9F4300D63B41502194C38B
:10A92000A0425CC360BD1543B0DEA64380F566421D
:10A9300050A188C3A0427AC3C07AD942B05EAA436C
:10A94000C07AE542A04273C350218DC3C07A8342CE
:10A95000B0DEAA4360BD1E43A04252C3502196C33D
:10A9600000EBBD41B0DEA54360BD4A43A0422DC30C
:10A9700050A19CC300159AC1B05E9E4360BD704358
:10A980004085F8C250219FC3800A75C2B05E9343D0
:10A99000B0DE8A434085A4C250A19EC34085E4C274
:10A9A000B05E8643B0DE9B43800A19C250219CC32F
:10A9B000A0421AC360BD6A43B0DEA64300ACB740F4
:10A9C00050A193C3A0423EC360BD3D43B0DEAE4341
:10A9D00080F5524250218AC3A0425FC360BD134339
:10A9E000B0DEB243C07AD742A04279C3A0427AC354
:10A9F000C07AD542B05EB44360BD1843A0425BC389
:10AA000050A18CC380F57A42B0DEB14360BD4243B1
:10AA1000A0423AC3502195C300EB8541B0DEA94363
:10AA200060BD6B43A04209C350A19AC30015D2C1B7
:10AA3000B05EA043B05E87434085C4C250A19CC3B2
:10AA40004085A2C2B05E9343B05E9743800A55C270
:10AA500050219BC34085F8C2B0DE8343B05EA6435D
:10AA6000002A44C1502196C3A04223C360BD624363
:10AA7000B05EAF4380F50A4250218EC3A04248C366
:10AA800060BD3143B0DEB443C07AB34250A181C34C
:10AA9000A04268C360BD0543B0DEB74360BD074355
:10AAA000A04269C350A183C3C07AB542B0DEB543AA
:10AAB00060BD3143A0424AC3502190C380F52A4271
:10AAC000B05EAF4360BD5743A0421CC350A197C3C3
:10AAD0000050A1BFB0DEA64360BD7F434085ECC2FD
:10AAE00050A19BC3800A65C2B0DE9A43B0DE8F439B
:10AAF000408598C250219CC34085CCC2B05E8C4337
:10AB0000B0DE9F43800A09C2502199C3A04210C3FE
:10AB100060BD7643B05EAA4300D60B41502193C37B
:10AB2000A04238C360BD4343B05EB04380F54E429F
:10AB300050218AC3A0425AC360BD1943B0DEB3435B
:10AB4000C07AD742A04279C3A0427FC3C07AD7421D
:10AB5000B05EB44360BD1543A0425EC350218DC3B7
:10AB600080F57642B05EAF4360BD3E43A0423DC338
:10AB700050A195C300D66B41B0DEA74360BD6343CF
:10AB8000A04210C350219CC3800A01C2B0DE9C4386
:10AB9000B05E84434085CEC250A19EC34085B4C2FE
:10ABA000B0DE8E43B0DE9443800A7DC250A19DC3C7
:10ABB000A04204C360BD7D43B0DE9F430015AAC11F
:10ABC00050A198C3A0422FC360BD4C43B05EA743C1
:10ABD00000EB9D4150A191C3A04255C360BD2143EC
:10ABE000B05EAB43C07A914250A188C3A04275C306
:10ABF000C07AE742B05EAC43C07AE342A04275C37C
:10AC000050218DC3C07A8942B05EA94360BD18430C
:10AC1000A04257C3502197C300EB9D41B0DEA14332
:10AC200060BD3B43A0422FC350219EC30015CAC143
:10AC3000B0DE974360BD5B43A0420CC35021A3C369
:10AC40004085AAC2B05E8A43B0DE80434085D0C250
:10AC500050A1A3C3A04202C360BD7443B05E8A4347
:10AC6000408586C25021A1C3A0422EC360BD4D4382
:10AC7000B05E92430015CAC150219BC3A04255C388
:10AC800060BD1B43B05E9A4300D67B41502192C306
:10AC9000A04275C3C07ADD42B0DE9A4380F57E42A1
:10ACA000502188C350A18DC380F57A42B0DE96430F
:10ACB000C07AC542A04277C3502198C300D65B41F9
:10ACC000B0DE8F4360BD0143A04254C35021A0C3F6
:10ACD0000015FAC1B05E864360BD1F43A04235C374
:10ACE0005021A5C34085AEC260BD744360BD3943E9
:10ACF000A04216C350A1A7C3A04201C360BD5443E4
:10AD000060BD54434085ECC25021A6C3A04228C375
:10AD100060BD344360BD64434085AAC250A1A3C353
:10AD2000A0424DC360BD0A4360BD7443800A45C262
:10AD300050A19DC3A0426CC3C07ACD4260BD7E438A
:10AD400000A850C0502196C3502184C3C07A8142CC
:10AD5000B0DE814380F50A4250218CC350A193C3D9
:10AD600000EBBD41B05E8243C07A9542A0427CC3F5
:10AD700050219CC3002A64C1B05E8043C07AE9427E
:10AD8000A04256C350A1A2C3408580C260BD764395
:10AD900060BD1A43A04232C350A1A6C34085D0C2B1
:10ADA00060BD644360BD4743A04208C35021A7C3B0
:10ADB000A0420FC360BD504360BD68434085BAC226
:10ADC0005021A4C3A04233C360BD2F43B0DE8443EF
:10ADD000800A39C250A19DC3A04256C360BD0F4333
:10ADE000B05E8F4300D62B4150A194C3A04275C3DF
:10ADF000C07ADB42B0DE964380F56642502189C3BB
:10AE000050218BC3C07A8D42B05E9B43C07ACF4243
:10AE1000A04274C3502195C300EBFD41B05E9A433C
:10AE200060BD1543A0424BC350A19CC3002A34C14E
:10AE3000B05E964360BD3C43A04226C350A1A1C36F
:10AE4000800A75C2B05E8F4360BD6743A04200C3F5
:10AE50005021A4C34085CCC2B05E8543B05E86431A
:10AE60004085AAC25021A2C3A0420CC360BD6D435D
:10AE7000B0DE9543800A1DC250A19CC3A04232C3DC
:10AE800060BD4343B05EA04300D67B41502195C3D3
:10AE9000A04255C360BD2043B05EA84380F57A420E
:10AEA00050A189C3A04279C3C07AF342B05EAC43DB
:10AEB000C07ADB42A04278C350218AC3C07A9D4247
:10AEC000B0DEAB4360BD1B43A0424FC350A193C350
:10AED00080F50E42B0DEA94360BD4543A0422AC3BF
:10AEE00050A199C300158AC1B05EA24360BD6C43F6
:10AEF000A04202C350A19DC3800A75C2B0DE974331
:10AF0000B05E8C434085B2C250A19EC34085CEC284
:10AF1000B0DE8A43B0DE9A43800A35C250A19AC39C
:10AF2000A0420FC360BD6A43B0DEA64300A810C0B4
:10AF300050A194C3A04234C360BD4543B05EAE434C
:10AF400080F55E4250A18BC3A0425EC360BD1E432C
:10AF5000B0DEB343C07AC742A0427EC3A0427BC3E7
:10AF6000C07AEB42B0DEB44360BD1143A04261C37E
:10AF700050A18AC3C07A9342B05EB24360BD3B43E6
:10AF8000A04238C350A193C300EBDD41B05EAC4397
:10AF900060BD6143A04213C350A199C30015E2C133
:10AFA000B05EA343B05E88434085D2C250219CC3AB
:10AFB00040858CC2B0DE9643B05E9743800A7DC266
:10AFC00050A19BC34085E2C2B05E8843B0DEA4437B
:10AFD00000159AC150A197C3A0421AC360BD5F4338
:10AFE000B05EAD4380F50A42502190C3A04240C3F9
:10AFF00060BD3A43B05EB443C07A9D4250A184C361
:10B00000A04269C360BD1143B05EB743C07AFD4240
:10B01000A0426FC350A181C3C07AC542B05EB543A0
:10B0200060BD2643A04249C350A18DC380F55A425A
:10B03000B0DEB04360BD5043A04225C3502196C34B
:10B04000005488C0B05EA94360BD76434085FCC211
:10B0500050A19AC3800A39C2B0DE9D43B0DE8F434F
:10B060004085ACC250219DC34085BAC2B05E8E43BC
:10B07000B05E9D43800A2DC250219AC3A04207C3EF
:10B0800060BD7343B05EA843004085BE50A194C329
:10B09000A0422FC360BD4A43B0DEAE4380F55642A6
:10B0A00050218CC3A0425CC360BD2243B0DEB243DA
:10B0B000C07AC142502180C3A0427CC3C07AE94219
:10B0C000B05EB34360BD0C43A04263C350A18BC3C9
:10B0D000C07A8942B0DEAF4360BD3443A0423DC375
:10B0E000502195C300D62B41B0DEA84360BD5A4322
:10B0F000A04218C350A19BC3800A0DC2B0DE9E437C
:10B10000B0DE82434085E2C250A19EC34085A4C206
:10B11000B05E9143B05E9043408590C250A19EC303
:10B120004085FAC260BD7943B05E9C43800A01C28B
:10B1300050219BC3A04229C360BD5043B05EA443CD
:10B1400000EB8D4150A194C3A04258C360BD26437B
:10B15000B0DEA84380F56E4250A18AC3A04278C3F6
:10B16000C07AF542B05EAA43C07AC742A0427BC310
:10B1700050A18BC3C07A9542B0DEA74360BD0B439C
:10B18000A0425AC350A196C300EBCD41B0DEA0430C
:10B1900060BD2F43A04238C350219EC3800A01C224
:10B1A000B0DE974360BD5643A04218C350A1A2C36E
:10B1B00040859EC2B0DE894360BD70434085E6C2D3
:10B1C0005021A5C34085FAC260BD7543B05E864379
:10B1D000408594C250A1A1C3A04229C360BD46438B
:10B1E000B0DE8F430015C2C150219DC3A0424FC3A2
:10B1F00060BD1C43B05E944300D63B4150A195C353
:10B20000A04277C3C07ADF42B05E964380F53E42EB
:10B2100050A18BC350A18BC3C07A8542B05E9343CB
:10B22000C07AA742A04278C350A196C300EB9541D3
:10B23000B0DE8C43C07AE742A0425DC350219FC379
:10B24000800A19C2B0DE834360BD1643A04241C3E9
:10B2500050A1A4C34085A0C260BD734360BD32430A
:10B26000A04223C350A1A7C34085F6C260BD54438A
:10B2700060BD4743A04203C35021A8C3A04221C3DD
:10B2800060BD314360BD5A434085ACC25021A5C367
:10B29000A04245C360BD104360BD6B43800A45C2F8
:10B2A0005021A0C3A0426CC3C07ADB4260BD7B4387
:10B2B000002A34C1502198C3502184C3C07A9342DC
:10B2C000B0DE834300EBE54150218BC3502191C395
:10B2D00080F50642B05E8443C07A8D42A04278C3B6
:10B2E00050A19AC3002A54C1B05E8443C07AE3429D
:10B2F000A04259C35021A2C3800A55C2B05E804308
:10B3000060BD2543A04233C350A1A5C34085BCC244
:10B3100060BD704360BD4A43A0420AC35021A6C32A
:10B32000A04206C360BD544360BD6E434085B8C2B1
:10B330005021A4C3A0422AC360BD3C43B0DE864373
:10B34000800A15C250219EC3A0424CC360BD1D435C
:10B35000B05E934300ACF740502195C3A04273C345
:10B36000C07AF542B05E9B4380F55A4250218AC3B1
:10B3700050A187C3C07AAB42B05EA043C07ACB4233
:10B38000A0426FC3502192C380F53242B0DE9D438C
:10B3900060BD0D43A04252C350219AC30054E8C07F
:10B3A000B05E9A4360BD3F43A0422FC35021A0C36B
:10B3B000800A41C2B0DE944360BD6943A04206C327
:10B3C0005021A3C34085B4C2B05E8743B0DE86433C
:10B3D0004085B2C250A1A1C3A04202C360BD734365
:10B3E000B05E9543800A09C250219DC3A04228C384
:10B3F00060BD5143B0DEA04300D63B4150A195C390
:10B40000A04253C360BD2B43B05EAA4380F56642A1
:10B4100050218BC3A04270C360BD0543B05EAE43F4
:10B42000C07ACD42A04274C350A185C3C07AB54250
:10B43000B0DEAE4360BD1443A04254C3502191C35B
:10B4400080F50A42B0DEAB4360BD4A43A04230C340
:10B45000502198C3002A04C1B0DEA44360BD6F43ED
:10B46000A0420AC350219DC3800A45C2B05E9B43DF
:10B47000B05E8A434085C2C250A19DC34085B8C218
:10B48000B05E8B43B0DE9843800A29C250A19BC3B3
:10B49000A04205C360BD7743B05EA54300B0DE3F68
:10B4A000502196C3A04234C360BD5043B0DEAD43CB
:10B4B00080F53A4250218EC3A04256C360BD294355
:10B4C000B05EB443C07AB742A0427EC3A04273C309
:10B4D000C07AFD42B05EB54360BD0843A0425FC381
:10B4E00050A188C3C07A8F42B0DEB34360BD3543FC
:10B4F000A0423DC3502191C300EBDD41B0DEAD431E
:10B5000060BD6443A04219C3502198C3001592C185
:10B51000B05EA543B05E85434085E2C250A19BC3A7
:10B52000800A7DC2B0DE9543B05E954340858EC2F1
:10B5300050219BC34085D4C2B05E8743B05EA24316
:10B5400000158AC1502198C3A04212C360BD684350
:10B55000B05EAC4300EBD541502191C3A04241C342
:10B5600060BD4243B05EB443C07A9142502188C36B
:10B57000A04263C360BD1743B05EB643C07AE742E2
:10B58000A0426EC3A0427FC3C07AC342B05EB6433E
:10B5900060BD1F43A0424FC350A18CC380F54E42F3
:10B5A000B0DEB14360BD5143A0422CC3502195C3CE
:10B5B00000AC9740B0DEA94360BD7843A04207C30A
:10B5C00050219BC3800A21C2B05E9C43B0DE8B43F6
:10B5D0004085C0C250219CC34085ACC2B0DE8D43C3
:10B5E000B05E9A43800A25C250A19AC3A04202C30A
:10B5F00060BD7A43B05EA54300603D3F502196C3D5
:10B60000A04234C360BD5143B05EAE4380F53242C8
:10B6100050218FC3A04257C360BD2843B0DEB3435F
:10B62000C07AB142A0427EC3A04277C3C07AF5423D
:10B63000B0DEB24360BD0143A04264C350218AC35F
:10B64000C07A8142B0DEAF4360BD2A43A04243C30B
:10B65000502194C300EB8541B0DEA84360BD59433F
:10B66000A04221C350A19CC30015E2C1B05E9F431C
:10B6700060BD7D434085F6C25021A0C3408598C27D
:10B68000B0DE8E43B0DE8C43408594C250219FC310
:10B690004085F0C260BD7D43B0DE9743800A01C2A1
:10B6A00050219CC3A0422DC360BD5343B0DEA043D4
:10B6B00000ACF74050A196C3A04253C360BD2C43D9
:10B6C000B0DEA64380F5424250A18BC3A04274C3B2
:10B6D000C07AFD42B0DEA743C07AAF42A0427DC32C
:10B6E00050218AC3C07A8742B05EA64360BD004342
:10B6F000A04261C3502196C300EB9D41B05E9F43C1
:10B7000060BD2943A04244C350A19EC30015DAC1C5
:10B71000B05E954360BD4943A04223C35021A4C3FA
:10B72000408594C2B0DE864360BD69434085F6C261
:10B730005021A5C34085F4C260BD6B43B05E824317
:10B74000408596C250A1A2C3A0422DC360BD47430D
:10B75000B0DE8943800A19C250219FC3A04254C35E
:10B7600060BD1D43B05E904300A810C050A198C3B7
:10B77000A04275C3C07AE142B0DE904380F5024238
:10B7800050A18DC350A189C380F56642B0DE8E43BF
:10B79000C07A8742502180C3502195C300D63B41D7
:10B7A000B05E8943C07AD542A04268C350A19EC30F
:10B7B000800A01C2B0DE814360BD0843A0424DC390
:10B7C00050A1A5C3408594C260BD6D4360BD2243B6
:10B7D000A0422FC35021A8C34085E4C260BD51439D
:10B7E00060BD3D43A04205C35021A8C3A0421AC377
:10B7F00060BD364360BD53434085C2C250A1A4C35F
:10B80000A04246C360BD174360BD6C43800A65C259
:10B810005021A1C3A04266C3C07AED4260BD7E4301
:10B82000002A74C1502197C3502181C3C07AA74216
:10B83000B0DE844300EBCD4150218DC350A18EC3B7
:10B8400080F50A42B0DE8743C07A9F42A0427AC3A5
:10B8500050A198C3005488C0B05E8843C07AF942B2
:10B86000A0425AC350A1A1C3800A29C2B05E854339
:10B8700060BD2743A04235C350A1A5C34085A4C2E3
:10B8800060BD794360BD4F43A04202C35021A6C3AF
:10B890004085F4C260BD624360BD75434085ACC263
:10B8A00050A1A3C3A0422AC360BD4843B05E8943F0
:10B8B000800A21C250219EC3A0424CC360BD2B43CD
:10B8C000B05E974300ACD740502194C3A0426AC3F6
:10B8D00060BD0943B0DE9E4380F55642502189C3C6
:10B8E00050A182C3C07AAF42B05EA043C07AB542D5
:10B8F000A04277C3502190C380F53A42B0DEA04306
:10B9000060BD1243A04257C350A19AC300AC9740F8
:10B91000B0DE9E4360BD3F43A04231C350A19FC3F0
:10B92000800A0DC2B05E964360BD6743A04209C362
:10B930005021A2C340859CC2B05E8B43B0DE8643DB
:10B940004085AAC250A1A0C34085EEC260BD7C4321
:10B95000B0DE9443800A1DC250219DC3A04228C37B
:10B9600060BD5A43B0DEA24300ACB74050A195C3BE
:10B97000A0424AC360BD3743B05EAB4380F54E4240
:10B9800050218AC3A04269C360BD0643B05EAF4385
:10B99000C07AC542A04279C3502182C3C07AB7425F
:10B9A000B05EB04360BD1A43A0425AC350A18EC3DB
:10B9B00080F53E42B05EAD4360BD4343A04236C316
:10B9C000502198C300AC9740B0DEA54360BD6B43E7
:10B9D000A04210C350219CC3800A19C2B05E9C4390
:10B9E000B05E88434085B8C250A19DC34085A4C2C3
:10B9F000B05E8E43B05E9743800A4DC250219BC318
:10BA0000A04206C360BD7D43B0DEA6430054E8C03B
:10BA100050A196C3A0422CC360BD5943B0DEAE43D3
:10BA200080F51A4250A18CC3A0424FC360BD33437E
:10BA3000B05EB443C07AA742502180C3A0426EC317
:10BA4000C07AFB42B0DEB54360BD0A43A04267C383
:10BA500050A183C3C07AA542B05EB54360BD3643F2
:10BA6000A04244C3502191C380F50E42B05EB04362
:10BA700060BD5E43A0421FC3502198C3002A14C179
:10BA8000B0DEA443B05E82434085DEC250A19BC3BA
:10BA9000800A55C2B0DE9943B05E924340858AC2A7
:10BAA00050A19BC34085D6C2B0DE8943B05E9F43A0
:10BAB0000015D2C1502198C3A04213C360BD734387
:10BAC000B0DEAC4300EB8D41502191C3A0423BC39B
:10BAD00060BD4B43B05EB34380F57A4250A185C34D
:10BAE000A0425EC360BD1543B05EB643C07AD54286
:10BAF000A04273C3A0427BC3C07AD342B0DEB54339
:10BB000060BD2043A04257C350218DC380F56A42D7
:10BB1000B05EB24360BD4843A04234C350A195C358
:10BB200000D65B41B0DEA94360BD6E43A0420FC3A7
:10BB300050219BC3800A01C2B0DE9D43B05E8943A1
:10BB40004085BAC250219DC34085B0C2B05E9043CB
:10BB5000B0DE9643800A51C250219CC3A04204C368
:10BB600060BD7F43B05EA543002A24C1502198C325
:10BB7000A0422DC360BD5843B05EAC4380F5024285
:10BB800050218EC3A04252C360BD2443B0DEB043F7
:10BB9000C07A9B42502182C3A04272C3C07AEF4256
:10BBA000B05EB24360BD0243A0426BC350A188C3E4
:10BBB000C07A8F42B0DEAF4360BD2943A0424CC380
:10BBC00050A195C300EBC541B05EA74360BD504393
:10BBD000A04229C350A19CC30015B2C1B0DE9D4351
:10BBE00060BD73434085F4C25021A0C3408588C224
:10BBF000B05E8F43B0DE87434085A8C25021A1C309
:10BC00004085FAC260BD7F43B0DE9343800A35C2EF
:10BC100050A19EC3A04228C360BD5943B05E9F435C
:10BC20000054C8C050A196C3A04250C360BD2F436A
:10BC3000B0DEA34380F50A4250218EC3A04272C3F6
:10BC4000C07AF342B05EA543C07AAB4250A182C332
:10BC500050A188C3C07A9542B05EA243C07AF14237
:10BC6000A0426BC3502197C300EBC541B05E9D431A
:10BC700060BD1B43A0424EC350219FC30015B2C1FB
:10BC8000B0DE934360BD4243A04220C35021A3C312
:10BC900040858AC2B0DE864360BD5D434085FCC2FC
:10BCA00050A1A5C34085FCC260BD6A4360BD764318
:10BCB0004085B0C250A1A4C3A04227C360BD464383
:10BCC000B0DE8543800A55C250219FC3A0424FC3B6
:10BCD00060BD1C43B05E8A43001592C150A198C359
:10BCE000A04270C3C07AD542B05E8B4300EB854161
:10BCF00050A18FC3502186C380F57A42B0DE8943BC
:10BD000080F56A4250A184C350A195C300EB9541D0
:10BD1000B0DE8643C07AB542A04272C350A19EC332
:10BD20000015C2C160BD7D43C07AF542A04257C331
:10BD300050A1A3C3408584C260BD694360BD164362
:10BD4000A04231C350A1A7C34085D4C260BD5543B2
:10BD500060BD3443A0420FC35021A9C3A0421AC3FF
:10BD600060BD3B4360BD55434085D0C250A1A6C3D2
:10BD7000A0423DC360BD204360BD6B43408580C28F
:10BD800050A1A0C3A0425FC3C07AF142B05E80431D
:10BD90000015AAC150A198C3A0427CC3C07AAB428F
:10BDA000B0DE874380F5064250A18DC350A18BC3FE
:10BDB00080F54242B05E8B43C07A9F42A0427CC372
:10BDC00050A198C300ACF740B0DE8B43C07AFD426F
:10BDD000A0425CC350A19FC30015FAC1B05E894365
:10BDE00060BD2943A0422DC350A1A3C340858CC28E
:10BDF000B05E824360BD5143A04204C35021A5C33D
:10BE00004085F0C260BD6F4360BD7D434085B4C2D4
:10BE100050A1A3C3A0421EC360BD5643B0DE8D43F4
:10BE2000800A29C250A19DC3A04242C360BD3643CF
:10BE3000B05E994300B0DE3F502195C3A04261C37C
:10BE400060BD0A43B05E9E4380F5524250218CC3D0
:10BE5000502180C3C07AC742B05EA343C07AC542B6
:10BE6000A0427BC350A18FC380F57242B05EA54350
:10BE700060BD1243A0425AC3502198C300EB8541D4
:10BE8000B05EA04360BD3D43A04236C350219EC377
:10BE90000015C2C1B05E9A4360BD6443A04204C3B2
:10BEA0005021A1C340859AC2B0DE8F43B05E854366
:10BEB0004085B6C250A1A0C34085EAC2B0DE82432D
:10BEC000B05E9743800A31C250A19DC3A0421CC3FB
:10BED00060BD6443B05EA3430050A1BF50A195C3B1
:10BEE000A04241C360BD3843B0DEAB4380F536426B
:10BEF00050A18BC3A04262C360BD1143B05EB0438A
:10BF0000C07AC942A0427CC3A0427DC3C07ACD4260
:10BF1000B0DEB24360BD1343A0425EC350A18DC3E7
:10BF200080F56A42B05EAE4360BD3E43A0423DC371
:10BF3000502196C300D66B41B05EA84360BD6343F9
:10BF4000A0420EC350A19BC3800A21C2B05E9F4392
:10BF5000B0DE85434085C6C250219DC34085A6C240
:10BF6000B0DE9243B0DE9743800A69C250A19CC301
:10BF70004085F8C2B05E8343B05EA543002A64C129
:10BF800050A196C3A04222C360BD5943B05EAE43E8
:10BF900000EBED4150A18EC3A04247C360BD2F43CB
:10BFA000B05EB443C07AAF42502182C3A04268C39E
:10BFB00060BD0743B05EB64360BD0343A0426AC3A1
:10BFC00050A184C3C07AB742B05EB54360BD2E4372
:10BFD000A0424BC350A18FC380F53642B0DEAF43C1
:10BFE00060BD5643A04220C3502197C3004085BE88
:10BFF000B05EA74360BD7C434085EEC250219BC329
:10C00000800A61C2B0DE9B43B05E8F43408598C218
:10C0100050219CC34085C6C2B0DE8D43B05E9F43B5
:10C02000800A11C2502199C3A0420CC360BD7A435B
:10C03000B0DEAA4300ACD74050A193C3A04234C3A2
:10C0400060BD4743B05EB14380F57A4250218AC358
:10C05000A04257C360BD1E43B0DEB543C07AD7428D
:10C06000A04279C3A0427BC3C07AE342B05EB5432D
:10C0700060BD1743A0425CC350A18BC3C07A874206
:10C08000B05EB14360BD3F43A04234C3502195C36D
:10C0900000EB9D41B05EAA4360BD6543A0420FC363
:10C0A00050A19AC3800A11C2B0DEA043B05E84439F
:10C0B0004085CEC250219DC34085A2C2B0DE9243CE
:10C0C000B05E9643800A79C250A19CC34085F8C2F5
:10C0D000B05E8243B05EA143001592C1502198C367
:10C0E000A04226C360BD5443B0DEA94300EBAD417E
:10C0F000502191C3A0424CC360BD2943B0DEAF4381
:10C10000C07A9B4250A185C3A04276C3C07AFB424D
:10C11000B05EB043C07AEF42A04271C350A189C360
:10C12000C07A9F42B0DEAD4360BD1F43A04254C3FE
:10C1300050A194C300EBFD41B05EA74360BD4543F1
:10C14000A0422AC350A19BC30015DAC1B05E9D4333
:10C1500060BD6643A04207C35021A0C3408594C27E
:10C16000B0DE9043B05E86434085BEC25021A2C37C
:10C170004085F0C2B0DE8043B0DE9143800A61C2E8
:10C1800050A19FC3A04222C360BD5B43B0DE994370
:10C19000001582C150219AC3A0424AC360BD2A4300
:10C1A000B05EA04380F50642502191C3A0426EC309
:10C1B000C07AF742B05EA143C07A8B42502186C359
:10C1C00050A18AC3C07A9B42B05E9F43C07AD742D7
:10C1D000A04274C3502196C300EBED41B05E9B4377
:10C1E00060BD1443A0424CC350A19EC300158AC138
:10C1F000B0DE914360BD3643A0422AC35021A3C3A1
:10C20000408596C2B05E854360BD5743A0420AC3D5
:10C210005021A6C34085F2C260BD6A4360BD6C4335
:10C220004085CAC25021A5C3A04223C360BD464376
:10C2300060BD7E43408584C25021A1C3A0424AC351
:10C2400060BD1643B05E84430015AAC150219BC354
:10C25000A0426AC3C07ADB42B05E864300D62B415F
:10C2600050A194C350A188C3C07A8542B05E864372
:10C2700080F52E4250A189C350A193C300EBCD415C
:10C28000B0DE8343C07A9942A04274C350A19CC3DC
:10C29000002A74C160BD7C43C07ADB42A04259C30E
:10C2A0005021A3C3408584C260BD6C4360BD0F4371
:10C2B000A04238C350A1A6C34085D4C260BD5B4331
:10C2C00060BD3643A04216C35021A8C3A04211C38B
:10C2D00060BD454360BD53434085DAC25021A6C3CB
:10C2E000A04235C360BD214360BD6C43408584C21C
:10C2F0005021A1C3A04258C360BD0243B0DE8343B6
:10C30000002A54C150A198C3A0427CC3C07AC14244
:10C31000B05E8B4380F5064250A18DC350218CC383
:10C3200080F56E42B05E9043C07AA142A0427DC3C8
:10C3300050A196C300EBA541B0DE9043C07AFF4206
:10C34000A04255C350219EC30015DAC1B05E8E4392
:10C3500060BD2A43A04231C35021A2C3408588C298
:10C36000B0DE884360BD5A43A04209C35021A4C334
:10C370004085DAC260BD7E43B05E80434085B8C26E
:10C3800050A1A2C3A04213C360BD5B43B05E8E4305
:10C39000800A3DC250219EC3A04237C360BD3A43CC
:10C3A000B05E974300603D3F50A197C3A04259C380
:10C3B00060BD1743B0DEA04380F5424250A18DC35B
:10C3C000A0427CC3C07AE342B05EA743C07AC342B6
:10C3D000A0427DC350218CC3C07A9142B05EA74376
:10C3E00060BD0E43A04256C350A195C300EBED4182
:10C3F000B0DEA44360BD3A43A04231C350A19BC309
:10C400000015B2C1B05E9E4360BD6A43A0420AC33C
:10C4100050219FC3408582C2B05E9543B05E884381
:10C420004085C2C250A19FC34085D6C2B05E88433A
:10C43000B0DE9643800A4DC250A19CC3A04213C3F4
:10C4400060BD6743B0DEA2430054E8C050A196C36C
:10C45000A04236C360BD4343B05EAC4380F54A4260
:10C4600050A18DC3A04261C360BD1A43B0DEB0438A
:10C47000C07ABD4250A180C3A0427DC3C07AE342CE
:10C48000B0DEB24360BD0C43A0425CC350218BC3FD
:10C49000C07A8D42B05EB04360BD3743A0423AC31C
:10C4A00050A194C300D66B41B0DEAA4360BD5E4389
:10C4B000A04216C350A199C30015DAC1B05EA243D1
:10C4C000B05E87434085DAC250A19CC3408590C2CC
:10C4D000B0DE9543B0DE9543408584C250A19BC336
:10C4E0004085E4C2B0DE8343B05EA3430015B2C111
:10C4F00050A197C3A0421AC360BD6143B0DEAC43F4
:10C5000080F5064250A190C3A04247C360BD3A43A4
:10C51000B0DEB243C07A9B4250A185C3A04268C33B
:10C5200060BD1143B05EB743C07AF742A04270C30A
:10C53000502181C3C07AC942B0DEB54360BD2543F6
:10C54000A0424AC350218EC380F52E42B0DEB043D4
:10C5500060BD4F43A04226C3502196C30050A1BFE7
:10C56000B0DEA94360BD7F43A04201C350219AC3FE
:10C57000800A35C2B0DE9E43B0DE8F434085AEC236
:10C5800050219CC34085B6C2B05E8D43B0DE9D4352
:10C59000800A31C250A199C3A04205C360BD774350
:10C5A000B0DEA84300D61B4150A194C3A0422CC3C7
:10C5B00060BD5043B05EB04380F5564250A18BC37E
:10C5C000A04257C360BD2543B0DEB543C07AC74221
:10C5D000502180C3A04276C3C07AF542B05EB54315
:10C5E00060BD0C43A0425DC350A189C3C07A97428D
:10C5F000B05EB24360BD3543A0423CC350A193C37B
:10C6000000EB8541B05EAB4360BD5C43A04217C305
:10C6100050219AC30015E2C1B0DEA143B0DE8543CC
:10C620004085E0C250A19DC3408594C2B05E944352
:10C63000B05E934340858EC250219DC34085F0C2B9
:10C64000B0DE8043B0DE9E430015A2C150219AC3E4
:10C65000A04220C360BD5B43B0DEA74300EBC541F1
:10C66000502193C3A04251C360BD3043B05EAD437F
:10C67000C07A874250A189C3A04272C360BD034300
:10C68000B05EAF43C07AD742A04278C350A187C3FF
:10C69000C07AA942B0DEAC4360BD1543A04254C38A
:10C6A00050A193C300EBD541B05EA64360BD3A43B1
:10C6B000A04233C350219CC30015AAC1B05E9D4364
:10C6C00060BD6243A04210C350A1A1C3408588C28F
:10C6D000B0DE9043B0DE81434085D6C250A1A1C3F5
:10C6E0004085E6C260BD7C43B0DE8D43408588C294
:10C6F00050A1A0C3A0421FC360BD5643B05E964385
:10C70000001592C150219CC3A04250C360BD2C4370
:10C71000B0DE9A4300EB9541502195C3A04272C30D
:10C72000C07AFF42B0DE9D4380F56A4250A18AC3C1
:10C73000502189C3C07AA342B0DE9D43C07AC7426C
:10C74000A04270C350A194C300EBB541B0DE984342
:10C7500060BD0743A04256C350219EC30015C2C10D
:10C76000B05E8F4360BD2D43A04236C350A1A3C32A
:10C7700040858CC2B0DE834360BD4943A04215C3EF
:10C7800050A1A6C34085EAC260BD5F4360BD5E4361
:10C790004085E8C250A1A5C3A0421EC360BD3D4371
:10C7A00060BD6F43408592C25021A3C3A04244C3E1
:10C7B00060BD184360BD7B43800A1DC250A19EC36B
:10C7C000A0426DC3C07AE342B05E81430054C8C04A
:10C7D000502197C3502184C3C07A9542B0DE834371
:10C7E00000EBED4150218BC3502191C380F50642EF
:10C7F000B0DE8243C07A8342A0427BC350219BC3F8
:10C8000000158AC160BD7E43C07ACB42A04260C39E
:10C810005021A2C3800A65C260BD744360BD11434C
:10C82000A0423FC350A1A7C34085C0C260BD6243C0
:10C8300060BD3543A0421AC35021A8C3A04208C31B
:10C8400060BD464360BD55434085D0C25021A6C35C
:10C85000A0422EC360BD2D4360BD7543800A69C2EE
:10C8600050A1A0C3A04258C360BD1043B05E864330
:10C87000002A54C1502199C3A04277C3C07AD9423B
:10C88000B0DE8F4380F50A4250218EC350A188C389
:10C89000C07A9342B0DE9443C07AA342A04279C3E7
:10C8A00050A193C300EBB541B05E9643C07AFF42FE
:10C8B000A04259C350A19BC3002A74C1B05E9443E7
:10C8C00060BD3443A04234C35021A2C3800A61C278
:10C8D000B05E8D4360BD5C43A0420BC35021A4C336
:10C8E0004085C2C2B0DE8043B05E80434085C6C290
:10C8F00050A1A3C3A04209C360BD6443B0DE8C4312
:10C90000800A41C250219FC3A0422EC360BD47434D
:10C91000B0DE994300A850C0502198C3A04259C32B
:10C9200060BD2443B05EA44380F53A4250218EC3DB
:10C93000A04275C3C07AFF42B05EA943C07AB94233
:10C94000A0427AC350A188C3C07A9342B0DEA94303
:10C9500060BD0B43A0425BC350A192C300EBED410D
:10C96000B05EA74360BD3F43A04237C350A199C307
:10C97000002A54C1B0DEA14360BD6743A04210C38A
:10C9800050219FC3800A55C2B05E9543B05E864376
:10C990004085CCC250A19FC34085C2C2B0DE88434F
:10C9A000B05E9643800A41C250A19CC3A04207C317
:10C9B00060BD7343B0DEA143005488C0502197C3CB
:10C9C000A04237C360BD4D43B0DEAC4380F5224288
:10C9D00050A18EC3A04259C360BD2543B05EB2438F
:10C9E000C07AB142A0427EC3A04275C3C07AF94268
:10C9F000B05EB34360BD0643A04263C3502189C308
:10CA0000C07A8D42B05EB24360BD2F43A04241C3A5
:10CA1000502192C300EBC541B0DEAC4360BD604322
:10CA2000A0421DC350219AC300159AC1B05EA44311
:10CA3000B05E84434085E6C250A19CC3800A79C29F
:10CA4000B05E9543B0DE9343408580C250219CC3C5
:10CA50004085D2C2B05E8743B0DEA0430015A2C1BC
:10CA600050A198C3A0421BC360BD6A43B05EAB43F4
:10CA700000EBBD41502192C3A04240C360BD44437E
:10CA8000B05EB343C07A8B42502184C3A04262C3DC
:10CA900060BD1943B05EB643C07AE342A0426FC3A3
:10CAA000A0427FC3C07AC542B05EB54360BD1E439D
:10CAB000A04251C350A18BC380F55A42B0DEB143AE
:10CAC00060BD5043A0422EC350A195C300ACD740D7
:10CAD000B05EAB4360BD7943A04207C350219BC306
:10CAE000800A15C2B05E9E43B05E8C434085C0C2D2
:10CAF00050A19CC34085A2C2B0DE8F43B0DE9A43F2
:10CB0000800A29C250219BC3A04206C360BD7E4358
:10CB1000B0DEA6430050A1BF50A195C3A0422EC3D2
:10CB200060BD5643B05EB04380F52E4250A18DC328
:10CB3000A04254C360BD2D43B05EB443C07AAF423F
:10CB4000A0427EC3A04273C3C07AF142B0DEB443B8
:10CB500060BD0443A04262C350A187C3C07A914222
:10CB6000B05EB24360BD3743A04242C3502192C37E
:10CB700000EBCD41B05EAC4360BD5D43A0421FC33E
:10CB800050219BC30015B2C1B0DEA243B05E80430A
:10CB90004085F0C250219EC3408584C2B0DE9243DE
:10CBA000B0DE8F4340858CC250219EC34085E0C2D9
:10CBB000B0DE8243B0DE9B430015E2C150A19BC3AF
:10CBC000A04225C360BD5E43B0DEA44300D63B4116
:10CBD00050A194C3A0424BC360BD3843B05EAC4388
:10CBE00080F55E4250A189C3A0426DC360BD0B4376
:10CBF000B0DEAD43C07AC342A04278C350A185C322
:10CC0000C07AA342B0DEAB4360BD1243A0425DC315
:10CC1000502192C380F50242B0DEA64360BD384386
:10CC2000A0423DC350A19CC3002A64C1B0DE9D4315
:10CC300060BD5843A0421AC35021A2C3800A7DC2DE
:10CC4000B0DE8E4360BD78434085D6C250A1A3C3F9
:10CC50004085DCC260BD7E43B0DE874340858EC226
:10CC600050A1A2C3A04223C360BD5643B0DE8F4390
:10CC7000800A05C250A19DC3A0424AC360BD2E4395
:10CC8000B0DE984300ACD740502194C3A0426EC39D
:10CC900060BD0443B0DE9C4380F54642502189C309
:10CCA000502186C3C07A9542B0DE9A43C07AA94229
:10CCB000A04279C3502193C300EBCD41B0DE944331
:10CCC00060BD0143A0425EC350A19CC30015AAC130
:10CCD000B0DE8C4360BD1F43A04241C35021A4C3BA
:10CCE000408586C260BD7C4360BD3943A04221C3FC
:10CCF0005021A7C34085DEC260BD5D4360BD4F4388
:10CD00004085F0C25021A7C3A04221C360BD3E436D
:10CD100060BD60434085AEC250A1A4C3A04245C3DC
:10CD200060BD1B4360BD7443800A55C250A1A0C3BF
:10CD3000A04267C3C07AED4260BD7E43001592C138
:10CD400050A197C350A181C3C07A9142B05E814384
:10CD500000EB8D4150A18EC350218FC300EBFD41EC
:10CD6000B0DE8243C07A8342502181C350A198C370
:10CD70000054E8C0B05E8143C07AD342A04265C38C
:10CD800050A1A1C3800A3DC260BD764360BD0F4380
:10CD9000A04242C350A1A5C34085AEC260BD664358
:10CDA00060BD3443A04214C350A1A7C34085FAC25A
:10CDB00060BD514360BD58434085D2C25021A6C3D7
:10CDC000A0422CC360BD384360BD7843800A75C261
:10CDD00050A1A1C3A0424FC360BD1C43B05E8B43B2
:10CDE000002A54C1502197C3A0426EC3C07AF742B3
:10CDF000B0DE934300EBFD4150A18CC350A184C32E
:10CE0000C07A9B42B05E9843C07AA142A0427CC3E4
:10CE1000502191C380F51642B0DE9A4360BD0943AC
:10CE2000A0425AC350219BC3005488C0B0DE98432F
:10CE300060BD3443A04236C35021A1C3800A29C239
:10CE4000B05E8F4360BD5543A0420AC350A1A3C347
:10CE50004085A8C2B0DE854360BD7A434085C2C22A
:10CE600050A1A3C3A04206C360BD7543B05E8E430C
:10CE7000800A45C25021A0C3A0422CC360BD5143CB
:10CE8000B05E9D430054A8C050A196C3A0424DC3BC
:10CE900060BD3043B0DEA54380F5224250A18CC373
:10CEA000A0426EC3C07AFD42B0DEAA43C07AAF4250
:10CEB000A0427CC350A184C3C07AAB42B0DEAB4376
:10CEC00060BD0F43A0425FC3502190C380F52E4246
:10CED000B05EAA4360BD3B43A0423AC3502199C310
:10CEE000004085BEB05EA34360BD6343A04216C34D
:10CEF00050219DC3800A2DC2B0DE9943B0DE844329
:10CF00004085C2C250A19EC34085ACC2B05E8D4375
:10CF1000B0DE9443800A59C250219DC3A04208C389
:10CF200060BD7B43B05EA343002A34C150A197C3C8
:10CF3000A0422BC360BD5643B05EAD4380F50642B0
:10CF400050A18DC3A04251C360BD2443B05EB24323
:10CF5000C07AA142502181C3A0426FC3C07AF94276
:10CF6000B0DEB44360BD0843A04266C350A184C391
:10CF7000C07AA142B05EB34360BD3243A04246C313
:10CF8000502192C380F51242B0DEAD4360BD5A43DA
:10CF9000A04223C350A198C3002A24C1B0DEA443F9
:10CFA000B0DE80434085E4C250219CC3800A55C254
:10CFB000B05E9943B05E914340858EC250219CC3C0
:10CFC0004085D4C2B05E8B43B05EA2430015DAC187
:10CFD00050A199C3A04212C360BD7343B0DEAB43FE
:10CFE00000D66B41502192C3A04238C360BD4B4371
:10CFF000B05EB34380F56E42502186C3A0425CC34D
:10D0000060BD1743B05EB743C07AE942A04274C323
:10D01000A04279C3C07AD942B0DEB64360BD214395
:10D02000A04256C350218CC380F57A42B0DEB34390
:10D0300060BD4843A04235C350A194C300EB854175
:10D04000B0DEA94360BD6E43A04206C350219AC31F
:10D050000015EAC1B0DE9F43B0DE88434085BCC204
:10D0600050A19CC34085AAC2B0DE9243B0DE974374
:10D07000800A4DC250A19BC3A04200C3B0DE8143D1
:10D08000B05EA643002A04C150A195C3A04229C3A3
:10D0900060BD5C43B05EAE4380F5064250218EC356
:10D0A000A0424DC360BD2A43B05EB343C07A9B42E9
:10D0B000502182C3A0426DC3C07AFD42B05EB4432A
:10D0C00060BD0443A04268C350A188C3C07AA14296
:10D0D000B05EB24360BD2D43A0424AC350A193C38A
:10D0E00080F50242B0DEAA4360BD5343A04229C38B
:10D0F00050A19AC3002A54C1B05EA14360BD7843D9
:10D100004085F2C250219EC3800A79C2B05E94432A
:10D11000B05E8B434085A0C250A19EC34085EAC249
:10D12000B0DE8443B0DE9A43800A1DC250A19CC386
:10D13000A04220C360BD6343B0DEA34300603D3F17
:10D14000502196C3A04246C360BD3043B0DEA84321
:10D1500080F5264250218DC3A04268C360BD0543BF
:10D16000B05EAB43C07ABB42502180C3502184C320
:10D17000C07AA942B0DEA94360BD0543A04265C3A1
:10D18000502194C380F51642B0DEA44360BD2A430B
:10D19000A04247C350A19CC3002A34C1B0DE9A43C9
:10D1A00060BD4B43A0421CC350A1A1C3800A61C211
:10D1B000B0DE8E4360BD68434085F2C250A1A4C377
:10D1C0004085E6C260BD7E43B05E84434085A8C210
:10D1D00050A1A3C3A0421FC360BD5943B05E8F439B
:10D1E000800A21C250219EC3A04245C360BD314385
:10D1F000B05E954300A850C0502197C3A0426AC3B7
:10D20000C07AF942B0DE974380F52E4250A18DC31B
:10D21000502184C3C07A9D42B0DE9643C07A9F42BB
:10D2200050A180C3502195C300EBED41B0DE914386
:10D23000C07ADF42A04268C350A19DC3001582C1DD
:10D24000B05E884360BD0E43A04245C350A1A3C356
:10D25000800A75C260BD784360BD2843A04227C3E1
:10D260005021A7C34085E2C260BD5E4360BD40431C
:10D27000A04206C350A1A7C3A0421AC360BD404349
:10D2800060BD5A434085CAC250A1A6C3A0423EC356
:10D2900060BD204360BD6743408582C250A1A1C3E9
:10D2A000A0425FC3C07AEB4260BD79430015E2C182
:10D2B00050A19AC3A0427DC3C07A9F42B05E814311
:10D2C00000EB954150A190C350A18EC380F51E4242
:10D2D000B05E834380F5724250A182C3502199C34E
:10D2E00000B0DE3FB0DE8243C07ACB42A04268C3CA
:10D2F00050A1A0C3800A15C260BD7C4360BD0F432E
:10D30000A0423EC35021A5C34085ACC260BD6F435F
:10D3100060BD3643A04217C350A1A6C34085FEC2DC
:10D3200060BD5E4360BD61434085D6C250A1A5C3C8
:10D33000A04224C360BD4543B05E8143800A71C2F0
:10D340005021A0C3A04247C360BD2043B05E8E43BE
:10D35000002A64C1502198C3A04266C3C07AFF422C
:10D36000B0DE964380F5224250218EC3502181C306
:10D37000C07AB342B05E9D43C07AB342A0427EC33E
:10D3800050A190C380F54642B0DE9E4360BD074386
:10D39000A0425EC3502199C300D62B41B05E994391
:10D3A00060BD2C43A04237C350A19FC30015FAC1F2
:10D3B000B0DE934360BD5443A04210C35021A3C3C9
:10D3C0004085A8C2B05E8B4360BD7C434085CAC225
:10D3D0005021A3C34085F6C260BD7E43B0DE9143B9
:10D3E000800A59C250A19EC3A04223C360BD5D43C1
:10D3F000B0DE9D43002A44C150A198C3A04246C359
:10D4000060BD3343B0DEA64380F50A4250218EC38F
:10D41000A04266C360BD0A43B05EAC43C07AB94265
:10D4200050A181C350A183C3C07AC542B05EAE4350
:10D4300060BD0943A04264C350A18FC380F55E4222
:10D44000B0DEAB4360BD3443A0423AC350A197C3A2
:10D4500000D62B41B0DEA54360BD5F43A04212C39E
:10D4600050A19CC3800A21C2B05E9D43B0DE8143BF
:10D470004085D4C250219EC34085AAC2B05E90436D
:10D48000B0DE9543800A79C250219CC34085FCC21E
:10D49000B05E8243B05EA243001592C150A197C313
:10D4A000A04225C360BD5743B0DEAB4300EBCD4186
:10D4B00050A18FC3A04248C360BD3143B0DEB14329
:10D4C000C07AA542502184C3A0426FC360BD064309
:10D4D000B0DEB443C07AFB42A0426FC3502184C384
:10D4E000C07AB742B05EB44360BD2A43A0424FC386
:10D4F000502190C380F53A42B05EAF4360BD5243C5
:10D50000A04222C3502197C3002A34C1B05EA74372
:10D5100060BD7B434085F4C250219BC3800A55C245
:10D52000B05E9C43B0DE91434085A2C250219CC3B3
:10D530004085C2C2B0DE8E43B05E9F43800A15C2F2
:10D54000502199C3A0420BC360BD7043B05EAA4393
:10D5500000ACB740502193C3A04232C360BD4C43DE
:10D56000B0DEB14380F57A4250218AC3A04254C351
:10D5700060BD2143B0DEB543C07AD742A0427AC332
:10D58000A04279C3C07AE942B05EB64360BD15439C
:10D59000A0425EC350218AC3C07A9142B05EB343B9
:10D5A00060BD3F43A04234C3502195C300EBC54149
:10D5B000B05EAC4360BD6543A04211C350A199C3A6
:10D5C0000015F2C1B0DEA143B0DE85434085D0C274
:10D5D00050219CC3408596C2B0DE9443B05E984310
:10D5E000800A75C250A19BC34085F6C2B05E8543D8
:10D5F000B05EA34300159AC150A196C3A04221C3B7
:10D6000060BD5B43B05EAC4380F50A42502190C3DD
:10D61000A04248C360BD3043B05EB143C07AA1426E
:10D6200050A184C3A04270C360BD0543B0DEB343C4
:10D63000C07AF742A0426FC350A185C3C07AB142FD
:10D64000B0DEB14360BD2343A0424AC3502192C320
:10D6500080F51E42B0DEAB4360BD4943A04229C302
:10D6600050219AC300158AC1B0DEA14360BD6E434C
:10D67000A04202C350219EC3408580C2B0DE9543C4
:10D68000B05E8B434085B6C250A19FC34085D8C2CF
:10D69000B05E8743B0DE9643800A49C250A19DC365
:10D6A000A0421BC360BD5E43B05EA043002A24C1FC
:10D6B000502198C3A04241C360BD3643B0DEA543AC
:10D6C00080F52642502190C3A0426DC360BD09433E
:10D6D000B0DEA843C07AA342502184C350A185C3C1
:10D6E000C07AB342B0DEA743C07AF342A0426DC312
:10D6F00050A192C380F52A42B0DEA24360BD1E4312
:10D70000A04248C350219CC30054C8C0B0DE994316
:10D7100060BD3D43A04229C350A1A2C3408580C241
:10D72000B05E8C4360BD6143A04203C350A1A5C35A
:10D730004085DAC260BD7F43B0DE81434085B4C21C
:10D740005021A3C3A0421AC360BD5943B05E8B43AE
:10D75000800A59C250219FC3A04242C360BD2943E1
:10D76000B0DE90430054E8C0502199C3A04266C384
:10D77000C07AFD42B05E924300EBE541502191C377
:10D7800050A185C3C07AA142B0DE9143C07A8342E2
:10D79000502185C3502193C380F50A42B0DE8C43EB
:10D7A000C07AC142A0426BC350A19CC3002A34C1BD
:10D7B000B0DE8543C07AFD42A04250C35021A3C3CE
:10D7C000408582C260BD784360BD1A43A04232C327
:10D7D00050A1A6C34085D0C260BD5E4360BD3B433F
:10D7E000A04213C35021A8C3A04210C360BD42434E
:10D7F00060BD51434085E0C25021A6C3A04236C35C
:10D8000060BD1D4360BD6543408598C25021A2C3E1
:10D81000A04259C3C07AF94260BD77430015DAC10E
:10D8200050A19AC3A0427CC3C07AB542B05E814386
:10D8300000D65B4150A192C350A18CC380F54E42EB
:10D84000B05E864380F56A4250A181C350A196C361
:10D8500000D64B41B0DE8643C07ACD42A04263C3BE
:10D8600050219FC3800A19C2B0DE834360BD1143BB
:10D87000A0423EC350A1A3C3408598C260BD7D4372
:10D8800060BD4243A04217C35021A7C34085EAC2EE
:10D8900060BD684360BD65434085D8C25021A5C3C3
:10D8A000A04219C360BD4B43B0DE8443800A7DC2F1
:10D8B0005021A0C3A0423DC360BD2D43B0DE8E43C6
:10D8C000002A04C1502199C3A04267C360BD0D4323
:10D8D000B0DE9A4380F5224250218FC3502181C38C
:10D8E000C07ACF42B0DE9F43C07AAD4250A180C320
:10D8F00050218EC380F57E42B0DE9E43C07AFB424B
:10D90000A04260C3502197C300D63B41B05E9E4306
:10D9100060BD2843A0423BC350219EC30015EAC10D
:10D92000B05E994360BD5C43A04214C350A1A1C343
:10D9300040858EC2B0DE8F43B0DE81434085D4C2C5
:10D940005021A2C34085E0C2B05E8443B05E9143E3
:10D95000800A71C250219FC3A04217C360BD5F43BC
:10D96000B05E9E430054A8C050A198C3A0423BC3E0
:10D9700060BD3E43B05EA74380F51E4250A18FC3F9
:10D98000A04265C360BD1843B05EAE43C07AB142E9
:10D99000502182C3502180C3C07ADB42B0DEAF4346
:10D9A00060BD0543A04261C350A18CC3C07A8542CB
:10D9B000B0DEAD4360BD2F43A0423EC3502195C3AE
:10D9C00000D62B41B05EA94360BD6243A0421AC39A
:10D9D00050219BC30015FAC1B05EA043B05E8443E2
:10D9E0004085E0C250A19EC3408596C2B0DE9343FD
:10D9F000B0DE934340858CC250219DC34085E6C272
:10DA0000B05E8243B05EA143002A74C1502198C326
:10DA1000A0421CC360BD5F43B0DEAB4300EBE541F9
:10DA200050A190C3A04248C360BD3A43B0DEB143A9
:10DA3000C07A954250A185C3A04268C360BD10431F
:10DA4000B0DEB543C07AF142A04272C350A181C397
:10DA5000C07AC742B0DEB44360BD2243A0424CC38B
:10DA600050A18DC380F52E42B0DEB04360BD4C4363
:10DA7000A04229C350A195C3004085BEB0DEA94392
:10DA800060BD7E43A04201C350A19AC3800A31C247
:10DA9000B0DE9E43B0DE8E434085B0C250219CC3B1
:10DAA0004085B0C2B0DE8D43B0DE9D43800A35C2F2
:10DAB00050219AC3A04202C360BD7943B0DEA8439F
:10DAC00000ACD740502194C3A04231C360BD534342
:10DAD000B05EB14380F5564250A18BC3A04257C3FC
:10DAE00060BD2843B05EB643C07AC542A0427EC343
:10DAF000A04275C3C07AFB42B0DEB64360BD0E43A0
:10DB0000A0425CC3502188C3C07A8B42B05EB3434D
:10DB100060BD3643A0423BC3502192C300EBAD41F0
:10DB2000B05EAD4360BD6643A04216C3502199C3A9
:10DB30000015C2C1B05EA343B0DE85434085DEC29E
:10DB400050219DC3408588C2B05E9343B05E94432C
:10DB500040858CC250219CC34085E2C2B0DE834325
:10DB6000B05EA14300158AC150A198C3A0421AC358
:10DB700060BD5F43B0DEA94300EBC54150A191C336
:10DB8000A0424BC360BD3643B0DEB043C07A8B4287
:10DB9000502188C3A0426DC360BD0C43B0DEB143C9
:10DBA000C07AE142A04270C3502184C3C07ABB4214
:10DBB000B0DEB04360BD1A43A04251C350A190C330
:10DBC00080F50E42B0DEAB4360BD4243A04230C39D
:10DBD000502199C3002A54C1B05EA24360BD6A437C
:10DBE000A0420BC350219FC3800A69C2B0DE964396
:10DBF000B0DE85434085CCC25021A1C34085D2C24E
:10DC0000B05E8443B0DE9243800A49C250219FC374
:10DC1000A04214C360BD6143B0DE9C43002A34C1FE
:10DC200050A199C3A04246C360BD3843B0DEA243B1
:10DC300000EBE54150A192C3A0426AC360BD0D4311
:10DC4000B0DEA543C07A8B42502183C350A184C368
:10DC5000C07ABF42B0DEA543C07AD942A0426FC3AA
:10DC600050A192C380F51242B05EA04360BD104344
:10DC7000A04252C350A19BC3002A44C1B05E974347
:10DC800060BD3A43A04233C350A1A2C3800A65C21B
:10DC9000B05E8E4360BD5D43A0420AC350A1A5C3E0
:10DCA0004085D2C260BD774360BD77434085CEC218
:10DCB00050A1A4C3A04215C360BD5243B05E8443CB
:10DCC000800A61C25021A1C3A04245C360BD2A435E
:10DCD000B05E8B4300159AC150A19BC3A04269C39B
:10DCE000C07AFF42B0DE8E4300D64B41502194C330
:10DCF00050A183C3C07AA542B05E8D4380F53E42F9
:10DD0000502186C350A191C300EBDD41B05E894331
:10DD1000C07AA342A04275C350219BC3002A64C1AC
:10DD2000B0DE8243C07AF142A0425BC350A1A1C3DE
:10DD3000800A61C260BD764360BD1443A0423EC309
:10DD40005021A7C34085C4C260BD5A4360BD304363
:10DD5000A0421DC350A1A8C3A04208C360BD414357
:10DD600060BD4A434085DEC250A1A7C3A0422DC377
:10DD700060BD244360BD6143408590C25021A4C36F
:10DD8000A04259C360BD054360BD7B43800A01C208
:10DD900050219DC3A04276C3C07AC542B05E844381
:10DDA00000D62B41502190C350218AC380F57A427E
:10DDB000B05E894380F56242502182C3502194C3F2
:10DDC00000D66B41B05E8A43C07ACF42A04265C3A1
:10DDD00050219DC30015C2C1B05E894360BD1C4384
:10DDE000A04240C350A1A3C3408580C2B05E84431B
:10DDF00060BD4643A04219C350A1A5C34085D0C20F
:10DE000060BD6F4360BD6A434085DCC250A1A4C3BE
:10DE1000A0420FC360BD5743B0DE8543800A61C294
:10DE200050A1A0C3A0423BC360BD3B43B05E93433F
:10DE3000002A34C150A199C3A0425DC360BD1843FC
:10DE4000B05E9E4380F50E4250A18FC3A0427AC3BC
:10DE5000C07AE942B05EA143C07A994250A180C322
:10DE600050218BC3C07A8542B05EA443C07AF5428C
:10DE7000A04263C3502195C300EBC541B05EA243ED
:10DE800060BD3343A0423FC350219DC300158AC1EA
:10DE9000B05E9D4360BD5B43A04217C35021A1C348
:10DEA000800A71C2B05E9143B0DE80434085D8C223
:10DEB00050A1A0C34085CAC2B05E8543B0DE904386
:10DEC000800A59C250219FC3A04216C360BD6A4355
:10DED000B05E9E43002A34C1502199C3A0423AC388
:10DEE00060BD4843B05EA94380F5064250A190C38F
:10DEF000A0425BC360BD2143B0DEAE43C07AA14205
:10DF0000502181C3A04279C3C07ADD42B0DEB14363
:10DF1000C07AFD42A04265C350A189C3C07A87423E
:10DF2000B0DEAF4360BD3543A04244C3502193C32C
:10DF300000EBB541B0DEAA4360BD5D43A0421FC304
:10DF400050219AC30015AAC1B0DEA243B05E82433D
:10DF50004085EEC250219DC3408580C2B0DE94430F
:10DF6000B0DE9143408586C250A19CC34085D4C297
:10DF7000B0DE8643B05E9F430015B2C150A198C386
:10DF8000A0421BC360BD6943B05EAC4300EBB5412A
:10DF900050A192C3A04240C360BD4243B0DEB24331
:10DFA000C07A8542502185C3A04261C360BD194338
:10DFB000B05EB643C07ADF42A04270C3A0427EC3C7
:10DFC000C07AC742B0DEB54360BD2543A04252C30C
:10DFD00050218CC380F55A42B05EB24360BD4F43BE
:10DFE000A0422FC350A195C300D61B41B0DEAB4366
:10DFF00060BD7743A04209C350A19AC3800A0DC2F5
:00000001FF