:020000042400D6
:10A008006331DB4022AFD140FBB2E7407DF0BD4079
:10A018008367D4400F68CA408BA5C040AE1FB740C5
:10A0280024D6AD405B78854020047C40507E6D404E
:10A038005A5E5F403EA35140F04B4440585737406A
:10A04800DE47D83FA651C53FE41D18406ED29B3F5E
:10A058004ED28A3F74D4743F342F553F9D98D83FD1
:10A0680074720E3FF8D7E43E5DFEA83F0D9F963F01
:10A07800EDE3843FE06997BD701624BEB09078BECA
:10A088001233283F704DC23F743918BF0CF028BFF7
:10A0980024C938BF64CA47BF74F955BFE45B63BFBE
:10A0A8003CF76FBF4929FBBF1149FBBFE4D67BBF13
:10A0B800E05938BD82348DBFE28391BF726109C017
:10A0C800BA8108C0D2D591BFE23609C0360708C0A8
:10A0D80058C406C0666F05C01ED28ABF124B05C0A1
:10A0E800F22C8ABF44CC04C0E2DA88BF3045D7BD21
:10A0F80082C991BF1A1D93BF30C008C0C6C38FBFA5
:10A1080086F406C0EEF18BBF0AF004C022B587BF03
:10A1180052B902C0782D00C0213EFBBFA11DF6BF79
:10A12800CDFAF0BFF9D6EBBF65B3E6BF4591E1BF05
:10A13800E4613EBFE5C4DCBFFD8ED7BFE15ED2BFA0
:10A148007CE91FBF348420BF0DBACDBF345816BF79
:10A15800F2EC22C0A9D3BDBFD89CEDBED8DCEEBEC0
:10A168008936B9BF089B18C0AD53A9BF294FA4BFF2
:10A178009E4D0EC0010795BF1D5290BF55AE8BBFB7
:10A18800091C87BF8D9B82BF625A7CBF80E3DB3C82
:10A19800E2ED75BF6A436DBF2ABF64BF6000F13D41
:10A1A8003CC5ECBFB82FE3BF28D3823E82733CBFC7
:10A1B8002ADB34BF24F6D3BF32441BBFA840CC3EB1
:10A1C800E082C9BF3AD506BFA26900BF244BF4BEDE
:10A1D800C478063F44E2F1BE54C9E5BEA4FDD9BE29
:10A1E800C47ECEBE344CC3BEF44E1E3FECBE183FF8
:10A1F8008474CEBE6476C3BECC201E3F3045AEBF4D
:10A20800702EA6BF6C489EBF28914ABE88DF39BE13
:10A2180068B729BEC8161ABE40A08EBFD0D7A1BD48
:10A22800D09787BDA0A95CBDA0142CBD042C81BF0C
:10A23800C090BA3CE069043DE0C2293D605E4D3DF6
:10A24800E0466F3D308969BF20C15CBF98C6283E93
:10A25800D8BA2D3E80ED4DBF0A81993F1874393E1A
:10A26800D8FE3C3E7836403E20BA49BFB82F713EF2
:10A278001888723EB898733E5864743ED8ED743EA0
:10A28800D837753ED844753EBEE39B3F783A493E81
:10A298007896493E38BF493E98B6493EB87E493E11
:10A2A800B819493EFE51963F38581C3ED86D1C3EA1
:10A2B80082CC903FF062E13DE66A8B3FE8EB68BFF5
:10A2C800E0B85DBF38D91E3E58031E3EF6E2903F07
:10A2D8003019E13D70B9E03DB028E03D62378B3F71
:10A2E800708D873D187569BF3001E03DB099DE3D3E
:10A2F800300DDD3DA2F68A3F8E6A853F9CF67F3F92
:10A30800E451753FA0A979BDEC936B3F0C5F613FA9
:10A3180088760CBE8C80583F14BB4E3F0C2F453FAF
:10A3280048957ABE84A03D3F54FF8BBEDC79363F0A
:10A33800748E2D3F0CDB243F8444BCBE6411B7BE31
:10A3480094EBB1BEA54CCF3F54E0103F040EE3BEE2
:10A358005C280C3F9C6F043F91B6BB3F787BD53E91
:10A3680088BEC73EC867BA3E0876AD3ECD7AA53FDF
:10A37800E9009D3F90EA3B3EF001273E10D5123E92
:10A38800A0C1FE3DE043D93D602AB53D606E923DD7
:10A398005D51843FD421FA3F3A6A603FD0B61FBE70
:10A3A80030052ABE90BB33BE124A4B3FF0E870BE60
:10A3B8002A833C3FCA02303F9841ADBE0AFA223F89
:10A3C800A8EAC83F5A2A013F3C0B04BFDC8803BFF8
:10A3D8002429EF3E54D5DA3ED42AC73E046E20BF66
:10A3E800C4BF1EBF6802AC3F180EA23FC8F7583E54
:10A3F8006827393E44E053BFA883283E88360B3E81
:10A40800D00DDE3DD0DEA73DF4066CBFD0D5983D1B
:10A4180054B1833F988B763F6831663F78BB10BE56
:10A4280078D622BE00804D3F608F3E3F2814303FD3
:10A438008CE9B0BEAC57B6BEB8D11C3F20A10F3FC7
:10A44800F8DD023F500DED3E3033D53E102ABE3EBA
:10A4580080EEA73E03E0A13F802B503E6051293E8D
:10A46800A0F5033EE342893F6E0A7F3F00AF65BD1A
:10A47800C058AEBD6BB38BBFE21AEE3F6646453F90
:10A488000682343F8070ACBE36781F3F3E4AC53FD7
:10A49800ECA9EC3ECC6BD03EE0E91FBF702B22BF8D
:10A4A800CCA6AC3E6C5E933E90FE3CBF58AA723E72
:10A4B80058A8443E464E903FB0E8843DC0FAD43C8C
:10A4C80060647DBF008593BBA00C22BDECCA673FCA
:10A4D800CCB8543F28F760BEE8E77CBED4B68BBE44
:10A4E8004C5D2E3FAC8C1D3FD467DABEA043B6BF8F
:10A4F8006CD70E3FE903BD3F18BFCB3EFAA622BF7B
:10A508003A4A25BF78AFA53ED8B68B3ECA2541BF8B
:10A51800F0D1603E30A6313E7051043E195A883F52
:10A5280000EC633B40070EBDA0C491BDA036D9BD69
:10A5380090B60EBE503D2FBE52F3463F3526A0BF03
:10A54800A85F83BEA22C323F88FDB2BE086CBEBE97
:10A558006831C9BE72D8103F023A013FC44DE43E8B
:10A568006439C73E84E824BF048A27BF4434A13E27
:10A578000C119F3FC817313EBD40EABFE48F4FBF63
:10A5880008F9293E34F28C3F20AB1D3DFD92FABFFD
:10A5980044796EBF2047543D8048733CC085A8BCB1
:10A5A800A23984BF9AF082BFE0BB0ABD78CB693F6D
:10A5B800B80C0DBE7A6E92BF026090BF7877583F94
:10A5C8002805473F7821363F6A9CA7BFBAA4A4BF95
:10A5D8009C9691BE08E02C3FA8721D3F9CF3D7BE05
:10A5E8005C0CDFBE5CA3E5BE48A3043FFE8B03BF43
:10A5F8000EE305BF5A41C1BFD2C5BCBFBC36ECBED5
:10A60800BC29F0BE3CB9F3BEEAFABABF8240B6BF75
:10A6180028E6113FD87B053F9E0801BFF073F13E45
:10A62800EE3D0DBF6E730DBF90F8D93E526AC9BF9B
:10A6380012C4C3BF122DBEBF9C94EDBE78C6033FA3
:10A648009E6E01BFFAB6BDBF62FAB7BFBC3FD4BEAB
:10A6580008B0103FF835063F8A7ABCBFF287B6BF0C
:10A668007CA8CDBE9C48CCBED81D153F82F9B4BF8E
:10A67800761E16C008B42D3FFC58AEBE7CC6ACBED4
:10A68800E207A8BFC228A2BF781379BE8A269CBF5A
:10A69800B8AA49BE124F96BFC2B490BF3A358BBF15
:10A6A800F0FC88BD70538BBDC21786BFC507FEBFBF
:10A6B80034456CBF9094C13D109FB83DA48564BFDC
:10A6C800459DEABF344546BFC876753E88A96D3EAC
:10A6D800540341BFDD45D9BF5575CFBF248CD23E49
:10A6E800243D14BFE452DC3EB503C5BFE5B7BBBF8C
:10A6F80072B90F3F82B20B3F4896E5BEC52FB3BF74
:10A708001563AABF6267313F82672C3F8818A6BECF
:10A71800DDC9A3BF35759BBF50AD30BE90DB1CBEF5
:10A7280050BC09BE94B504C0B054FCBFE009AF3DAD
:10A73800E041C83DE038E03DCAA25BBF684AE4BFDB
:10A748007A0836BF11C4A53FF8EE8E3E6010D6BF1A
:10A75800388DCABF4A2D04BF5C48013FEC03013F56
:10A7680054BBF3BEC0FDB4BFB41DB5BEDC6C293FFD
:10A778001499A5BE681EA2BF584F98BFA8310CBE39
:10A78800EC1B5F3FD04CF7BD122803C0006075BFBB
:10A7980030F6B13D30CEDF3D58BF053E00DF53BF38
:10A7A800E00F44BF60BE34BFC0E825BFACE8C53E7B
:10A7B800108814BFB3AFC0BFEBA5B4BF60CEAEBEA8
:10A7C800402197BEE05180BEDBD797BFD3208DBF15
:10A7D80000862FBD0074D9BB00C6E53C86D46ABF8D
:10A7E800A6D757BF402D543EC0D56F3E800C853E3E
:10A7F8008EC131BF9EFE20BFE6CB10BF0BEEB93F26
:10A80800706FE53EB69C03BF0CB6E9BE6C3CCDBE8E
:10A81800A89D213FDC0FADBE6C1C93BEE6C89BBF54
:10A8280058B618BE30EDD6BDB01280BDC028B3BC36
:10A8380040FD8B3CA0BA5E3D9062B83DD022FE3D03
:10A848008858203E0810403E34F142BF3437933ECA
:10A858000058A53FB4F82EBF9CFC1DBFE4930DBF64
:10A86800D48AF93E9A30013F424D053FB1F2B5BF57
:10A878002842B0BE28FE94BED07E75BE12C1493FA4
:10A888008A044B3FD0DC39BE703A0BBE60E4BCBDD5
:10A89800FAA26D3FC00657BDA22B773F80D190BC6E
:10A8A80080389F3CC019613D201AB63D6088F83D4C
:10A8B8005A8453BF50A0653E52273ABF889FA33E93
:10A8C80052B022BFDA2612BFC8A5F03EE1AFBB3FA7
:10A8D800195FB83F72F50ABF0816FD3E2426023FED
:10A8E800740CEABE742DCEBEB44CB3BED46599BE0A
:10A8F8006C473A3FC4693B3F08B878BE0CE5473F10
:10A90800B426483F5C36483FD94BE13F485E76BEA7
:10A9180088D74BBEC8EE22BE5038F7BDA40B653FA2
:10A928002C3D633FD0A6C9BDD03A83BD40B5FEBC1F
:10A938000078083AC231813FC0B58D3CE00D3C3DFE
:10A94800B00D963DF08FCB3DB09CFE3D409954BF75
:10A9580038405A3ED84B6F3E2C9D813E8C098B3E29
:10A96800388A30BF5C0CB23EBC72B93E0658AD3F67
:10A978008C12B13E7C8AB73EDC90BD3E1C29C33E9A
:10A988007256AF3FF218AB3F8C81A63E6C78AB3E57
:10A99800207922BFFC09CA3E969DB03FDCCABA3E68
:10A9A8002C07BE3E7CF3C03E6A25AE3FDC2AB03E93
:10A9B8006CB2B23E4CF4B43EFCF2B63EDCB0B83EEB
:10A9C8003C30BA3E7C73BB3EDC7CBC3E50DA1BBFDD
:10A9D800ACA6D33E3C94D33EBC50D33E4CDED23ED4
:10A9E800106211BFFC30E73ECCC2E53EFC2DE43ED0
:10A9F800504709BF7C54F63EE637BA3FBC89DB3E78
:10AA08007C51D93E2CFED63E7C91D43E0C0DD23ED4
:10AA18007C72CF3E4CC3CC3EEC00CA3EFC2CC73EF9
:10AA2800DC48C43EDC55C13E5C55BE3E8C48BB3E4E
:10AA380040691EBF0CCBCA3E2E0AAF3FFAAFA83FF3
:10AA4800181D30BFF89F26BFCC3DBA3ECC7DB63E20
:10AA58008CBBB23E0CF8AE3E3C34AB3E0C71A73E0C
:10AA68004CAFA33ECCEF9F3E4C339C3E48442EBF98
:10AA78006C82AA3E3C58A63E1C34A23E7AC6A43F2D
:10AA8800305F38BF884A2FBFAC24A83E1CADA33E18
:10AA9800AA10A53FE6889E3FB8BD44BF78DB7B3E41
:10AAA800D6CA9B3F9865413E58023B3E98B8343E13
:10AAB80098882E3E9872283EF876223E18961C3EBC
:10AAC800D21A903F305BCB3D683C62BFAA428E3FB2
:10AAD800707BAE3D30ECA53D30CF66BFC6068C3FDF
:10AAE80016FA853FC0AFB33CC0539D3CC0C5873CF8
:10AAF800A4197E3F40BBFCBC843F723F50B39BBD52
:10AB0800904B9CBD84EA663F1C045C3F488524BE8C
:10AB1800889322BEE05291BF24C05D3FF42C533F7E
:10AB2800E4DA483FC8DF6EBE08AB6ABE64E6403F61
:10AB3800041A373FF48C2D3FC43E243FFC2E1B3FA4
:10AB4800145D123F84C8093FB470013F8A2C01BFCD
:10AB5800545DFCBE0467F6BEBD63BE3F88FBDE3EA7
:10AB6800D814D03E089FC13EB898B33EE9C0A63F6E
:10AB7800C818833EF0A66D3EF0EE553E30063F3EC7
:10AB880070E9283E6DB38F3F601BA73DA06C813DE7
:10AB9800C0713A3D55E8803F802EF7BC409D37BDD7
:10ABA800C0EB70BD60C993BD72C7643FFAD0563F11
:10ABB8009A3F493F90BD79BED8B780BE3A5D383FCD
:10ABC800BAD92B3FB2B51F3FF2EF133F4287083F78
:10ABD800680EFABECC13BC3F6459B13FD4A3A63E5D
:10ABE800A4C9933E7499813EA820603EA00B953F6E
:10ABF80010AEE43D5004A83D208C5B3D389F803F5B
:10AC0800D8AE6F3F90A55E3F988231BE38FD483F71
:10AC1800083F393F40002A3FEC84BEBEAC53C5BE56
:10AC2800A8AC143F08DE063F500BF33EE6DF0DBF2D
:10AC38005E730FBFE6D310BFEF7FB13FDF21A63FA2
:10AC4800D6D23EBF6E833EBF6E0A3EBFB7CC9B3F97
:10AC58006349074000E30E3DA6307ABF00D03B3C75
:10AC68000051A6BC3E04F43F5E5A503F40936EBE6E
:10AC7800731A9EBFC04972BEA643383F7E44D13F77
:10AC88009BC6B3BF2360B0BF00D1BEBE0ECDC83FC8
:10AC98003610BC3F30A015BF90E717BF50F219BF60
:10ACA80056A0AC3F6EF6A03F80B849BF40EF49BF01
:10ACB80010F449BF169D953F7EEB8A3FC026D33CD2
:10ACC800D0217DBF00CA16BB4C3B713F4C0E5E3F86
:10ACD800A8103CBE684F98BF68F947BE2CDE413FBC
:10ACE8002199D53FB496CABE785FB2BF1405C8BED5
:10ACF800CCEA113F8AF11D4018CABC3E9020D2BF51
:10AD08005A2521BFF837AE3E215FA23F30E74B3EC0
:10AD1800DA3653BF2A9253BF30271B3E60CDDF3D42
:10AD2800110D863F6ABB7DBFCA297CBF00609E3972
:10AD3800929B713F72275E3F65D894BFAC2B08C0C9
:10AD48002055E9BD643EE83F123C393FE8A9A4BE5E
:10AD5800153BA9BFA8C8A4BE92E1223F84CBC63F39
:10AD6800448D01BFD5D7BFBF2854FBBE0C03BA3FE3
:10AD7800D49CAD3F54DA31BF3C1E2AC064191FBFB2
:10AD8800E48DB33E7C00A43F08345B3EEDADE4BFE8
:10AD980014D543BF88145B3E3C57933F90FAB83DA7
:10ADA80084ED6CBFE5DBF2BF147C5EBF9036EE3DF0
:10ADB80094730240BA0882BF2A7E80BF809F52BC2B
:10ADC80098A26F3F18855D3F7A8594BF9A2692BFF7
:10ADD8002885553FBF94DF3F8875293FBC37C1BEE2
:10ADE80032A5AFBF1CA5BBBED8CC183FE84D0A3F63
:10ADF8005C6BFCBE7A781DC00A09B4BF7FD0C73F20
:10AE0800905BF93E2EB60ABF025320C07A37B9BF0D
:10AE1800D8C60B3F505DFE3EEA00C1BFE2A21CC08F
:10AE28003C8CD1BEE86E103F3C2CECBEE2ACB8BF07
:10AE3800CA8CB3BF0A7AAEBF9818223FE848163FBB
:10AE4800FC56DFBE1A33B5BF42D2AFBF5C06B5BEF3
:10AE5800189D1F3F9C14CCBEC23EB0BFDABCAABF2F
:10AE680028662A3FC85E1F3FA8A9143FB25EB5BF37
:10AE7800828AAFBF986A213F48FE163FFC43DBBE7B
:10AE8800BA8BB3BF928FADBF8AABA7BF9C7C92BE73
:10AE98005C6D91BE3C4790BEAA03A1BFA2409BBF78
:10AEA80078B642BE98134A3FA2C29ABF820C95BF99
:10AEB800388411BE3A608FBF70BCC9BD52E389BFE8
:10AEC8004EDC00C0F47173BF10D1893D1079823D0A
:10AED80054176BBFDDCCEDBF157AE3BFDD61D9BF79
:10AEE800C4F5AB3EB5BED0BFC517C7BF04D400BFBD
:10AEF8000236013F6456FB3E8452F43E3D29BFBFF3
:10AF0800A502B6BF484FBFBE7267213FA839BBBE76
:10AF180095DBA8BF7551A0BF7206453F52833F3FDE
:10AF280028E580BE85BD9ABFC4F407C0209781BDBF
:10AF380072886E3FA04396BD68EA00C07A736FBFFF
:10AF48006006CA3DE081E13D6A885BBF5044E4BFCA
:10AF5800B845D8BF58ACB73E18B6B93EF87DBB3E29
:10AF68007AFE1BBF487EC5BF14E9F4BE0C9E0A3F9B
:10AF78001412E1BE14D4CCBE4091ABBFB49C90BEB9
:10AF880028AA7DBEA8615BBE285A3ABE889290BFA7
:10AF9800D0FDA0BDA03650BD402BC6BC00ECAF3ADA
:10AFA80070E773BF3BC7EEBFF0D547BFA03A38BFC5
:10AFB800801D29BFC07C1ABF90560CBF4052FDBEF1
:10AFC800160F093F801DDFBEF3C1AEBFE01198BE6A
:10AFD800803481BE806256BEE0072CBEEBAA8DBFCE
:10AFE8007F5883BF005FFA3C80B8823DC0D5C33D1F
:10AFF8006E415ABF06FA47BFE06E883ECF7AA23F3D
:10B0080080FA8A3E9E322FBFE6D31EBFE0FFD63EAF
:10B018009E970ABF50CFFD3E1C00F0BE2C9CD3BEAD
:10B02800FC3AB8BEECD79DBE7C6E84BE4E3F98BF3E
:10B03800F0E7FABD066887BF0059953BA073313D1C
:10B0480010AAA43D5CDA5CBF68B6443EE8C4643E1E
:10B0580074A0813E241A903E84D49D3E74D4AA3EA6
:10B068002CF21EBF5C470EBF5860FCBE4854DDBEC4
:10B078008865BFBE088FA2BEC21B373F6A98393F9A
:10B088003ACE3B3FB2BF3D3F30496CBEB0103BBEED
:10B0980010C30BBEEAEB623FE073BCBD40F24DBD8E
:10B0A800AAE0773F00DD6BBC4A9074BFE02FD03D2B
:10B0B800705D0A3E2ABE4FBF30AA753E082B893EF6
:10B0C800C8C4963E18A7A33EB8D6AF3EE116AC3F1B
:10B0D800B874B03EA823BB3E6AE817BF2861E43EB7
:10B0E800EA2004BF4C25053F1487083F64BBDDBE3A
:10B0F800EC5B193FC4B71B3FC458B9BE54DA9FBEB6
:10B10800F4DB363FF4CF373FC4E683BEE82A5ABEA5
:10B1180064F04E3FEC9E4E3FA88531BE2C54583FFC
:10B1280008F90CBE90C2CCBD5C2C6A3FA430683FC5
:10B13800A54AF03F882006BE9031C6BD90EC82BD7E
:10B14800A0C704BD001A11BBC0CCDA3CE0BC5E3D10
:10B158007087A53D703CD93D1846053EF05053BF59
:10B16800D8925E3E98D7723EE8FF38BFCCCFA13E5A
:10B17800E09025BF4C2FC73ECCC9CD3EECEBD33E6B
:10B188006C99D93EECD5DE3EFCA4E33E1C0AE83EB1
:10B19800CC08EC3E6CA4EF3E5CE0F23EC6B0BA3F91
:10B1A800703C09BFECF1FA3E2CCFFC3E7C5CFE3EC5
:10B1B800FC9CFF3ECE49003FA6A1003F76D7003F4A
:10B1C8009EEC003F76E2003F56BA003F9675003F7E
:10B1D8007E15003FA0CCF5BE2EE6093FAEBFC13FAD
:10B1E80050C1FABE50B2E6BEF046D3BED07CC0BE57
:10B1F800D658233F907EB2BE6EFA293FC688273FB5
:10B208002E0A253FCE7F223FB6EA1F3FF64B1D3F51
:10B21800F0B9BFBED05BAFBE76BE2A3FF687273FE8
:10B22800E64C243F360E213F9069B9BE96F4CF3FD5
:10B23800C607173F86C3133F5003D4BEBE1B183F33
:10B24800D28FC73F4645063FB60B033F8056F5BE33
:10B25800B683073FC61A043FC6B7003F7CB6FA3E1E
:10B26800E07B00BFE0D7F1BEE6EF083F0637053FB9
:10B278002E87013FBCC1FB3E0C89F43E3C65ED3E88
:10B288000C57E63E4C5FDF3EAC7ED83ECCB5D13E97
:10B298003C05CB3ED04A18BF3CABD33ED81B14BFAD
:10B2A8002CC2DB3E8C9CD43E8C92CD3EF2E9AE3F64
:10B2B8001C17AA3E9CDDA33E1CC19D3EDCC1973EE7
:10B2C800CAB8A13FB6D89A3FD61E943F228B8D3F6D
:10B2D800B0CB9D3DF041903D5E73853F807D7C3CC9
:10B2E80080052A3C00CBB53B00D8703A005266BBBB
:10B2F8004C85783F20405EBD20426ABDA08975BD5F
:10B30800CC7F6A3F8C035F3F84CF533F487946BE6A
:10B318005C1C493FA80370BEE8E06DBE489D6BBE4B
:10B32800C83A69BECCD2403F24CC87BED4F685BE8D
:10B33800D41584BE946C393F6C892F3F54E8253F5F
:10B34800BC881C3F146A133FA4EBDFBE34CB0C3F10
:10B35800142E043FC89EF73EF85CE73E3895D73E6A
:10B368008A5E16BF8AEC12BF7808D63EE823C73E2D
:10B3780038B2B83EF8B1AA3E98219D3ECA8132BF84
:10B388005806993E08418C3ED0CA7F3ED0E3673EBE
:10B39800F0C9503ED0793A3E30F0243EB029103EF4
:10B3A80029C58C3F4082753D40162F3D80FCD63C18
:10B3B8004A2C7D3F826C6E3FCA14603F2224523F64
:10B3C8007299443F9A73373F6AB12A3FAA511E3F88
:10B3D8001A53123F589AE7BE4252063F5463F63E4C
:10B3E800F4D9E03EA405CC3E94E3B73EF470A43E05
:10B3F80084ABA13F28A5533E88B0313ECC4056BF10
:10B40800C80E1D3E90CDFB3D443F893FBC37803F71
:10B41800E09539BD28C5683FF80A583FF8B74ABED5
:10B42800F8185EBED8643E3F6CA296BE5C579EBEBE
:10B4380000B8273FF876193FB0AC0B3F5C54F8BE14
:10B44800F657BCBF2FF1BF3F2091DB3EB073C33E20
:10B45800402EAC3EFEA22FBFC0D8953E008A803E4B
:10B468004009583E8089303E808D0A3E401BCC3DC5
:10B4780017A1853FA6FC773F1E4E653F4BE790BF5F
:10B48800A05E0CBEDED6503F002A6BBE26023A3FB5
:10B49800608AA1BE4048ABBEA647203FF61A113FBE
:10B4A800F670023F2C8FE83E4C39CD3E0CDCB23EA4
:10B4B8000C73993E0CFA803E18D9523E188C253EE2
:10B4C800B008F43D3071A03D6080203D00ECD83AD2
:10B4D800BCBA713F5091E3BD8CE3553F1C3B433FE1
:10B4E80054A492BEF4CA9FBE0C63243FDCA3133F4E
:10B4F800FC77033FD8B9E73E5AB115BF3A5419BF94
:10B508006AAB1CBFE1A4AA3F9A3C38BF1A443ABFB1
:10B51800B0DF793EF04F483E4156903FC0C57D3D73
:10B5280080EDA33C803EA5BC402570BD7215623FEE
:10B53800B56493BFF52092BF3272533F90CD67BE7A
:10B54800E8B282BE68BF90BE15C5A4BFE8F094BE3D
:10B558008856A1BE680FADBEE81FB8BE323B193F82
:10B568006816E2BE08CEEABEE209013F24C8E43EFE
:10B578000485C83EB4DE23BFC4C1A83EF40033BF6F
:10B58800248834BF24D435BF24E736BF847C853E65
:10B5980048E35C3E888E303E140559BF546258BF5C
:10B5A80048B80B3E1048C83D209A783DC41374BF74
:10B5B80014F071BF20702D3D8098173CC0D7B7BCE0
:10B5C800F20184BFF24882BFC0C9D0BCDA2284BF6E
:10B5D800A8AF703FF049DCBD1A2C8EBF70CCE7BD18
:10B5E800B8B50BBE38E9513FE2AD99BF06F809C0BE
:10B5F800B8EE07BEF83E1CBE788D2FBE68094A3FDC
:10B60800B2179DBF78B862BE98F13D3FDC2E96BE5A
:10B618009C989CBEBAE6A5BF3C7392BE5C2198BEBE
:10B62800A8CA2B3F9C17B8BE5A4CACBFD2CCA7BFF8
:10B638001C5798BEFC619CBEFC1BA0BEBA22A6BFCC
:10B64800C27BA1BFF8037DBE3C0882BED8DC373F71
:10B65800DC039EBE5C46A0BE6AD3A5BF5C568EBE08
:10B668005C5F90BE1C3092BE7233A2BFB8E97EBE4A
:10B67800A8EF393F1C5E98BE1C3299BE0AB7A3BF1B
:10B68800F2669EBFB8535FBE881C423FAA209FBF88
:10B69800E2C799BFF28494BFB8BA10BEB87F13BE90
:10B6A800F80316BEFA4990BF762E04C0C07DD5BCFB
:10B6B800C045F9BCE0A60DBD522F82BF04767ABF03
:10B6C80004BE70BF10569A3D90178E3DCD5DF2BFF7
:10B6D8005D37E8BF740F42BF6405823EA4FD3BBFDF
:10B6E800149233BFB4572BBF8466AE3EC45326BFF3
:10B6F800446E1EBF34B916BF54340FBF74DF07BF82
:10B7080034BA00BF6888F3BE5DBFB6BF480DC3BE7C
:10B71800A8B3B6BE08B5AABE88109FBE1532A2BF90
:10B7280084A30BC0E59F8CBF220C6B3F2081B2BD68
:10B73800DD5C86BFC036FCBF6093EFBFB0053A3E04
:10B74800F026433EDA9347BF2AB53ABF5A362EBF92
:10B7580078D6B03EFA3121BF5A8E15BFD063C2BF2A
:10B7680074F3E8BEB443D4BED442C0BE14EEACBE3B
:10B7780078D1A3BF48E199BF7C91543F6C98513F61
:10B7880028CD2FBE68BC10BED0B6E5BD500588BF19
:10B79800808A71BC8065263C30CE71BFC01A61BFFB
:10B7A800D0E750BFBEE7993F58234B3E006043BFE8
:10B7B800806534BF8C3CA93EAC97AF3E2C84B53E27
:10B7C800E0FE1CBFEB0AC5BF06C6023FD636043FE3
:10B7D800A011EABECBCBB1BFEB97A6BFC0AD73BE7D
:10B7E800E6D7473F00A64EBE80BD27BE578B8DBF0C
:10B7F8002B9E83BFBB83803F00AE5C3C8031323DD3
:10B80800560468BF762056BF96CC44BFE0F58C3E00
:10B818009EAA2EBF2A9FCCBF967804BFF0AB043FE8
:10B8280090ED073FAC2BDFBE423EAEBF3240A2BF19
:10B8380098EB4ABEB876533FB8BA1ABEF052DDBD8F
:10B848006ECC85BF80BA7A3CA04D563D10A5B33D5D
:10B85800FC645BBF88F4483E087C673E5C6139BF86
:10B8680074C2A53ED45621BFAC8810BF1C4F00BF80
:10B87800EAD9093FC2130E3FD806D1BE0810B4BE9C
:10B88800CA6C2E3F4AFC303F3A46333F28698ABE8D
:10B89800158999BFF2F6583F9A89593F507B02BEE5
:10B8A800A0F6ACBD401531BDA28D793F009508BC0E
:10B8B80080F1EB3C42096ABF5021103E1061303ED6
:10B8C800E123973F70D9403E30935D3E82493CBFAB
:10B8D80022F12ABF28A9C03EC2D814BF72F804BFFB
:10B8E80044DC043F8CC6083FFC650C3F411FC53F44
:10B8F8009CEF073F440FDFBE7CA0183FBCEB1A3F0C
:10B908002410BBBE44AFA1BE143C89BE686463BEAC
:10B91800E4FA4C3FFCFE4C3F8CD24C3FA82738BE83
:10B928006CCE563F3CDF553FC4C7543F68DE1BBE54
:10B93800ACFE8BBFA02018BD001181BB9AD1803FFF
:10B94800C0A7813CF21E833F6071033D5AFD843FCE
:10B958001A06833FC020F13CE041653DA0AF65BFBA
:10B968005889173E7A07933F186F54BF782C593E71
:10B97800D88E6C3EA61D9D3F36D9993F0294963FBE
:10B988005870303E38104ABFDEF59C3F38C1603EE3
:10B99800986A6F3E183C7D3EB0F237BF8CF3A03EEC
:10B9A800DC2EA63E2C0AAB3E5C88AF3E70AB20BFB7
:10B9B80028E713BF9CEDE53E9C1DE83E0CFFE93EE1
:10B9C80020B704BF064F013F30D9F1BE76970C3F30
:10B9D8002E5E0C3F3E060C3FFE900B3F8003DFBE01
:10B9E8001632153F662F143FBE14133F6EE3113F06
:10B9F800AE9C103FBE410F3FC6D30D3F605BDCBE1F
:10BA0800B0C0C9BE46A11E3F1E771C3F0084C0BE01
:10BA1800904FAFBE362B2B3FEE56283FB679253FC9
:10BA28009694223FF0B1B5BEC694273F5660243F96
:10BA3800FE27213F9EEC1D3FE0A4BFBE6E4E223F75
:10BA4800D05FB7BE7A5AD03FAE9C173FBE23143F93
:10BA5800F0A7D3BE0619183FF66C143FCEC5103FA9
:10BA6800C0BADABE8035CCBEE01DBEBEF264CE3FA1
:10BA7800762C133F06350F3F46E4C23F8C09F93E4A
:10BA88001CD1F13E2CAEEA3E7CA1E33EBCABDC3ED1
:10BA9800ACCDD53ECC07CF3ECC5AC83E96B2AD3FD2
:10BAA8005C91A53E18AB2ABF0C9FAF3E7C74A93EA3
:10BAB800EC64A33EBC709D3E88B52EBFF0B526BF92
:10BAC8003C37B73EDA6FA93F983030BF983528BF6A
:10BAD800A86920BFEC69C33E6E63AC3F6C0DA03E05
:10BAE800FCE5993E3CDD933E3CF38D3ECE4A9F3FBC
:10BAF800787F593EF85A4F3ED873453ED8C93B3EE9
:10BB0800628C933F4AF78C3F307B943D70E1863DD1
:10BB18008ADC843FAC447D3FE41B713F643E653F53
:10BB2800C4AB593F087830BE54434E3FE450433FBE
:10BB380074B483BEE4BA82BE0CAB393F845D2F3F38
:10BB48009456253FA4951B3F041A123FFCE2083F78
:10BB5800A8DFFF3E887FEE3E08A4DD3EDADB13BF98
:10BB68001830D33E085DC33ED807B43E2AEA27BF43
:10BB78006A3B24BF48E7B33EF881A53E4D25A33F65
:10BB880090B3683E90954F3E9057373ED0F51F3E94
:10BB9800556E8E3FB148863F524B78BFC096083DE0
:10BBA80000B97C3CE20E7A3F2AFB6A3F606DF1BD2A
:10BBB800702E06BE30F412BE72BE523F9204453F4C
:10BBC80048A085BED2A1353F884DA3BEE254273F89
:10BBD80022151B3FFA350F3F12B6033F84ED01BF14
:10BBE8004459F13E3043B43F94B1B13EBC602BBFE1
:10BBF800C43BA13E2CEBA03FE8064E3E9C644FBFE1
:10BC0800289D373E8C33903F509E9A3DF055833F98
:10BC1800C047B2BC609C3EBD963D86BF509C6D3F00
:10BC28008FBEEB3FF81062BE782774BEEC9F82BED1
:10BC38006829353F587F263F784D183F3CDFDFBEE7
:10BC48000CB1E4BE50F5053F002EF23ECF94B33F51
:10BC5800FEB824BF1E3325BF07C1A73F33D19C3F81
:10BC68003F33923FBE3665BFF67463BF3FB9893F25
:10BC780066BB7F3F469E6C3FE0A101BEAFFD90BF13
:10BC88009E2A573FB614E03FC6D6293F60A5C1BEDD
:10BC98008022CBBEA008D4BE966AC33F569BB63F4F
:10BCA8001B96CDBFB03018BF4CDFBF3E6CDDA53E44
:10BCB8008E74A03FB6FD943F704261BF801061BF93
:10BCC800C62B8A3F61D9FC3FD058D5BD40F38EBF03
:10BCD80090AD8DBF196EEB3FD18CDC3FFCB0213F9E
:10BCE800F6C017C0C03FAABFCC85253F19B3C73FD0
:10BCF80038EEF33E5827C5BF48A4C1BF789FF13E30
:10BD0800915BB23F1886A23E1A9236BFDA8638BFD8
:10BD1800788D803E593A973FE0D9E93D4A6B68BF34
:10BD2800785FF1BF6027EC3D09C0863F9289783F74
:10BD3800202AB2BDA5C78CBFA08AE4BD841BE83FFA
:10BD4800A8C184BE08BD92BE3D40A5BFC8CC96BE62
:10BD580082F0283F223E183F88C8E4BEBDCCB8BF59
:10BD6800A83CE1BEE8E6E9BEA402BE3FD47B12BF10
:10BD7800447C15BFD43818BFA49BBF3EFC9AA63F8D
:10BD880048DF6C3E500D30C0140A36BF643D873E14
:10BD9800DC470B40906DBA3D8DEFF3BFADF0EDBFC2
:10BDA8008835143E2CD58A3F4068D93C24957CBF01
:10BDB800555BFABF20BC5A3D28B27F3FE8B36C3FC1
:10BDC800725B8DBFFA668BBF7061C2BDF86C5B3F5A
:10BDD80098174A3F1ADA9DBF121B9BBFF8A358BE9B
:10BDE800C8113F3F58342F3F9A94AABF3223A7BFA8
:10BDF800D2AFA3BF0F87D73FF8DB1A3F1221B4BFDA
:10BE08007A14B0BF620AACBFF8FB243F3845173F2D
:10BE18007C03E1BEDCF2E4BEFA501AC048641A3F63
:10BE2800989F0D3F9C7AF2BE7ED51BC09A02B0BF88
:10BE3800F89A1E3F4864123FC88F063F8AF3BCBF7A
:10BE4800B29FB7BFBC66D4BE38DC0F3FBCAEEBBEFA
:10BE58000AB51AC0523AADBFCAEAA7BF58A82F3FC1
:10BE68009A60A8BF3A0BA3BF0E850DC0522C93BF92
:10BE780038A0583FB8B04C3F869C0BC0F2518FBFDA
:10BE8800124F8ABFF01382BDF80E693FAAF88BBF24
:10BE9800761902C00069AD3B48727A3F88396E3F17
:10BEA800E25A89BFD6C600C034CF73BF908C813D9B
:10BEB8003492843FD55FF9BF0D1DEFBF44A14FBF3A
:10BEC8006C16973F08261A3E44F155BF95C0E3BF4C
:10BED800C46039BF44E6923E2C9CA03FC8A5643E8E
:10BEE800251FDFBFE56CD5BF643FBA3E24D8B33EFB
:10BEF80084BB23BFA53BCBBF948109BF945802BF25
:10BF0800E445FE3E6420F63E3DFBBEBF3D17B6BF8E
:10BF180088A0C0BE2879B4BEF22B263F45FDA9BF34
:10BF280064740FC02D1894BF0C78EB3F90E33DBEAE
:10BF3800F0F407C0FC6501C0AA7D71BF2A6563BF24
:10BF48003045133ED0DEE6BFA8D8DABF9AC123BF7A
:10BF58003866C53E7A1717BFD8BFDD3E88F3C2BF23
:10BF6800D005B8BF2C3C1A3F5C2F193F74EFC4BEF4
:10BF780020ACA9BF70969FBF683F44BEACA0513F9C
:10BF8800703093BF3E8D03C0E0B176BFB069A93D64
:10BF9800CED38A3FB0CBAF3DB0DE5EBF609B4EBF15
:10BFA80010D83EBF0CDD953ECCB19D3E8B3ED1BF37
:10BFB800C0CD0EBFF03201BF0674063FAB5DB6BF01
:10BFC800E0BBB5BE8BC7A4BFC6B4413F40C663BE85
:10BFD800261D4C3F40743CBEB7D08FBF804385BD03
:10BFE80016D3723F80251FBDE6F97BBFA2BFF1BF04
:10BFF800DEBA4BBF176D9D3F806D6E3E1EDB38BFAE
:10C00800364328BF3093C43E3E9513BF265F04BF16
:10C018006C5EEBBE5C06CFBE8CB1B3BE6C5B99BEEA
:10C02800D8FE7FBED8314FBE784620BEB066E6BD8A
:10C03800F0DD8FBDC07FF3BC68D67C3F00027B3B40
:10C04800A028253DD0109A3D1060DE3D28CA0F3E3D
:10C0580099A5E4BFF4A631BF043A20BFB4640FBF6A
:10C0680014BAF63E8A2C003F7AA9043F52D6083FFC
:10C078008AB50C3F3870D4BE281EB8BE88D49CBE82
:10C08800888E82BED08E52BE70F421BE8AB05D3FCB
:10C09800557E8BBF599180BFC07F683D2953893F2A
:10C0A80020AAB33DE0ADFB3D4147913FF07C153EF2
:10C0B80010A3353EF040543EA2293EBF98409C3E16
:10C0C80008E4A83E38D6B43ED81BC03ECA2415BFE3
:10C0D8002870EA3EE850F33EC897FB3EACA4013F07
:10C0E8001499EABEB448CEBE64FBB2BE94AC98BE06
:10C0F800C4D53A3F086879BEC89349BE949B533F5C
:10C10800BCC8533F04C2533FC8BC90BF101F8DBD6D
:10C1180040CCFABCFC0F7C3F0094A2BAE065083D15
:10C1280070DF873D708CC83D7EA58D3F9AE48B3FBC
:10C13800C6158A3FB093AF3D78805DBFF8683A3E38
:10C14800E2A3973F1623953F38CC2A3ED8C5413EF7
:10C15800F897573E184A6C3E98E37F3ECC35893EA7
:10C16800308731BF4CEEAF3EAC32B73ECCFCBD3E63
:10C178004C50C43EFECCAF3FBCE5B93EBC65BF3EAB
:10C18800DC7CC43E5C2EC93E5C7DCD3E08CB11BF35
:10C19800BCBCEA3E0C7CED3E8CE5EF3E4CFCF13E2F
:10C1A8004CC3F33E7C3DF53ECC6DF63E1C57F73E46
:10C1B8003CFCF73ECC5FF83E9C84F83EE095FCBE24
:10C1C80036EC063FA66A063F6065E9BEC012D5BEDA
:10C1D800C06AC1BE2E4C233F40CCB1BE06B52A3F33
:10C1E80030C2A3BECE58313F003897BEC641373F54
:10C1F800EE74343FF69B313F16B82E3F6ECA2B3F84
:10C2080016D4283F1ED6253F96D1223F76C71F3F1A
:10C21800AEB81C3F2EA6193FDE90163F1010CEBEBA
:10C228000085BEBE9EC6223F06331F3F90C1BDBEDD
:10C23800C025AFBEE6012A3F26FD253FF6FC213F7B
:10C2480000FFB8BE3EEB243F76BF203F169B1C3F45
:10C25800C67E183FD02CCCBEEE3E1B3FF600173FE3
:10C268007ECD123F16A50E3F46880A3F7E77063FD1
:10C278003673023F800BF8BEC66F053FB655013FC7
:10C28800AEE5BB3F8CDCDC3E5E9FB23FEC79B83E4E
:10C2980092B4A93FCC86953E7C948F3EECC0893EF3
:10C2A800DA439E3FF874513E787D473EC8104BBF35
:10C2B800F8BD5F3ED886553E588C4B3E000E4ABFAF
:10C2C800709041BF1C80823EF6819C3FA2BB953F87
:10C2D800B8D60E3ED880063E8A0D8D3F76A2863FA0
:10C2E800C025C73CC0179B3C8089613CACC27C3FE1
:10C2F800204B1DBDA01E2CBD20283ABD206D47BD7A
:10C30800A0F253BDA0BD5FBD5CD46B3FFC4F603F46
:10C31800E413553FA41F4A3FC4723F3FC40C353F46
:10C3280014ED2A3F1C13213FB406C6BEC40B193FA7
:10C338006CC10F3F24BA063F68EAFB3EBA0F05BF3F
:10C34800A81AF03E689ADF3E3AB512BF08D0D53E2B
:10C35800D25B17BF0980B03F6833A83EA2752DBFD6
:10C36800582DA23ED87E943E0842873E02473DBFE4
:10C3780088D2833E70CA6E3E90C5563E10933F3EAB
:10C38800BD66923FB9448A3F324E70BF8D85853F66
:10C3980000F68A3B00C544BC80C4E1BC4AA56F3F97
:10C3A80060E4CABD52EB5D3F6AFD4F3FDA75423F1C
:10C3B8007A53353F08D9A3BE6A17273F9ADF1A3F39
:10C3C80018F3D6BE726D0E3F68D9EEBEBAF6023FBC
:10C3D8000430F03E3426DB3E54CDC63EB422B33E94
:10C3E8009423A03E18B4A03FF4D8963FC824003E3A
:10C3F800A067893F247F74BF20D91F3DB0A97D3F26
:10C40800601D64BD7041A2BD3042D0BDB01DFCBDF1
:10C4180098F012BE68CE503F2839413FBCC390BE49
:10C428005C4698BE6C539FBE788A273F8096193F1A
:10C438002CD7DCBE38E5093F9CF1FABE40F1F63E48
:10C44800D072DE3E10CAC63E90F3AF3EB0EB993EC6
:10C45800162A38BFE0F5853EE092633EDE524BBFB8
:10C46800A0D4423E40F21D3E3F908C3F80C6333DF3
:10C4780076CE7D3F80B272BD809FB1BD4058E7BD8A
:10C48800462F573FE637463F26CA353F16E4253F35
:10C49800C0FBC7BEF684123F26EC033FB0AE04BF14
:10C4A800806C07BF0C2AE13E4CE5C63E0C8FAD3EC2
:10C4B8002C23953ED0B23BBFD86B793E304747BF5F
:10C4C80098924D3E5878233E3002F63D3049A83DBB
:10C4D800606A3B3D80A9313C401DB9BCA0A15FBD4D
:10C4E800D077AEBDFC375D3F28283DBEE86257BE19
:10C4F800E84D70BEB4F883BE1CEC323FACC2223F9C
:10C508008C22133FD07CB8BF14A0DEBE1C83073F2B
:10C51800B1DDB93F5AF019BFBA221CBF38D2B83EB4
:10C52800D89F9F3EB859873EF0F65F3E01A1933FE2
:10C53800E0A5B83DD9B9833F806CF4BCA0A385BD04
:10C5480020F8CABD909506BEB2F7503F348BDC3F49
:10C55800D2EE213F4809D3BE2805DEBE2855E8BEE5
:10C5680028FEF1BE2805FBBE4494F13E047E10BFB0
:10C578002445CD3E64D621BF6429AC3E44C6913ED5
:10C58800C4513EBF6516DDBFA42D893E085D623EDD
:10C59800C4744DBF54AE4DBF8832333E4863083E25
:10C5A800908ABE3DA48D6CBF24256BBF9068873DE3
:10C5B80040BAF83C00BE7FBBE05A16BDDAF785BF2B
:10C5C8005A5F84BFE0042FBD703D93BD704CCCBD55
:10C5D800BA6C8DBF0A3C8BBF7018BCBDF0EAEEBDCB
:10C5E80038AE0FBE821892BFF83211BEA8C2503FB3
:10C5F800382867BEF8D879BEDCC185BEB2C6A0BFF0
:10C608001C3580BE1C1188BEB21EA1BFC26C9DBF66
:10C6180078E863BE780772BEB8537FBEC88C373FD0
:10C6280042A1A5BF3CC690BE888F2F3F1850223F1D
:10C63800587A153F32FBB5BF3C7FCFBEBCFCD1BE9C
:10C64800BC2DD4BE28770F3F029DB8BF3C95D8BEFD
:10C658001CAFD9BEBC89DABEAA0AB4BF82B4AEBFC9
:10C668005CB9B0BE1CA5B1BE0AD8A9BF1C279DBE27
:10C67800F2BEA4BFD2789FBFB82C68BEF8B16ABE1C
:10C6880078483F3F9C1F8DBE5C6F8DBE62A7A0BFE0
:10C6980038CC6FBE788E70BEB80F71BE1A6B9BBF58
:10C6A800F2FC95BF72A690BFF070E2BD5AB08BBF86
:10C6B800702994BDF2DD86BF62C381BF00327E3B24
:10C6C80000E065B914917BBF04A971BFA4F367BFEB
:10C6D8001084E03D9011D43D048361BFDD4FE9BF74
:10C6E80088CC593E4858513EC80E493E9563E2BF32
:10C6F8001584D8BF0493AE3EE41526BF740A1EBF46
:10C708005D59C8BFB4AB03BF08E7F8BEE8D8EABEB6
:10C71800482CDDBE28E0CFBEADFDADBF256BA5BF63
:10C7280010707EBE10B468BE75B697BFDC7E06C0BA
:10C73800358982BF80478A3C1A9272BFFA3F64BF2C
:10C74800BA5356BF4ACC48BFF0637B3E7AC539BF5F
:10C758002A282DBF2AEB20BF4A0D15BF4A8D09BFD5
:10C76800D4D3FCBEB443E7BE9467D2BEB43CBEBECD
:10C7780054C0AABE94EF97BE94C785BEE88A68BE27
:10C78800601A96BF989B8CBF7C3D6E3F604D85BFFD
:10C7980060C178BF606F67BF187A0F3E5823253E87
:10C7A80010134CBF40523CBFACE29A3E502929BFFF
:10C7B80000A21ABFCCDADB3ECB2EC2BFC310B6BF75
:10C7C800834BAABF1647373F409285BEC0A75EBEBF
:10C7D8000BBC93BF4076BEBD00A562BD006A9DBC80
:10C7E8003E9176BF4046BA3D0034F93D809D1A3EE1
:10C7F8004036373E006D523E604A6C3E706B823E5A
:10C80800D67A33BF90CBAE3EF253CCBF76C003BFCF
:10C81800CCFAE9BE6C7ECDBEF07D213F38DB233FEC
:10C828008285A7BF58BA73BE98A343BE4027553F19
:10C83800587A14BEB0CDD1BD60517CBDC0CBB7BC59
:10C84800802E773C08C8833FA0B32F3DD0F69C3D8F
:10C8580050FFDE3DA8020F3E480D2D3E6C1748BF25
:10C86800346C36BF045625BF045ECB3E8CBD0FBF6B
:10C8780044CDF43ED931BBBF1872C4BEEA4E263F40
:10C88800AAF2283F785F9EBE786984BEF0DC56BE67
:10C8980070D326BE6A565C3F60AEEFBDA0C598BD9A
:10C8A800C0D30ABD92D07B3F00009836DA1E71BF14
:10C8B800A0D7E93D9046163E5013363E705B543E75
:10C8C8003028713E34F1D8BFA8B2BE3E9805CA3EA2
:10C8D800B22A10BF9A4B00BF74F5E1BEE44B183F73
:10C8E8008CA91B3FE4BD1E3F84ECB1BEB41E97BEAD
:10C8F80054D93B3F887274BE5909E23F84883F3F50
:10C90800B462403F4406413F5C75413F14B2413F29
:10C91800480C63BE681B38BEC8D10EBEC4B7603FA2
:10C92800AC5E5F3F5010E5BDD0399BBD6CF56F3FE5
:10C93800B4946D3FADCBF23F7C9C5D3F70EF8CBFF4
:10C94800202543BDD409763F7493723FA08137BD3B
:10C9580040BF86BC58C377BFF021A23DD6728A3F3C
:10C968005EEF873FF065823DB093B03DF0A1DC3DBE
:10C97800D84E033EB849173EB8472A3ED06D4BBF44
:10C9880018DE783E56439E3FAA9E9A3F98E24D3E57
:10C99800F86C5C3E7A859A3F98994B3E58B5583E5C
:10C9A800B83D41BF407833BF281E26BF1CA7C23EF2
:10C9B80062BFAE3F7A10AA3F3CAEA03ED87D28BFEA
:10C9C800ACD1BC3E0C1CBF3E7C20C13EE01019BF60
:10C9D800E8720DBF7C9FF03E5CAEF03ECC83F03E2B
:10C9E800707002BF26A4023F7602023FF648013F5C
:10C9F8003E7DBD3F38CC05BF3CAEFD3EBE25BC3FAD
:10CA0800DC98E33E38A809BF209BFFBEC07FECBE80
:10CA18006E830D3F369C0B3FC6A8093F00AFE5BEAD
:10CA2800167F103F162F0E3FB6D60B3FDE76093F16
:10CA38006E10073F36A4043F0E33023F7C7BFF3E57
:10CA48002079FABEF0B3E9BEF06DD9BED6AE153F77
:10CA58001015D0BEB61D1A3FC295C83FF04EE4BEB1
:10CA6800F0F5D4BED678173F7ED3133FE632103F99
:10CA7800A0D3DBBEB6E0133FA614103FE64F0C3F31
:10CA88000E93083F9EDE043FE09CF2BE5678C13FFD
:10CA98008C76F33EEC5AEC3EDC54E53E084F0BBF77
:10CAA8004C48ED3ECC0BE63EACE7DE3E9CDCD73E88
:10CAB8002CEBD03EEC13CA3E6C57C33E1CB6BC3EB2
:10CAC8005C30B63E8CC6AF3EFC78A93EFC47A33E20
:10CAD800BC339D3E8C3C973E8C62913EDCA58B3EE0
:10CAE80072C29E3FB891553E98BF4B3E3828423E91
:10CAF8003A5A943FEAC68D3F308DA13D3007943DA8
:10CB080070F1863D6094743DC621843F9CEB7B3F69
:10CB180064DE6F3F1030B3BD5006B8BD04F2623F0B
:10CB2800DC90573F282438BEE8EB37BE888A37BEEA
:10CB3800080237BE8CEC4C3FEC42423F5CDF373F8B
:10CB4800848099BE4CC62E3F141BABBE9C43263F27
:10CB5800948DBBBEA4521E3FEC10153FA4100C3F91
:10CB68002451033F78A3F53EE2EF07BFA8DCEA3E75
:10CB780078DADA3EA852CB3EA843BC3EE8ABAD3EDD
:10CB8800C8899F3EA8DB913ED89F843E10A96F3E7E
:10CB980010F0563E10113F3ED941923F1D0C8A3F7E
:10CBA800110F823F80A6BDBCC09B22BDC24B6C3F0B
:10CBB800FA905D3F10FE2CBECA3B4C3F10F96FBE89
:10CBC8005049DB3F28EBACBE8836B0BE4AE7203F71
:10CBD800E8A3CBBEBAB7133F9204083F0461F93EFD
:10CBE8006474E33E5C6113BF647ECF3E0438BB3E91
:10CBF8004029A73F28FA7D3EE8735A3E283C383E34
:10CC0800682A903FC8C5863F3CB479BFE4A975BF80
:10CC1800A0000F3D60B87C3FB8696B3F300FFFBD87
:10CC2800F82B15BED8C129BE93D7E23FEFA7D53F51
:10CC38007CB1C6BE4C14CDBE5C01D3BE8362C43F7A
:10CC48006B41B83F90DFBC3E0A4CD1BFF6EF1DBF29
:10CC58004098B73ED0ACA03EA0948A3EC0976A3EAA
:10CC6800361A4ABF20AB453E131B913F40049C3DFA
:10CC780080662C3DFE1878BFBEC47F3F1EFE6C3F09
:10CC8800A6CB5A3FEBEB95BF039693BF40AF1FBEB1
:10CC98007684E33F9609313F80A3B2BE808EBBBE47
:10CCA80060ECC3BE16A1143FA0C71E40D02918BF10
:10CCB800F05B1ABFC0511CBFE67AAB3F26DB9F3F33
:10CCC800189A3A3E30DC56BF209056BF3E778F3FC9
:10CCD80030170140A0157FBD109089BF984588BFC7
:10CCE8002C31673F0169E73FCC2C373F1488A9BE38
:10CCF80038A0AABF4CFC243FF188C73F98ABF33E4D
:10CD0800901FC5BF2085C1BF9875F23E79A6B23F76
:10CD1800EA7F28BF18A8D2BFEAFD21BFB17CA83F8F
:10CD280039B79C3FB05F203E0AAD5DBF3010ECBF05
:10CD3800B00A203E6297044092E4773FA083B6BDD4
:10CD4800D5008DBFA05EE7BDD271553F22D1423FCD
:10CD5800286993BE1D61A5BF282997BE22D5283F03
:10CD6800345BC93F8874FABEA510BEBF35ADBABFE3
:10CD7800F27D063FA446EF3EA43311BFCD54C7BF92
:10CD880064FB0BBF04B0D73E1C86AC3F24B38D3E7A
:10CD98007D23DDBF4519D8BFC4BA9D3E04D39E3F4D
:10CDA8005CBF933FB40063BF141862BF90ECCB3DE7
:10CDB8004C2F853FC09587BCCA7600C054D879BF30
:10CDC80080EC4B3C9878753FF028BEBD52C78CBFAD
:10CDD8000AD18ABF70E8B8BDE89E5C3FBFE6E23F73
:10CDE800BCB495BE8E3F11C078547CBEB863363F44
:10CDF800B8C3263FBCB6C5BEFA8DB0BFFC74BEBE74
:10CE080058CA173F2F17C23F7E5709BF8AF5C2BFBE
:10CE180052DA1DC0C8F40B3F0FB7BC3F9E0B13BFBF
:10CE2800124EC7BF0EC81FC0182F053FF01EF23E96
:10CE380010AEDA3E7A7FC9BFEA18C4BF0EFC02BF43
:10CE4800D082EE3E0261C4BF22D4BEBFAE4B1BC02F
:10CE5800380F183FA8CF0C3FFC30F1BE6265B9BF50
:10CE68003AC2B3BF9CC4C3BE18BB183FB80E0E3F2E
:10CE78007C99EDBE623CB8BFBC61D4BE280D113FA1
:10CE880078FC063FDA921CC0FEC916C022F8A4BF7F
:10CE9800087D363FBC0E9DBE0A32A4BFDAD50DC050
:10CEA8003A4E93BF1851593FB84B4E3FDABA98BF24
:10CEB800BE2C08C0122288BFE06632BDA8E36E3FD0
:10CEC8009AB688BFD64E00C025F0F5BF104EF03D8B
:10CED8001004E63D90F3DB3D4C5035C0ADACDDBFF2
:10CEE80034012DBF640AAC3E640B27BFF59ACCBF52
:10CEF800051BC3BF825A013FC473FB3E945E00BF4B
:10CF080065C7B9BFA821CEBE28C5C0BE729B203F49
:10CF180092081C3F45C0AEBF8D1EA6BFC8CA81BEC1
:10CF2800A2273F3FD2A6393F8D66A0BFB8BC0AC032
:10CF3800C5D08ABF82AC6E3F02D3673FEDFA89BF86
:10CF48007D7582BF1A4676BF697E863FC0AC293D93
:10CF58002AD16CBFF0C1ECBFEAB646BFD833813ED8
:10CF68009857843E9AE436BF0EEE27C0A0D3C1BFBF
:10CF78001495E6BE74C9D1BE74AEBDBE20D1A7BF9C
:10CF8800A0B19DBF68D134BE5C8C553F68941FBE6C
:10CF980020458DBFE00E84BFC0CA883C60272C3D69
:10CFA80030AC873D70A063BF901C53BF989C5D3E1A
:10CFB8006E469B3F1843563E1388DDBFB0AD26BF73
:10CFC800B06118BFCCE8DF3E8CEAE43EA321C0BFC5
:10CFD80000DFDBBE8052C3BEC0A2ABBE961B303F93
:10CFE8006B62A2BF938897BF0002FCBDC08AAFBD29
:10CFF80080524CBD3E7B7EBF6E306BBFE006083E64
:10D00800C0F0243E8079403E2ED743BF66A1D6BFEC
:10D01800CE5C17BF70C0E53E4065EE3EE073F63E5D
:10D028005E05BBBF8CAAC4BE2C7EA9BEF8D8323F11
:10D038001094343F9CDF88BEF83C61BE60DC4D3FF5
:10D0480020344E3F18A830BE2AEE8DBF60B141BDD6
:10D05800809F18BC409FDD3C20597D3D042862BF5D
:10D0680054284FBF4CC63CBF04049F3EA4A3AB3E0C
:10D078009491B73E74D2C23E14CC13BFF41BED3E5C
:10D08800A4F6F53E18CCF6BE5865D9BEE80ABDBE72
:10D098008AA5293F7AEF2B3F281399BEE1319DBF1E
:10D0A800105D23BE7A215D3F60E5E9BDAA10683FA7
:10D0B800D6FD01C0C0184F3DF24D64BF70A7273E92
:10D0C8004D4F963FB0343C3E2ACB43BFE8BA913E21
:10D0D8005106A53F98FE953E624B29BF013BAE3FE6
:10D0E80048C9B83EE83CC33ED810CD3E8849D63E34
:10D0F80078EBDE3E1A0407BF2C1C023F744EEABED2
:10D10800DC33133FC4A0C9BE24CE223F3C93243F46
:10D11800A4C6A8BE5C4F323F34A58EBE08236FBE9E
:10D128005CD3493FB4A2493F28F444BEC8A21BBE01
:10D1380050DBE7BD50999BBDA433703F207B46BDB3
:10D14800803071BCC026903C60C3463DE63F873FB7
:10D15800B0D9823D30F6BB3D7079F23D38B355BF4A
:10D16800EE2E983FB88C423EEE5D983F58A7423E5F
:10D1780038B5573E58AB6B3EEA129D3F18F5643EF2
:10D1880038C5763ECCCC833E7CBC8B3EFC34933E8B
:10D198008C399A3E7CCDA03E0CF4A63E5CB0AC3EE9
:10D1A800AC05B23E10061FBF8C43D13EFCFAD43EFC
:10D1B800CC57D83E1C5DDB3EEC0DDE3E004B0ABF73
:10D1C800BC39F83EE07FFBBE0620083FCE3F083F53
:10D1D8001E3E083F5E1C083F404BE5BE465C123FC2
:10D1E8004A13C63F5E3BC03F4CD3F43EA631BA3F1C
:10D1F8009CC9DC3EF8930CBF2C7FF03E3CC4EE3E4D
:10D20800B00F04BFF64D003F4CFBFD3ED0C7F9BE42
:10D21800060D073F0E53053F668C033FFEB9013FDD
:10D228009049F5BEBED3083F0EA6063F4E70043F98
:10D238005E33023F2023F5BEF0F8E3BECED7103FA1
:10D24800EE0A0E3F063B0B3FDE68083F3695053F6A
:10D25800A081EFBEA06EDFBEBE96123FF6480F3F1C
:10D2680046FD0B3F66B4083F4AF8BF3F5C9FEE3E61
:10D278004CA1E83E2AECB53F20FD16BFBC63D73E63
:10D288002C94D13E6235B03F0C63B03E3C3AAB3E85
:10D298001C21A63E3C18A13E80712CBF4CF5AC3E2B
:10D2A800CCA4A73E8C66A23E0C3B9D3EAC22983E89
:10D2B800B0F230BFCCE8A33E30392BBFD0FC22BF40
:10D2C8001C1CBF3E0C0DB93E3C14B33E0C32AD3EA7
:10D2D8000C67A73E9CB3A13E0C189C3EAC94963EAE
:10D2E800AC29913E5CD78B3EEC9D863E9C7D813E71
:10D2F80018ED783EB8116F3EF2ED993F3E50933FDE
:10D30800B2D78C3FB037943D3041883D960B853F6E
:10D318008045543C80050D3C44A47B3F34C06F3F9E
:10D32800D424643FCCD1583F88EB32BE24E14D3F32
:10D33800686A5DBE6C91433F4C26393FB40197BE85
:10D34800C40695BE8402313F1C2F273F149F1D3F02
:10D35800945FCCBEA424163F5C1D0D3FEC56043FE1
:10D3680048A1F73E9813E73E4803D73ED86EC73E1C
:10D37800A854B83E95ADA73F98CC853E52383EBFDD
:10D38800B887813E506E693EB0AC503ED0C6383E3C
:10D39800521352BFB0F7363EDD53913F201DBF3DBB
:10D3A8005DB8863F0081533C008A83BBBA54753F01
:10D3B8003A7F663F10B409BEAAF1543F90974DBE1C
:10D3C8002A8B443F3245373F4A642A3FC834B9BEA6
:10D3D8009AAA1C3F92B3103F48CAEABEEAC1043F6A
:10D3E800F451F33EE4D7DD3EE412C93E7C0120BF90
:10D3F8000459B73E3427A43E549F913E087D7F3E92
:10D40800E8035D3E74BA943F3C4C8B3FA05B1C3DE7
:10D418004CA577BF74CE803F302B703F803E5F3F76
:10D4280020D54E3F18516EBE60633A3FE03B2B3F1C
:10D43800DCE1BBBE3C87C2BE8CB6C8BEE847133F22
:10D4480000C3053F0063F13E06700EBFC07ED53EA7
:10D4580083A0AC3F209B903E1E203DBF60EE763EF1
:10D46800C0814D3E00A7253E972B8D3F00413C3D96
:10D47800C65477BF0006BA3C005A13BC566F703FBB
:10D4880080F2E2BDA0E70CBE800A27BE16874A3F9D
:10D4980026C0393FC0FBA1BEC0A7ABBE20C2B4BEE8
:10D4A80016DA1B3F06BEC33F661FB73FB0451FBF16
:10D4B80063E9CDBF6C7EC43E0C1DAB3E0CA7923E0B
:10D4C8009830763ED8D8483E983E1D3E30B2E63D6C
:10D4D800303F963D6026123D0050E3B9A06C0FBD69
:10D4E80038F885BFDCD86B3F5C03593FA8E84EBECF
:10D4F80028036ABE8C91393F7C99283F0C32183F2B
:10D508003451E4BE342FEDBE388EFF3E5820E23E43
:10D518000AA317BFD81BC03EB844A53E786A8B3E05
:10D52800B010653EBA344DBFB0AB323E2A1F59BF6A
:10D53800F0AA053EE03EB63DC033493D00A3323C6B
:10D54800FD8A80BF88D8FCBFC0E2033D00F429BB38
:10D55800401113BDA0CA8ABD2026C9BD02EC593F9F
:10D56800502F4ABEC5C899BF108751BE50F469BE36
:10D5780052393A3FA846A1BE482DABBEBD60AABFEE
:10D588006886A7BE6838B0BE4862B8BEE807C0BEA5
:10D5980012EB163FE2B8083F8401F63E8481DB3E79
:10D5A800C4EDC13E64E025BF2437A73EE4D48F3ED6
:10D5B800089E723EC842473E941D53BF48F5203E20
:10D5C8001008F33D24B5873F0062743BC089F0BC66
:10D5D800E0F179BDDAEF88BF289C663F2A4890BF02
:10D5E80032358EBFF066EDBD78EB10BE38E429BE4B
:10D5F80038184A3FAAB69DBFF8A96CBED8443A3F2E
:10D608007CCD9FBE7C61A8BEEA5CA9BF5AD1A5BFEC
:10D61800B878303F68D4213FFCB0CDBE1A18B2BFED
:10D628001CDEC2BE1C2AC8BE3C0DCDBEDC8AD1BEE3
:10D638005AAAB2BF7CA6C3BEFC81C7BE58FF143F1E
:10D64800FCECE3BE9AD3B6BF5C9DD2BE7CD9D4BEF7
:10D658001CCBD6BEFC74D8BE3AB7B3BFD290AEBF0F
:10D668003279A9BF9CC09CBE3C9B9EBE3C3CA0BEE0
:10D67800BCA5A1BEBCD9A2BE7894283F3C65BABE61
:10D688002AE3ABBF5CC4A4BEBC0AA5BE3C27A5BEAA
:10D698009C1BA5BE2A7BA6BF6AF6A0BF383772BE00
:10D6A80038EC72BE386073BE289C3D3FC221A1BFD2
:10D6B800128C9BBFF86C46BE18D3483FB84C72BE5C
:10D6C800EA689BBF788F44BEF82044BEE2B195BF9C
:10D6D800E22A90BF62FF03C0A4F87FBFB4C575BF3C
:10D6E800209F6B3D84DC6CBFD40A63BF646E59BF56
:10D6F80008EA293EE4B251BF147848BF54723FBFCC
:10D708008591D8BF542723BF6408BF3EA4E51DBF39
:10D71800DD33C8BFE5DEBEBF4806E2BE0831D4BE71
:10D72800D5F0AEBF653EA6BF080A82BE506B6DBE7F
:10D73800108157BED05142BE10DB2DBE68E206C034
:10D74800254483BF9A8D77BF6AFB68BFE086FD3D9D
:10D758007AEA57BFF0CE403EB0384A3E7ABE45BF5F
:10D76800EACF38BF5A422CBFAA1420BFAA4514BF1B
:10D778001AD408BF547DFBBED8C2B6BF148ABBBE3C
:10D78800A83DA7BF289C7EBEA8145BBE485C94BF7A
:10D7980050E7D8BD50789BBDA00141BDD300FDBF67
:10D7A80010FE62BF501F52BF60C641BF6C20913E41
:10D7B8002C0A9A3E504A29BF6C0DC03E2CF7C63E33
:10D7C80030CE13BFA0F305BF2020F1BE2043D7BE43
:10D7D800804CBEBE6038A6BE7B01A1BFC60B493FC8
:10D7E80066B2483F805049BE809220BEFB6D8CBF18
:10D7F8007F4B82BFE6F070BF40D0E43D20AB103EC7
:10D8080020832D3EA0F8483E86BC41BF40AB933EE6
:10D81800B0F09E3E2096A93EB6B120BF961A11BF21
:10D82800B0EDF03EECBBFCBE30690A3F8ED9B3BF09
:10D838000C9FA9BE107C323F1C278DBED8F669BE4E
:10D84800B8753BBEF8C10EBEB0A4C7BDE0776ABDCF
:10D858007C487FBFA0D7783D542362BFC89D2E3E29
:10D8680008C74D3EE86C6B3E74CC833E442A913E1B
:10D8780094D49D3EF4CFA93E14F11FBF64BD0FBFE1
:10D88800EC1700BFB8FCE1BE98DCC4BE421C263FC2
:10D898004D20A6BF71119ABF100409BEEA07643F64
:10D8A8008A76643FE0B7AEBD40D12FBD0AEB793F21
:10D8B800007ABFBBC05C043D20F38C3D5AF45FBFC7
:10D8C800D0CA373E505E573ED067753E68F8883EEE
:10D8D800DA402FBFE80FB93E48B5C43EA8ADCF3EE9
:10D8E800B2820DBF5866F93E440AF3BEBCD60F3F5C
:10D8F800B46DCEBE545AB2BE144E97BE28887ABEB6
:10D90800D465483FCC91493F680040BE88B111BEFC
:10D91800106FCABD54DF6B3F6C3C6B3FF4686A3FC5
:10D9280050D388BD404AEDBC001BEF3BE0162C3DB0
:10D93800300C9A3DE8205FBF78FC373E9895543EFE
:10D94800D8C56F3E0CCB843E9C07913EEC9C9C3E18
:10D958006C8FA73EAAB9A93F4CE1A53E6C80AF3EAB
:10D968008C8DB83EFE83AD3F2C46B33ECC30BB3EDB
:10D978003C99C23EE8BF15BFDCAEE53E2C2CEB3E21
:10D988005C36F03E2CD1F43E3C00F93E2CC7FC3E00
:10D998002A4BBD3F9C6EED3E1664B93F1C95DD3E9B
:10D9A800CC7CE03E90F908BFCC0DFB3EBC85FC3E2C
:10D9B8000051F7BE06290A3F863A0A3FAE2A0A3FB7
:10D9C800EEFA093FB6AC093F5641093F2EBA083F67
:10D9D80010D2E4BEB63B123F4E2B113F3E04103F1F
:10D9E800B6C70E3FF6760D3F1E130C3F70C8DFBE5C
:10D9F800CEF4133FE620123F663E103F664E0E3FC0
:10DA0800605FDCBEEE27153FB6ACC63F3EA0053FC3
:10DA1800BE7B033F2064F2BE6EFA093FA683073F30
:10DA2800B607053F6E87023F10FCF4BE804DE4BE8A
:10DA38005E72103FEE6C0D3FFE660A3F4661073F7F
:10DA4800865C043F5659013FDCB0FC3ECCB4F63E40
:10DA5800C02102BF6E64BD3FF84708BF5C55F43E65
:10DA68005C0BEE3E9CCDE73E0C9DE13E8C7ADB3EA6
:10DA78000C67D53E9A19B13FDCB3B33EDC4CAE3EE1
:10DA8800D80526BF4C70B93E6CC4B33ECC2BAE3E15
:10DA9800202E26BF70081EBF1CD7C83EDC99C23E88
:10DAA8008C72BC3EAC61B63EBC67B03E1C85AA3EDB
:10DAB8005A6FA63F7C4B893E5C2C843E784B7E3E59
:10DAC800BECE9B3F384D3F3ED8CA363E20E34EBFC0
:10DAD80018D2513EF8EC483EF247953FB83E0C3E0E
:10DAE800B8E3043EB072FB3D707EED3D6A3F8B3F6C
:10DAF800EC1E0140B4E0723F90AC9ABD901C9FBDF3
:10DB08009036A3BDE4A1653F08B200BEE84F01BE50
:10DB180088C801BE481D02BEACED593F4C0B4F3FB3
:10DB2800C84C58BE283456BEC8FF53BE6D4BE03FA4
:10DB3800441D93BE04E890BE84A88EBEB451343F01
:10DB48003C9C2A3F0C28213FF419C5BEEC91ADBF7F
:10DB580004AA263F7C7C1D3F9187C73FA4FE003F57
:10DB6800C2B801BF885BF73E72CE06BFF8A3ED3E90
:10DB7800F81FDE3E3810CF3E4873C03EC847B23E5D
:10DB8800488CA43E383F973E8DD89F3F305C503E2E
:10DB98004D68943FE0E6EE3D759D893FC29771BFA1
:10DBA8004050743D199B823FDAF6753F3A23673F30
:10DBB800301D07BEDA98553F22C4473F9A563A3F70
:10DBC8000A4F2D3F42AC203FF26C143FC28F083FF2
:10DBD80078CABB3FA430CE3EC4EA1DBF549FBA3EAC
:10DBE800748FA63E640DA23F4892553EACDF4DBFF0
:10DBF800C8473C3EC8E51A3E1094F53D90DCB73D59
:10DC08002031793D2C0A72BF2050483D4014B83C61
:10DC18002C3D7BBFB49476BFBCE471BF202E553D2C
:10DC2800A0D8803F00F1703F709CCEBDD8C45B3F48
:10DC3800483A4C3F70283D3FD08D2E3FD068203F5A
:10DC4800AC93CFBE5C55D4BEF0280E3F304E013F9A
:10DC580060C1E93EE6A211BF0049D03E806DB93EE1
:10DC68007B18A63F80BA703E60B1483E402C223EE9
:10DC78008047FA3DD372883FDEFFFB3FC08ED5BD9B
:10DC8800E04507BEA38E91BF164D563F060C453F93
:10DC98000658343F20A5ACBE4029B6BE16F41A3F3C
:10DCA80056E40B3FA054FABED05800BF4C76EE3E67
:10DCB800F617B23FB61FA63FD80C6A3E60A74BBF07
:10DCC800B0FE4BBFD87D393E9E088F3F60EF643D64
:10DCD8002B37F8BF408269BF30B8933D86DC813F5F
:10DCE800A03B28BD501896BDF0928ABFFC35633F13
:10DCF80041B8E53F4C5F343F60C2A8BF342EA3BE95
:10DD0800DC8B233FD10FC73F18B9F23ECAC20FBF01
:10DD1800DAFC12BFF988AF3F8152A33FB0CB513E26
:10DD2800F069213E8AC55DBF7A0E5EBFE00CE33D17
:10DD3800E0398D3D80A9EB3C2A007DBF4A927BBF2C
:10DD4800820A7B3FB211673FD5A390BFD03006C08F
:10DD5800A0CBADBD92F55C3F4C91E23F68F798BE11
:10DD6800CD84A6BF55F1A3BFB25C323F2823B1BE14
:10DD7800E827BBBEA893C4BE886ACDBE32A90F3FB0
:10DD880042EE003F246AE53EDD03C8BFFDC3C3BFC2
:10DD9800C48604BFF40DB73F046FB73ECDCED2BFE3
:10DDA8002DE0CDBFC42BC63EE441AE3E7C0DA33F63
:10DDB80044E244BF347944BF886D5A3EFC7C933FAB
:10DDC80090D8BE3D84C66BBF2D15F2BF10A5EF3DA0
:10DDD80010A8A93D8CA8833FAA4E80BF15DDFBBFC4
:10DDE80004DF6EBF20596F3DCCFF803FE08128BD26
:10DDF800068A01C0743B7CBFA8237D3FA8CE6B3F39
:10DE08007019FCBD5E7D06C0A27187BF58996B3F33
:10DE1800E8595B3FF8A83BBE8AEA96BF229293BFB7
:10DE2800988C543FB879453FFC4A87BE82B9A0BF59
:10DE380078AB7CBEBC9984BE5C7A8ABE5884323F7B
:10DE480002F7A7BF129BA3BF7C1C88BEC828343F1B
:10DE5800B829273F5A39ADBF42DB12C0224F9EBFB7
:10DE6800187D413F3C858BBE3AE2A0BFC6B10CC0CD
:10DE7800120392BF38025A3FF85535BE0ABA94BF0A
:10DE8800FEA506C042FE85BF48E2713FB8DE643F8A
:10DE9800F83B09BE02248FBFAED203C0C011C2BC7A
:10DEA800E887723FE29587BFF0B33EC085ADF0BF0B
:10DEB800C8651C3EFC748F3F949363BFC5C0EABF1E
:10DEC800BD1CE1BF54D734BFC48A9A3EE4A830BF12
:10DED800ADD2D1BF0DB6C8BFC4D1EA3EE42EE23EF2
:10DEE80084B4D93ED4B421C005E6B7BF088EC8BEF5
:10DEF800D2F91B3FF2B2163FA5C0B1BF745813C088
:10DF0800D01175BE52F9413F62B13B3FD4800EC07B
:10DF18009D7F92BF20C9DBBD42CD623FB2905B3F7F
:10DF2800154A90BF35EF88BF05C481BFD2727F3FC5
:10DF38009250773F65DB82BF4AE077BFB073F2BF8C
:10DF4800514D913FE021F73D7AD259BFCA444DBFA8
:10DF58002A0F41BF31E99F3FB0736C3E9A943EBF90
:10DF680088BFD6BFD8AECBBFB86CE63EB8F7E43EA4
:10DF78004AD308BF40ABBCBF9AD217C094CD96BE57
:10DF88008C77373FB4AC8BBE38299CBFC8DB92BFB7
:10DF98005000C9BDDC15683F50CFB6BDA07885BF1D
:10DFA800E0EA79BFA06269BF58AA043E1874173E18
:10DFB800DB57E5BFDB5BD8BF6C1EBB3ECCC8C03EA1
:10DFC8000C08C63EB3C9C7BFA038FABE4061E1BE5F
:10DFD80036D0153FD686163FE0DEC6BEA358A9BF89
:10DFE800C0EE84BE2643423F463C413F1B789ABF61
:10DFF80080F217BE33C28BBF005C18BD5E04793F48
:00000001FF